:020000040800F2
:10000000103D0020D5020008350300083503000824
:100010003503000835030008350300080000000020
:100020000000000000000000000000003503000890
:100030003503000800000000350300082D07000804
:1000400035030008350300083503000835030008B0
:1000500035030008350300083503000835030008A0
:1000600035030008350800081508000835030008A6
:1000700035030008350300084D0D0008350300085E
:100080003503000835030008990B00083503000804
:10009000350300083503000835030008550800083B
:1000A0003503000835030008350300083503000850
:1000B0003503000835030008350300083503000840
:1000C00035030008350300083503000861100008F7
:1000D00035030008D9100008451100083503000851
:1000E000E10800083503000835030008000000009F
:1000F0000000000000000000000000000000000000
:1001000000000000000000005FF808F110B5054C89
:10011000237833B9044B13B10448AFF300800123B3
:10012000237010BDB808002000000000E8CA0008D5
:1001300008B5064B1BB106480649AFF300800648D8
:10014000036813B1054B03B1984708BD00000000D8
:10015000E8CA0008BC080020B40800200000000025
:1001600080B500AF154B154A126842F001021A60C3
:10017000124A124B5968124B0B4053600F4A0F4BF7
:100180001B6823F0847323F4803313600B4B0B4AFA
:10019000126822F480221A60084B084A526822F43E
:1001A000FE025A60054B4FF41F029A6000F00CF8F3
:1001B000044B4FF000629A6080BD00BF0010024007
:1001C0000000FFF800ED00E080B500AF00F002F89D
:1001D00080BD00BF80B483B000AF00237B600023EC
:1001E0003B603A4B394A126842F480321A60374B0E
:1001F0001B6803F400333B607B6801337B603B6822
:10020000002B03D17B68B3F5A06FF0D12F4B1B6897
:1002100003F40033002B02D001233B6001E00023F4
:100220003B603B68012B4BD1294B294A126842F0B5
:1002300010021A60264B264A126822F003021A6046
:10024000234B234A126842F002021A601F4B1F4AD6
:1002500052685A601D4B1D4A52685A601B4B1B4A1C
:10026000526842F480625A60184B184A526822F46D
:100270007C125A60154B154A526842F4E8125A60D3
:10028000124B124A126842F080721A6000BF0F4B84
:100290001B6803F00073002BF9D00C4B0B4A52681B
:1002A00022F003025A60094B084A526842F00202E7
:1002B0005A6000BF054B5B6803F00C03082BF9D1B3
:1002C0000C37BD465DF8047B704700BF001002404C
:1002D0000020024080B582B000AF114B7B60114B13
:1002E0003B6007E03B681A1D3A607A68111D79602F
:1002F00012681A603A680C4B9A42F3D30B480C49C7
:100300004FF000028842B8BF40F8042BFFF6FAAF66
:10031000FFF726FF05F060F90837BD4680BD00BF36
:10032000F0CA000800000020B8080020B80800202B
:100330001029002080B400AFFEE700BF80B489B070
:1003400000AF786039600023FB6100233B6100232C
:10035000BB610023FB6000237B610023BB603B6823
:10036000DB7803F00F03FB613B68DB7803F01003DD
:10037000002B04D03B689B78FA691343FB613B6810
:100380001B88DBB2002B44D07B681B687B61002399
:10039000BB6138E0BB69012202FA03F3FB603B68F2
:1003A0001B881A46FB6813403B613A69FB689A4216
:1003B00026D1BB699B00FB60FB680F2202FA03F3A6
:1003C000BB60BB68DB437A6913407B61FB68FA69F9
:1003D00002FA03F37A6913437B613B68DB78282BCD
:1003E00005D1BB6901229A407B685A6108E03B68ED
:1003F000DB78482B04D1BB6901229A407B681A61E3
:10040000BB690133BB61BB69072BC3D97B687A69C0
:100410001A603B681B88FF2B46D97B685B687B6151
:100420000023BB613AE0BB690833012202FA03F3FF
:10043000FB603B681B881A46FB6813403B613A69C6
:10044000FB689A4227D1BB699B00FB60FB680F22C7
:1004500002FA03F3BB60BB68DB437A6913407B613C
:10046000FB68FA6902FA03F37A6913437B613B681C
:10047000DB78282B05D1BB69083301229A407B68C1
:100480005A613B68DB78482B05D1BB6908330122F0
:100490009A407B681A61BB690133BB61BB69072B5A
:1004A000C1D97B687A695A602437BD465DF8047B00
:1004B000704700BF80B487B000AF78600B46FB7018
:1004C00000233B610023FB6000237B610023BB60B2
:1004D0007B68002B03DA2E4BDB697B6102E02C4B3F
:1004E0005B687B617B6803F470231B0CBB607B68DB
:1004F0009BB23B617B6803F44013B3F5401F0AD104
:100500007B6923F070637B61214B214A526822F0A2
:1005100070625A6021E07B6803F48013002B0ED0D8
:10052000BB68032202FA03F3FB60FB68DB437A69D2
:1005300013407B617B6943F070637B610DE07B68F6
:100540005B0D1B013A6902FA03F3DB437A6913403E
:100550007B617B6943F070637B61FB78002B08D083
:100560007B685B0D1B013A6902FA03F37A69134356
:100570007B617B68002B03DA054B7A69DA6102E064
:10058000034B7A695A601C37BD465DF8047B70479F
:100590000000014090B484B000AF02460B46FA71EF
:1005A000BB710023FB60BB7903F003039B000F22A8
:1005B00002FA03F3FB60154BBA799208D2B21349E1
:1005C000B8798008C0B2023051F82000F968C943F8
:1005D0000140023243F822100C4BBA799208D2B291
:1005E0000A49B8798008C0B2023051F82000FC797D
:1005F000B97901F00301890004FA01F101430232E3
:1006000043F822101037BD4690BC704700000140EF
:1006100080B483B000AF0346FB71084B97F9072005
:100620005209F97901F01F01012000FA01F143F8A4
:1006300022100C37BD465DF8047B704700E100E0F6
:1006400080B483B000AF03463960FB7197F907307F
:10065000002B0BDA0D49FB7903F00F03043B3A68DA
:10066000D2B21201D2B20B441A7609E0084997F9C6
:1006700007303A68D2B21201D2B20B4483F8002399
:100680000C37BD465DF8047B704700BF00ED00E00D
:1006900000E100E080B582B000AF78607B68B3F124
:1006A000807F01D3012311E00A4B7A6822F07F4258
:1006B000013A5A604FF0FF300F21FFF7C1FF054BA1
:1006C00000229A60034B07221A600023184608375D
:1006D000BD4680BD10E000E080B500AF44F67D006F
:1006E000012105F0A7F8054B1A68054BA3FB02137F
:1006F0009B091846FFF7CEFF80BD00BF0000002019
:10070000D34D621080B483B000AF78607A68064B36
:100710001A6000BF044B1B68002BFBD10C37BD4691
:100720005DF8047B704700BF940C002080B400AFDC
:100730001F4B1B68002B04D01D4B1B685A1E1C4B03
:100740001A601C4B1B685A1C1A4B1A601A4B1B6808
:100750005A1C194B1A60194B1B780133DAB2174B2C
:100760001A70174B1B685A1C154B1A60154B1B88C7
:10077000002B05D0134B1B88013B9AB2114B1A80FA
:10078000114B1B68B3F5FA7F04DA0F4B1B685A1C38
:100790000D4B1A600D4B1B78012B05D10C4B1B78B0
:1007A0000133DAB20A4B1A70BD465DF8047B70471C
:1007B000940C0020D408002048090020540900208F
:1007C00050090020800900204009002069280020ED
:1007D0006728002080B500AF01200521FFF7DAFE71
:1007E0000B4B00221A710A4B08225A71084B202227
:1007F0001A60074B01229A71054805F075F8172019
:100800000121FFF71DFF1720FFF702FF80BD00BF8A
:100810007028002080B500AF102005F0E1F80346F5
:10082000002B05D0102005F0CDF8102005F0FCF8C5
:1008300080BD00BF80B500AF082005F0D1F80346A9
:10084000002B05D0082005F0BDF8082005F0ECF8D5
:1008500080BD00BF80B500AF202005F0C1F8034681
:10086000002B05D0202005F0ADF8202005F0DCF8A5
:10087000402005F0B5F80346002B05D0402005F0D8
:10088000A1F8402005F0D0F8802005F0A9F8034633
:10089000002B05D0802005F095F8802005F0C4F8E5
:1008A0004FF4807005F09CF80346002B07D04FF4FE
:1008B000807005F087F84FF4807005F0B5F84FF4BC
:1008C000007005F08DF80346002B07D04FF4007040
:1008D00005F078F84FF4007005F0A6F880BD00BF71
:1008E00080B500AF4FF4006005F07AF80346002BA6
:1008F00003D04FF4006005F097F84FF4806005F0E6
:100900006FF80346002B03D04FF4806005F08CF89D
:100910004FF4805005F064F80346002B03D04FF4E9
:10092000805005F081F84FF4005005F059F8034667
:10093000002B06D04FF4005005F076F80F4B012243
:100940001A704FF4804005F04BF80346002B06D098
:100950004FF4804005F068F8094B01221A704FF4FB
:10096000004005F03DF80346002B06D04FF4004050
:1009700005F05AF8034B01221A7080BD412800206F
:10098000CC0C00206828002080B500AF4848012129
:10099000FFF790FD474B474A526842F000725A6099
:1009A000454B4FF410621A80434B1022DA70424BD1
:1009B00003229A7041484049FFF7C0FC3E4B102289
:1009C0001A803D4B4822DA703B4B03229A703B4819
:1009D0003949FFF7B3FC384B4FF480721A80364B1D
:1009E0001022DA70344B03229A7035483249FFF7EF
:1009F000A5FC314B20221A802F4B4822DA702E4B57
:100A000003229A702E482C49FFF798FC2A4B882223
:100A10001A80294B1022DA70274B03229A7029483A
:100A20002549FFF78BFC244B4FF440721A80224B70
:100A30004822DA70204B03229A7022481E49FFF7A1
:100A40007DFC1D4B4FF68C421A801B4B1022DA7036
:100A5000194B03229A701C481749FFF76FFC164B7D
:100A600060221A80144B4822DA70134B03229A70CA
:100A700015481149FFF762FC0F4B7E221A800E4B7E
:100A80001022DA700C4B03229A7010480A49FFF7C3
:100A900055FC094B4FF680721A80074B4822DA70DA
:100AA000054B03229A7009480349FFF747FC80BDB4
:100AB0000004300000000140302800200008014000
:100AC000000C0140001001400014014000180140DA
:100AD00080B500AF4FF4804004F0C0FD4FF40070CB
:100AE000012104F0A7FE0420012104F0A3FE264BFF
:100AF00030221A80244B0022DA70234B03229A7092
:100B000022482149FFF71AFC214B00221A60204B92
:100B100000221A711E4B00225A711D4B4FF46022A5
:100B20009A601B4B0022DA60194B01221A74194893
:100B3000174904F087FF012005F080F815484FF4AD
:100B40000871012204F0ECFF1220FFF761FD11484B
:100B5000012104F0C9FF0F4805F004F800BF0D485B
:100B600005F010F80346002BF9D10A4805F022F8E9
:100B700000BF084805F02EF80346002BF9D10548C0
:100B8000012105F03FF880BD302800200010014011
:100B9000301D00200024014080B400AF084B084AFB
:100BA000126822F002021A60054BDA6C054B1A60DB
:100BB000054B01221A70BD465DF8047B704700BFEB
:100BC00000240140680900206409002080B582B03B
:100BD00000AF78600A4B7A685A630A4B00221A7099
:100BE0000748012105F00EF800BF064B1B78012BCA
:100BF000FBD1054B1B6818460837BD4680BD00BFBA
:100C000000240140640900206809002080B500AF7D
:100C1000264B4FF400721A80244B03229A70234B08
:100C20001822DA7022482149FFF788FB1F4B4FF446
:100C300080621A801D4B03229A701C4B0422DA70CA
:100C40001B481A49FFF77AFB4FF48040012104F05A
:100C5000F1FD184B4FF4E1321A60164B00229A80D6
:100C6000144B0022DA80134B00221A81114B0C2204
:100C70005A81104B00229A8125200F21FFF7E0FCBA
:100C80002520FFF7C5FC0C4840F22551012205F054
:100C9000CBF80948012105F0A7F80748054904F0F9
:100CA000E9FF0120012104F0A7FD80BD30280020CC
:100CB00000080140101D00200038014080B58EB0B2
:100CC00000AF78600B467B801D4805F0BDF91D4BD9
:100CD000FB607B683B6110237B617B88BB610023E9
:100CE000FB6180233B6200237B620023BB62002305
:100CF000FB6200233B6300237B6307F10C03104876
:100D0000194605F05DFA0E200E21FFF799FC0E2022
:100D1000FFF77EFC0A480221012205F0ABFA0A48DF
:100D2000C02105F0EDF808488021012205F0C4F843
:100D30000348012105F082FA3837BD4680BD00BF67
:100D400044000240043801400038014080B500AF43
:100D50004FF4005005F0ACFA0346002B14D00C48B9
:100D6000002105F06BFA4FF4005005F0CBFA4FF478
:100D7000005005F0E1FA0748002105F05FFA064847
:100D8000C021002205F098F8044B00221A7080BDA3
:100D90005800024044000240003801408C09002005
:100DA00080B500AF214B04221A80204B03229A7099
:100DB0001E4B1822DA701E481C49FFF7BFFA1B4B66
:100DC00008221A80194B03229A70184B0422DA70F9
:100DD00017481649FFF7B2FA4FF40030012104F02A
:100DE00047FD144B144A1A60124B00229A80114B93
:100DF0000022DA800F4B00221A810E4B0C225A81FE
:100E00000C4B00229A812620FFF702FC0B4840F28F
:100E10002551012205F008F80848012104F0E4FFFB
:100E20000648044904F026FF80BD00BF302800209A
:100E300000080140BC0C0020688909000044004003
:100E400080B485B000AF0346FB800023FB6002E066
:100E5000FB680133FB60FA88FB689A42F8DC1437C0
:100E6000BD465DF8047B704780B584B000AF0023B9
:100E7000FB600023FB720D4B1B78DBB2002B12D101
:100E80000B4B1B68012B0ED9094B1B687B607B68E1
:100E90009BB208481946FFF711FF054B00221A6064
:100EA000024B01221A701037BD4680BD8C0900200C
:100EB000AC0C0020000D002080B584B000AF78603D
:100EC0000023BB810023FB811A4B1B78DBB2002B74
:100ED0002DD1786806F03AFD0346BB81BA89164BDE
:100EE0001B681A4440F6FB739A4202D9124B002247
:100EF0001A60114B1B68FB810CE0FB89F9890E4AD3
:100F000012688A1A79680A4411780C4AD154FB890C
:100F10000133FB81FA89B989074B1B680B449A425C
:100F2000EBD3BA89044B1B681A44034B1A60103781
:100F3000BD4680BD8C090020AC0C0020000D0020B7
:100F400080B485B000AF78600B46FB701A4B1B78FD
:100F5000DBB2002B2AD1FB78BB81BA89174B1B6807
:100F60001A4440F6FB739A4202D9144B00221A60CD
:100F7000124B1B68FB810CE0FB89F9890F4A126850
:100F80008A1A79680A4411780D4AD154FB890133D1
:100F9000FB81FA89B989094B1B680B449A42EBD350
:100FA000BA89064B1B681A44044B1A601437BD46B5
:100FB0005DF8047B704700BF8C090020AC0C00205A
:100FC000000D002080B586B000AF0920012104F09B
:100FD00031FC4FF48040012104F04AFC4FF42043DF
:100FE000BB821823FB750323BB7507F114031A4852
:100FF0001946FFF7A3F94FF48043BB821C23FB750E
:101000000323BB7507F1140313481946FFF796F93C
:1010100000233B804FF482737B800023BB8000233E
:10102000FB8000233B814FF400737B812023BB8135
:101030000023FB813B460948194605F097F907480C
:10104000012105F0D7F905484FF4807105F00EFA3B
:101050001837BD4680BD00BF000C0140003800407D
:1010600080B582B000AF0748012105F021FA0346A0
:10107000012B03D1034B9B899BB2FB710837BD4603
:1010800080BD00BF0030014080B584B000AF034692
:10109000FB71FB799BB20F48194605F0CBF900BFF5
:1010A0000C48022105F004FA0346002BF8D000BFDB
:1010B0000848012105F0FCF90346002BF8D005484B
:1010C00005F0C6F90346FB73FB7B18461037BD4697
:1010D00080BD00BF0038004080B582B000AF154829
:1010E00040F2255104F01CFF0346002B04D01148A8
:1010F00040F2255104F06CFF0E4B9B889BB2FB71B4
:101100000D4B1B785A1CD1B20B4A11700B4AF9795E
:10111000D1540B4B1B780133DAB2094B1A70054BD3
:101120001B889BB2BB71034B9B889BB2BB7108377A
:10113000BD4680BD003801403F280020900B0020B4
:101140001D27002080B582B000AF154840F2255120
:1011500004F0E6FE0346002B04D0114840F225516E
:1011600004F036FF0E4B9B889BB2FB710D4B1B7836
:101170005A1CD1B20B4A11700B4AF979D1540B4B5E
:101180001B780133DAB2094B1A70054B1B889BB2EE
:10119000BB71034B9B889BB2BB710837BD4680BDBA
:1011A00000440040201D002014200020B40C00202A
:1011B00080B485B000AF78600023FB7302E0FB7B56
:1011C0000133FB73FB7B7A6813441B78002B02D03E
:1011D000FB7B772BF3D9FB7B18461437BD465DF8B4
:1011E000047B704780B483B000AF00BF0C4B1B780A
:1011F000002BFBD00B4B1B785A1CD1B2094A117043
:10120000094AD35CFB71064B1B78013BDAB2044BF5
:101210001A70FB7918460C37BD465DF8047B7047A1
:101220001D27002000200020900B002080B586B0F4
:1012300000AF786000237B61786806F087FB034687
:10124000013B3B6117E07B697A6813441B78FB73B1
:101250007B697A6813443A6979680A4412781A708B
:101260003B697A681344FA7B1A707B6901337B61AE
:101270003B69013B3B617A693B699A42E3DB183782
:10128000BD4680BD80B584B000AF786039607B68B2
:10129000BB60BB68002B02DA7B685B427B6000238B
:1012A000FB60FB685A1CFA603A68D0187968174BE3
:1012B00083FB01239A10CB17D21A13469B001344C9
:1012C0005B00CA1AD3B23033DBB203707B680F4ABB
:1012D00082FB03129210DB17D31A7B607B68002B12
:1012E000DFDCBB68002B06DAFB685A1CFA603A6840
:1012F00013442D221A70FB683A68134400221A70B6
:101300003868FFF793FF1037BD4680BD6766666695
:1013100080B582B000AF786039607868FFF7CCFDA7
:101320003B6818460549FFF7ADFF0448FFF7C4FDC9
:101330000348FFF7C1FD0837BD4680BDE028002007
:1013400068BB000880B582B000AF7860396078680B
:10135000FFF7B2FD3B6818460449FFF793FF0348C7
:10136000FFF7AAFD0837BD4680BD00BFE02800207A
:1013700080B582B000AF786039607868FFF79CFD77
:10138000064807493A6806F09DF90448FFF794FDBE
:101390000448FFF791FD0837BD4680BDE0280020D6
:1013A0006CBB000868BB000890B585B000AF034671
:1013B000FB71974B974A5A62954B974A9A62944BA6
:1013C000964ADA62924B964A1A63914B954A5A634F
:1013D0008F4B954ADA638E4B944A1A668C4B944A2B
:1013E000C3F8A4208A4B934AC3F81821884B4FF0C6
:1013F0000002C3F80822864B8F4AC3F89823844B17
:101400004FF08242C3F828250023FB8115E0FB89B9
:10141000A3F1090213465B0013445B00A3F51673A6
:10142000184605F0E7FE0346BB60FA89784BB968B9
:1014300043F82210FB890133FB81FB89082BE6D995
:101440000923FB8126E0FB89093B184605F0A0FA39
:1014500002460B461046194663A3D3E9002305F064
:10146000FDFA02460B46104619464FF00002734B38
:1014700005F040F902460B461046194605F0B0FD4E
:101480000346BB60FA89624BB96843F82210FB89B6
:101490000133FB81FB890F2BD5D90F23FB8113E08F
:1014A000FB89A3F10F0213469B001344C83B184667
:1014B00005F0A0FE0346BB60FA89554BB96843F8B6
:1014C0002210FB890133FB81FB89182BE8D91823F3
:1014D000FB8126E0FB89183B184605F059FA0246C5
:1014E0000B461046194642A3D3E9002305F0B6FA8D
:1014F00002460B46104619463FA3D3E9002305F0E8
:10150000F9F802460B461046194605F069FD0346F8
:10151000BB60FA893E4BB96843F82210FB8901335E
:10152000FB81FB89292BD5D92923FB8126E0FB8967
:10153000293B184605F02CFA02460B461046194680
:101540002FA3D3E9002305F089FA02460B46104683
:1015500019464FF000023A4B05F0CCF802460B4614
:101560001046194605F03CFD0346BB60FA89284B3E
:10157000B96843F82210FB890133FB81FB89462BB4
:10158000D5D94623FB8126E0FB89463B184605F06A
:10159000FFF902460B46104619461BA3D3E9002368
:1015A00005F05CFA02460B46104619464FF0000261
:1015B000244B05F09FF802460B461046194605F0ED
:1015C0000FFD0346BB60FA89114BB96843F822103E
:1015D000FB890133FB81FB89822BD5D98223FB81D7
:1015E0005AE000BFAFF300809A99999999992040E9
:1015F0009A999999999905400000000000C06240AD
:10160000333333333333FB3F8FC2F5285C8FEA3FEC
:10161000202100200000C8C10000C0C10000B8C1E6
:101620000000B0C10000A8C10000A0C1000070C14E
:10163000000020C10000A0C00000A04000406F409A
:101640000000594000004940FB89823B184605F0E4
:101650009FF902460B46104619464FF00002384BE0
:1016600005F0FCF902460B46104619464FF0000201
:101670004FF0000305F040F802460B4610461946AD
:1016800005F0AEFC0346BB60FA892E4BB96843F8FF
:101690002210FB890133FB81FB89E62BD4D9E62399
:1016A000FB8126E0FB89E63B184605F071F902460E
:1016B0000B461046194620A3D3E9002305F0CEF9C6
:1016C00002460B46104619464FF000021E4B05F02D
:1016D00013F802460B461046194605F081FC0346F6
:1016E000BB60FA89174BB96843F82210FB890133B4
:1016F000FB81FB89B3F5A77FD4D3FB79002B17D0EF
:101700000023FB8110E0FC89FA890E4B53F822304C
:1017100018460E4905F076FE03461A46094B43F873
:101720002420FB890133FB81FB89B3F5A77FEAD332
:101730001437BD4690BD00BF8FC2F5285C8FD23FE5
:101740000000E03F2021002000004940000020412F
:1017500080B588B000AF78600023FB610023BB61D7
:1017600000237B6100233B610023FB732C4B1B6830
:10177000FB612B4B1B68002B03D17868FFF718FD2A
:10178000F861274B00221A60FB69BB61254B0022E0
:101790001A60254B1B681846244905F03BFF034699
:1017A000002B03D1224B1B889D2B37D9214B0022C4
:1017B0001A701D4B4FF000021A601F4B00221A6076
:1017C0001E4B00221A701E4B00221A701D4B002265
:1017D0001A601D4B01221A601C4B01221A601C4B1F
:1017E00000221A701B4B00221A701B4B00221A7029
:1017F0001A4B00221A601A4B00221A60194B202241
:101800001A70194B20221A70184B00221A70184BAC
:1018100000221A70064B00221A80A7E1A6E100BF41
:10182000E0080020F0080020B80C0020000048422A
:101830000E090020EE080020E8080020EC08002037
:10184000ED080020F4080020F8080020FC08002023
:1018500004090020050900200609002000090020D5
:1018600008090020D00900204C2600201009002083
:101870000C090020774B1B687A6813441B787E2B79
:101880003AD1754B1B78002B36D1734B01221A705D
:10189000724B4FF000021A60714B00221A60714BBC
:1018A00000221A70704B00221A70704B00221A60CE
:1018B0006F4B01221A606F4B01221A606E4B00229F
:1018C0001A706E4B00221A706D4B00221A706D4B0D
:1018D00000221A606C4B00221A606C4B20221A7096
:1018E0006B4B20221A706B4B00221A706A4B00223D
:1018F0001A706A4B00221A80594B1B68554A1268AD
:1019000079680A441178664AD154644B1B880133C4
:101910009AB2624B1A80524B1B68614AD35C3B2BD4
:1019200010D15D4B1B78002B0CD14B4B1B78012B3E
:1019300008D1494B00221A704B4B01221A70554BAB
:1019400001221A70464B1B68554AD35C3D2B05D0CB
:10195000434B1B68524AD35C3A2B09D1464B1B7848
:10196000002B05D1444B01221A704A4B01221A70F8
:101970003B4B1B684A4AD35C2E2B0DD13F4B1B7847
:10198000002B09D1444B1B78002B05D13B4B012286
:101990001A70404B01221A70314B1B68404AD35CCD
:1019A000242B09D1364B1B78002B05D1344B022256
:1019B0001A70384B01221A70294B1B68022B40F217
:1019C0009A80374B9B78202B40F09580314B1B78C9
:1019D000002B40F090802A4B1B78012B00F28B806B
:1019E000254B1B78012B07D0204B1B681C4A126823
:1019F0002B49895C2B4AD1541F4B1B78012B0BD1EF
:101A00001E4B1B78002B07D1194B1B68144A126818
:101A10002349895C1D4AD154174B1B78012B0BD1EC
:101A2000164B1B78012B07D1124B1B680C4A12680E
:101A30001B49895C164AD1540F4B1B78012B33D0BC
:101A40000A4B1B681F2B56D8084B1B685A1C074BA8
:101A50001A6050E0F0080020EE080020B80C0020CA
:101A6000E8080020EC080020ED080020F408002021
:101A7000F8080020FC0800200409002005090020C7
:101A8000060900200009002008090020D0090020D4
:101A90004C260020100900200C0900200E0900200F
:101AA00024270020D00C0020974B1B78012B11D14C
:101AB000964B1B78002B0DD1954B1B68C72B09D873
:101AC000934B1B685A1C924B1A60924B1B685A1C12
:101AD000904B1A608C4B1B78012B0CD18B4B1B78D5
:101AE000012B08D18C4B1B68C72B04D88A4B1B6871
:101AF0005A1C894B1A60894B1B78022B0DD1884BDD
:101B00001B78002B09D1874B1B68874AD35C1A4688
:101B1000864B1A60814B01221A707E4B1A68834BE8
:101B20001B689A4207D27D4B1B78012B03D1804B57
:101B300001221A7002E07E4B00221A70794B1B685A
:101B4000C72B04D8774B1B685A1C764B1A60794B0D
:101B50001B68C72B04D8774B1B685A1C754B1A603F
:101B6000FB69013BFB616E4B00221A70FB69002B85
:101B70007FF480AE704B1B78012B40F09E826F4B40
:101B80001B685A1C6D4B1A60674B1B787E2B06D165
:101B90006B4B1B7843F00103DAB2694B1A70624B4E
:101BA0005A78684B1B789A4206D1654B1B7843F0F4
:101BB0000203DAB2624B1A70614B1B78032B40F0C0
:101BC000D5816148614905F0A3FD0346002B18D17A
:101BD0005F4805F029FD03461A465E4B1A605D4BCF
:101BE0001B685D481946FFF793FB5A4B1B68002B97
:101BF00003D05A4B80221A61B8E1584B80225A61B7
:101C0000B4E15148564905F083FD0346002B1DD130
:101C10004F4805F009FD03461A464E4B1A604D4BDE
:101C20001B6850481946FFF773FB4A4B1B68002B93
:101C300003D14A4B08225A6198E1464B1B68012B9D
:101C400040F09481454B08221A618FE13E48464995
:101C500005F05EFD0346002B12D13D4805F0E4FC83
:101C600003461A463B4B1A603A4B1B683F481946DD
:101C7000FFF74EFB374B1B68184603F0AFFB75E1CF
:101C800031483B4905F044FD0346002B0CD139484F
:101C9000FFF712F93848FFF70FF9384B1B7838482F
:101CA0001946FFF765FB61E12748364905F030FD2D
:101CB0000346002B09D13448FFF7FEF82E48FFF702
:101CC000FBF8002000F0B8FB50E11F482F4905F059
:101CD0001FFD0346002B06D12B48FFF7EDF82648E1
:101CE000FFF7EAF842E11848294905F011FD0346DB
:101CF000002B51D12748FFF7DFF81F48FFF7DCF82A
:101D000000F0EEFD32E100BF0409002005090020CB
:101D1000F808002008090020FC080020060900201F
:101D200010090020E80800202427002000090020D6
:101D30000C090020F0080020ED0800202C090020EC
:101D4000EC08002014000020D00C00209CBB0008F0
:101D5000D009002018090020A4BB00080010014091
:101D6000B4BB0008B8BB0008C4BB0008CCBB00086B
:101D7000DCBB0008E0BB0008ECBB0008740B0020D3
:101D8000F0BB0008F8BB000800BC000810BC00084D
:101D900018BC000820BC00088B488C4905F0B8FC32
:101DA0000346002B08D18A48FFF786F88948FFF7D9
:101DB00083F800F041FBD9E08348874905F0A8FC8F
:101DC0000346002B29D1854805F02EFC03461A4610
:101DD000834B1A60834805F027FC03461A46824B62
:101DE0001A607F4B1B6881481946FFF7ABFA7E4BA0
:101DF0001B687F481946FFF78BFA794B1B68DAB2EC
:101E0000794B1B68DBB21046194600F0A7FC03466D
:101E100078481946FFF7ACFAA8E06B48764905F018
:101E200077FC0346002B25D16C4805F0FDFB0346EB
:101E30001A466B4B1A606B4805F0F6FB03461A46D0
:101E4000694B1A60664B1B686C481946FFF760FACD
:101E5000654B1B686A481946FFF75AFA604B1B68C6
:101E6000DAB2614B1B68DBB210461946654A00F0D6
:101E700017FC7BE05448644905F04AFC0346002BFC
:101E800019D1564805F0D0FB03461A46544B1A6048
:101E9000544805F0C9FB03461A46534B1A60504B91
:101EA0001B685A481946FFF733FA4D4B1B68184612
:101EB00000F0A8FC5AE04448554905F029FC0346C7
:101EC000002B19D1454805F0AFFB03461A46444B99
:101ED0001A60444805F0A8FB03461A46424B1A60B4
:101EE0003F4B1B684B481946FFF712FA3C4B1B68E7
:101EF000184600F0BBFC39E03348474905F008FCC0
:101F00000346002B14D1354805F08EFB03461A46D4
:101F1000334B1A60324B1B6840481946FFF7F8F9FB
:101F20002F4B1B68082004211A4600F0B9FB1DE066
:101F300025483B4905F0ECFB0346002B16D127480A
:101F400005F072FB03461A46254B1A60244B1B68AA
:101F500034481946FFF7DCF9214B1B681846FEF799
:101F600035FE034630481946FFF7D2F90023FB61DE
:101F700007E0154AFB69134400221A70FB6901331C
:101F8000FB61FB691F2BF4D90023FB6107E0134AB7
:101F9000FB69134400221A70FB690133FB61FB6982
:101FA000C82BF4D90023FB6107E00E4AFB691344F8
:101FB00000221A70FB690133FB61FB69C82BF4D95D
:101FC0000023FB613AE000BFD00C002030BC0008C9
:101FD00038BC0008ECBB000848BC0008D009002051
:101FE000180900204C2600201409002050BC0008CD
:101FF00060BC000864BC00086CBC000874BC00082D
:1020000084BC0008DDCCBBAA88BC000898BC0008D2
:10201000B0BC0008C0BC0008D8BC0008E4BC000884
:10202000F8BC0008FCBC000808BD0008354AFB6984
:10203000134400221A70FB690133FB61FB69C72B53
:10204000F4D9314B4FF000021A60304B00221A7065
:102050002F4B00221A602F4B00221A700023FB61C5
:102060002D4B00221A702D4B00221A602C4B00229F
:102070001A602C4B00221A702B4B00221A602B4B3B
:1020800000221A702A4B00221A602A4B00221A7072
:10209000294B00221A60294B00221A60284B00228B
:1020A0001A70284B00221A70274B20221A70274BD7
:1020B00020221A70264B00221A80174B1B78012B06
:1020C0001DD1144B1B78012B19D1224B1B78002BEF
:1020D00015D12148FEF7F0FE0D4B1B68DBB2094815
:1020E0001946FEF72DFF1C48FEF7E6FE1B4B0022AB
:1020F0001A701B4B00221A701A4B00221A702037DC
:10210000BD4680BD24270020B80C0020EE0800202A
:10211000E8080020EC080020ED080020F40800206A
:10212000F808002004090020FC0800200509002010
:10213000F0080020060900200009002008090020FE
:10214000100900200C090020D00900204C26002096
:102150000E090020E408002068BB00083F2800208A
:10216000002000201D27002080B400AF0D4B1B78FD
:10217000312B03D80C4B4FF400621A61094B1B78CA
:10218000322B03D9084B4FF400625A61054B1B7880
:10219000642B02D9034B00221A70BD465DF8047B04
:1021A000704700BF540900200008014090B583B07B
:1021B00000AF0023FB800023BB800023FB701C4B7F
:1021C0001B78002B31D01A4B1B78C72B03D8184B28
:1021D0001B78BB8001E0C823BB800023FB8018E094
:1021E000FC88FEF7FFFF03461A46124B1A55FB8880
:1021F00001331A46104B1A60FB880E4AD35C3B2B06
:1022000004D10123FB70BB88FB8006E0FB8801330F
:10221000FB80FA88BB889A42E2D3074B1B68054AC9
:102220000021D1540348FFF793FA0C37BD4690BD07
:102230001D2700209C0A0020E008002080B500AF88
:10224000694B1B68FA2B02DD684B00221A60664B53
:102250001B68F92B0CDC654B1B68002B08D1644B09
:102260001B785B00DAB2624B1A70604B01221A6075
:102270005F4B1B78082B4AD0082B06DC022B22D0A0
:10228000042B32D0012B0CD09BE0202B63D0202BD1
:1022900002DC102B4DD094E0402B6ED0802B7ED0F2
:1022A0008FE0544B40225A61534B4FF480621A61C5
:1022B000514B4FF400621A614E4B04225A614D4B50
:1022C00008225A617DE04B4B40221A614A4B4FF481
:1022D00080625A61484B4FF400621A61454B0422F8
:1022E0005A61444B08225A616BE0424B40221A610A
:1022F000414B4FF480621A613F4B4FF400625A61C8
:102300003C4B04225A613B4B08225A6159E0394B3D
:1023100040221A61384B4FF480621A61364B4FF4F9
:1023200000621A61334B04221A61324B08225A614F
:1023300047E0304B40221A612F4B4FF480621A6104
:102340002D4B4FF400621A612A4B04225A61294B2B
:1023500008221A6135E0274B40225A61264B4FF480
:1023600080621A61244B4FF400621A61214B0422EF
:102370001A61204B08225A6123E01E4B40221A6149
:102380001D4B4FF480625A611B4B4FF400621A617F
:10239000184B04225A61174B08221A6111E0154BA1
:1023A00040221A61144B4FF480621A61124B4FF4B1
:1023B00000621A610F4B04225A610E4B08225A61C7
:1023C00000BF094B1B68B3F5FA7F02D1064B002210
:1023D0001A60074B1B78002B02D1054B01221A70A3
:1023E000FFF7C2FE80BD00BF400900209009002019
:1023F00094090020001801400014014080B582B00B
:1024000000AF78607B681B0EDBB21846FEF73CFE1F
:102410007B681B0CDBB21846FEF736FE7B681B0A96
:10242000DBB21846FEF730FE7B68DBB21846FEF7DB
:102430002BFE0837BD4680BD80B584B000AF034693
:10244000FB710023FB6005E06148FEF735FDFB688A
:102450000133FB60FB68132BF6DD0023FB6005E016
:102460005C48FEF729FDFB680133FB60FB68132B1A
:10247000F6DD5748FEF720FD5748FEF71DFD54488E
:10248000FEF71AFD5548FEF717FD5548FEF714FDF7
:102490005448FEF711FD5448FEF70EFD5348FEF771
:1024A0000BFD5348FEF708FD5248FEF705FD524864
:1024B000FEF702FD5148FEF7FFFC5148FEF7FCFC19
:1024C0005048FEF7F9FC5048FEF7F6FC4F48FEF77F
:1024D000F3FC4F48FEF7F0FC4E48FEF7EDFC4E488B
:1024E000FEF7EAFC4D48FEF7E7FC4D48FEF7E4FC3A
:1024F0004C48FEF7E1FC4C48FEF7DEFC4B48FEF78B
:10250000DBFC4B48FEF7D8FC4A48FEF7D5FC4A48AE
:10251000FEF7D2FC4948FEF7CFFC4948FEF7CCFC59
:102520004848FEF7C9FC4848FEF7C6FC4748FEF796
:10253000C3FC4748FEF7C0FC4648FEF7BDFC4648D2
:10254000FEF7BAFC4548FEF7B7FC4548FEF7B4FC79
:102550004448FEF7B1FC4448FEF7AEFC4348FEF7A2
:10256000ABFC4348FEF7A8FC4248FEF7A5FC4248F6
:10257000FEF7A2FC4148FEF79FFC4148FEF79CFC99
:102580004048FEF799FC4048FEF796FC3F48FEF7AE
:1025900093FC3F48FEF790FC3E48FEF78DFC3E481A
:1025A000FEF78AFC0A48FEF787FC0948FEF784FC20
:1025B0003A48FEF781FC0648FEF77EFC0448FEF729
:1025C0007BFC0348FEF778FC1037BD4680BD00BF9A
:1025D000ECBB000810BD000814BD000844BD000895
:1025E0004CBD000858BD000878BD00088CBD00082F
:1025F000A0BD0008B4BD0008C8BD0008F8BD0008B3
:1026000020BE000848BE000864BE000898BE00084E
:10261000C8BE000804BF000838BF000870BF00082B
:10262000A0BF0008C8BF000804C0000838C00008E8
:1026300070C00008A0C00008C8C0000804C100089D
:1026400038C1000870C10008A0C10008C8C1000856
:10265000F0C1000834C2000874C20008B4C2000807
:10266000E8C200082CC3000868C3000894C300082F
:10267000C0C30008ECC3000818C4000858C4000810
:10268000ACC40008E8C4000820C5000858C500080C
:102690009CC50008E4C500082CC600085CC60008FC
:1026A00080B584B000AF0B463A600246FA71BB7148
:1026B000FB79DB08BB73BB7B012B02D13B68DBB230
:1026C000FB72BB7B022B06D13B68DBB2BB723B6863
:1026D0001B0ADBB2FB72BB7B032B0AD13B68DBB26C
:1026E0007B723B681B0ADBB2BB723B681B0CDBB224
:1026F000FB72BB7B042B0ED13B68DBB23B723B68A9
:102700001B0ADBB27B723B681B0CDBB2BB723B6803
:102710001B0EDBB2FB72BB7963F07F03DBB21846A2
:10272000FEF7B2FC0023FB730DE0FB7BC3F1030358
:1027300007F11002134413F8083C1846FEF7A4FCF6
:10274000FB7B0133FB73FB79DB08DBB2FA7B9A423C
:10275000EBD3002318461037BD4680BD90B587B037
:1027600000AF02460B46FA71BB710023FB73FB7985
:10277000DB08BB73BB79FB73FB7B1846FEF784FC5D
:102780000023FB750DE0FC7D0020FEF77DFC034679
:102790001A4607F11803234403F8102CFB7D01337C
:1027A000FB75FB79DB08DBB2FA7D9A42EBD3BB7B8E
:1027B000012B01D13B7A3B61BB7B022B04D13B7ADD
:1027C0001A027B7A13443B61BB7B032B07D13B7A14
:1027D0001A047B7A1B021A44BB7A13443B61BB7B0D
:1027E000042B0AD13B7A1A067B7A1B041A44BB7A63
:1027F0001B021A44FB7A13443B613B6918461C37A1
:10280000BD4690BD80B586B000AF786000233B61C7
:10281000FEF72AFB00237B610EE020201E21FFF73C
:102820009DFFF860FA680D4B9A4202D03B69013374
:102830003B617B6901337B617A697B689A42ECD3A7
:1028400007487968FEF764FD0648FEF735FB064841
:102850003969FEF75DFD1837BD4680BDEFBEEDDE80
:1028600074C6000880C600088CC6000880B586B013
:1028700000AF786000233B61FEF7F6FA00237B612E
:1028800013E020202421124AFFF70AFF20202321F1
:10289000FFF764FFF860FA680D4B9A4202D03B697B
:1028A00001333B617B6901337B617A697B689A42C2
:1028B000E7D308487968FEF72BFD0748FEF7FCFAD6
:1028C00006483969FEF724FD1837BD4680BD00BFB4
:1028D000EFBEEDDE74C6000880C600088CC6000896
:1028E00080B400AFBD465DF8047B704780B582B010
:1028F00000AF78607868FFF781FD0120FDF702FFE7
:10290000054B08221A610120FDF7FCFE024B08224C
:102910005A610837BD4680BD0014014080B582B0C1
:1029200000AF78600120FDF7EDFE0A4B04225A61EA
:102930007868FFF763FD0120FDF7E4FE054B0422F4
:102940001A610120FDF7DEFE024B04225A610837AE
:10295000BD4680BD0014014080B400AFD04A9378DA
:1029600043F002039370CE4A1388192161F34F1389
:102970001380CB4A93786FF300039370C84A13789F
:102980006FF304031370C74A93786FF34103937096
:10299000C44A1388192161F34F131380C14A9378F5
:1029A0006FF300039370BF4A1378012161F30403AE
:1029B0001370BD4A93786FF341039370BA4A13883A
:1029C000642161F34F131380B74A93786FF30003C8
:1029D0009370B54A1378022161F304031370B34A6C
:1029E00093786FF341039370B04A1388FA2161F32F
:1029F0004F131380AD4A93786FF300039370AB4A83
:102A00001378032161F304031370A94A93786FF3D9
:102A100041039370A64A1388142161F34F13138066
:102A2000A34A93786FF300039370A14A13780421AB
:102A300061F3040313709F4A93786FF3410393701B
:102A40009C4A1388FA2161F34F131380994A9378B3
:102A50006FF300039370974A1378052161F3040321
:102A60001370954A5378052161F303035370924A1A
:102A700053786FF3071353708F4A9378052161F3EE
:102A8000030393708C4A93786FF3071393708A4A09
:102A90001378062161F304031370884A53786FF3A7
:102AA00003035370854A53786FF307135370834AB7
:102AB0009378022161F303039370804A93786FF354
:102AC000071393707D4A1378072161F30403137091
:102AD0007B4A53786FF303035370794A53786FF34B
:102AE00007135370764A9378062161F303039370BA
:102AF000734A93786FF307139370714A1378082120
:102B000061F3040313706F4A1378092161F304031E
:102B100013706D4A13786FF3461313706A4A537833
:102B20006FF303035370684A53786FF304135370C1
:102B3000654A53786FF345135370634A537843F0F3
:102B400040035370604A537843F0800353705E4AE9
:102B5000937843F0070393705B4A13780A2161F37B
:102B600004031370594A13786FF345131370574ACF
:102B700013786FF386131370544A13786FF3C713E7
:102B80001370524A53786FF3000353704F4A5378CF
:102B90006FF3410353704D4A53786FF382035370C0
:102BA0004A4A53786FF3C3035370484A537801215C
:102BB00061F305135370454A53786FF386135370CE
:102BC000424A13780B2161F304031370404A1378CF
:102BD0006FF3451313703E4A5378032161F30203E8
:102BE00053703B4A5378022161F3C7035370384A4C
:102BF00013780C2161F304031370364A13780D2106
:102C000061F304031370334A1378042161F347130B
:102C10001370304A5378032161F3020353702E4A34
:102C200013780E2161F3040313702B4A13780421E7
:102C300061F347131370294A1378102161F30403D9
:102C40001370274A1378182161F304031370244A80
:102C500013786FF347131370214A53786FF302030D
:102C600053701F4A53786FF3C60353701C4A93780E
:102C70006FF3030393701B4A13781A2161F3040363
:102C80001370184A5388032161F30D035380154ACA
:102C9000D37843F0C003D370124A137924E000BF05
:102CA000880B00205C28002080280020B00C002029
:102CB00008290020B01D002018210020840B0020CE
:102CC0007C280020602800203C2800202C280020A0
:102CD000700B0020F40C0020041D0020F4270020BD
:102CE000900C0020680B00206FF300031371214A41
:102CF00013781C2161F3040313701E4A53880521C5
:102D000061F30B0353801C4A13781D2161F3040304
:102D10001370194A1378012161F347131370164A8F
:102D20001368192161F319231360144A13781E21C3
:102D300061F304031370114A1378052161F34713FB
:102D400013700E4A1368192161F3192313600C4A9A
:102D5000137843F01F031370094A53786FF3040389
:102D60005370074A53786FF345135370BD465DF8AF
:102D7000047B7047F02700204C28002020280020EA
:102D8000281D002080B400AFD04A937843F002039E
:102D90009370CE4A1388082161F34F131380CB4AF6
:102DA000937843F001039370C84A13786FF30403D8
:102DB0001370C74A93786FF341039370C44A138822
:102DC000082161F34F131380C14A937843F0010344
:102DD0009370BF4A1378012161F304031370BD4A55
:102DE00093786FF341039370BA4A1388062161F315
:102DF0004F131380B74A937843F001039370B54A99
:102E00001378022161F304031370B34A93786FF3CC
:102E100041039370B04A1388062161F34F13138066
:102E2000AD4A937843F001039370AB4A13780321C2
:102E300061F304031370A94A93786FF3410393700D
:102E4000A64A1388FC2161F34F131380A34A937899
:102E500043F001039370A14A1378042161F3040342
:102E600013709F4A93786FF3410393709C4A1388C1
:102E7000072161F34F131380994A93786FF300038E
:102E80009370974A1378052161F304031370954AF0
:102E900053786FF303035370924A53786FF3071319
:102EA0005370904A93786FF3030393708D4A93782D
:102EB0006FF3071393708B4A1378062161F30403B1
:102EC0001370894A53786FF303035370864A53781B
:102ED0006FF307135370844A93786FF3030393706F
:102EE000814A93786FF3071393707F4A1378072111
:102EF00061F3040313707D4A53786FF30303537037
:102F00007A4A53786FF307135370784A9378022103
:102F100061F303039370754A9378022161F30713F9
:102F20009370724A1378082161F304031370704A96
:102F30001378092161F3040313706E4A13786FF359
:102F4000461313706B4A53786FF303035370694A47
:102F500053786FF304135370664A53786FF3451335
:102F60005370644A537843F040035370614A537876
:102F700043F0800353705F4A937843F007039370E4
:102F80005C4A13780A2161F3040313705A4A1378D8
:102F90006FF345131370584A13786FF38613137049
:102FA000554A13786FF3C7131370534A53786FF36E
:102FB00000035370504A53786FF3410353704E4AE5
:102FC00053786FF3820353704B4A53786FF3C30304
:102FD0005370494A5378012161F305135370464AEF
:102FE00053786FF386135370434A13780B2161F3C0
:102FF00004031370414A13786FF3451313703F4A6B
:103000005378032161F3020353703C4A5378022141
:1030100061F3C7035370394A13780C2161F3040339
:103020001370374A13780D2161F304031370344A87
:103030001378042161F347131370314A5378032145
:1030400061F3020353702F4A13780E2161F30403D6
:1030500013702C4A1378042161F3471313702A4A22
:103060001378102161F304031370284A1378182190
:1030700061F304031370254A13786FF34713137039
:10308000224A53786FF302035370204A53786FF348
:10309000C60353701D4A93786FF3030393701C4A61
:1030A00013781A2161F304031370194A538803211A
:1030B00061F30D035380164AD37843F0C003D370F5
:1030C000134A13796FF30003137123E0880B002078
:1030D0005C28002080280020B00C00200829002057
:1030E000B01D002018210020840B00207C28002027
:1030F000602800203C2800202C280020700B002095
:10310000F40C0020041D0020F4270020900C002067
:10311000680B0020214A13781C2161F3040313700B
:103120001E4A5388052161F30B0353801C4A137810
:103130001D2161F304031370194A1378012161F30F
:1031400047131370164A13683F2161F31923136064
:10315000144A13781E2161F304031370114A137883
:10316000022161F3471313700E4A13683F2161F384
:10317000192313600C4A137843F01F0313700A4A93
:1031800053786FF304035370074A53786FF3451372
:103190005370BD465DF8047B704700BFF0270020E8
:1031A0004C28002020280020281D002080B400AFDB
:1031B000D04A937843F002039370CE4A13881921C2
:1031C00061F34F131380CB4A93786FF3000393702E
:1031D000C84A13786FF304031370C74A93786FF3E8
:1031E00041039370C44A1388192161F34F1313806C
:1031F000C14A93786FF300039370BF4A137801219B
:1032000061F304031370BD4A93786FF34103937025
:10321000BA4A1388642161F34F131380B74A937835
:103220006FF300039370B54A1378022161F304032E
:103230001370B34A93786FF341039370B04A1388C5
:10324000FA2161F34F131380AD4A93786FF30003B3
:103250009370AB4A1378032161F304031370A94AF6
:1032600093786FF341039370A64A1388142161F396
:103270004F131380A34A93786FF300039370A14A0E
:103280001378042161F3040313709F4A93786FF35A
:10329000410393709C4A1388FA2161F34F13138002
:1032A000994A93786FF300039370974A1378052136
:1032B00061F304031370954A5378052161F3030306
:1032C0005370924A53786FF3071353708F4A937871
:1032D000052161F3030393708C4A93786FF307130E
:1032E00093708A4A1378062161F304031370884AA5
:1032F00053786FF303035370854A53786FF30713C2
:103300005370834A9378022161F303039370804AD8
:1033100093786FF3071393707D4A1378072161F355
:10332000040313707B4A53786FF303035370794A95
:1033300053786FF307135370764A9378062161F33D
:1033400003039370734A93786FF307139370714A72
:103350001378082161F3040313706F4A137809216D
:1033600061F3040313706D4A13786FF346131370FF
:103370006A4A53786FF303035370684A53786FF3C4
:1033800004135370654A53786FF345135370634ABF
:10339000537843F040035370604A537843F08003FE
:1033A00053705E4A937843F0070393705B4A137837
:1033B0000A2161F304031370594A137843F0200380
:1033C0001370574A137843F040031370544A13782C
:1033D00043F080031370524A537843F00103537053
:1033E0004F4A537843F0020353704D4A537843F0E9
:1033F000040353704A4A53786FF3C3035370484A27
:1034000053786FF305135370454A53786FF386135F
:103410005370434A13780B2161F304031370414A3C
:1034200013786FF3451313703E4A5378032161F309
:10343000020353703B4A5378022161F3C703537070
:10344000384A13780C2161F304031370364A137859
:103450000D2161F304031370334A1378042161F3DF
:1034600047131370304A5378032161F302035370FA
:103470002E4A13780E2161F3040313702B4A13783C
:10348000042161F347131370294A1378102161F363
:1034900004031370274A1378182161F3040313708F
:1034A000244A13786FF347131370224A53786FF34B
:1034B000020353701F4A53786FF3C60353701D4ABB
:1034C00093786FF3030393701B4A13781A2161F307
:1034D00004031370184A5388032161F30D035380CA
:1034E000154AD37843F0C003D370134A13796FF3AE
:1034F000000323E0880B00205C28002080280020A7
:10350000B00C002008290020B01D00201821002048
:10351000840B00207C280020602800203C2800200C
:103520002C280020700B0020F40C0020041D00202B
:10353000F4270020900C0020680B00201371214A12
:1035400013781C2161F3040313701E4A5388012170
:1035500061F30B0353801C4A13781D2161F30403AC
:103560001370194A13786FF347131370164A1368D0
:10357000322161F319231360144A13781E2161F379
:1035800004031370114A1378052161F34713137074
:103590000E4A1368322161F3192313600C4A137821
:1035A00043F01F0313700A4A53786FF304035370F8
:1035B000074A53786FF345135370BD465DF8047B9B
:1035C000704700BFF02700204C2800202028002052
:1035D000281D002080B400AFD04A937843F0020346
:1035E0009370CE4A1388082161F34F131380CB4A9E
:1035F000937843F001039370C84A13786FF3040380
:103600001370C74A93786FF341039370C44A1388C9
:10361000082161F34F131380C14A937843F00103EB
:103620009370BF4A1378012161F304031370BD4AFC
:1036300093786FF341039370BA4A1388062161F3BC
:103640004F131380B74A937843F001039370B54A40
:103650001378022161F304031370B34A93786FF374
:1036600041039370B04A1388062161F34F1313800E
:10367000AD4A937843F001039370AB4A137803216A
:1036800061F304031370A94A93786FF341039370B5
:10369000A64A1388FC2161F34F131380A34A937841
:1036A00043F001039370A14A1378042161F30403EA
:1036B00013709F4A93786FF3410393709C4A138869
:1036C000072161F34F131380994A93786FF3000336
:1036D0009370974A1378052161F304031370954A98
:1036E00053786FF303035370924A53786FF30713C1
:1036F0005370904A93786FF3030393708D4A9378D5
:103700006FF3071393708B4A1378062161F3040358
:103710001370894A53786FF303035370864A5378C2
:103720006FF307135370844A93786FF30303937016
:10373000814A93786FF3071393707F4A13780721B8
:1037400061F3040313707D4A53786FF303035370DE
:103750007A4A53786FF307135370784A93780221AB
:1037600061F303039370754A9378022161F30713A1
:103770009370724A1378082161F304031370704A3E
:103780001378092161F3040313706E4A13786FF301
:10379000461313706B4A53786FF303035370694AEF
:1037A00053786FF304135370664A53786FF34513DD
:1037B0005370644A537843F040035370614A53781E
:1037C00043F0800353705F4A937843F0070393708C
:1037D0005C4A13780A2161F3040313705A4A137880
:1037E00043F020031370584A137843F040031370DA
:1037F000554A137843F080031370534A537843F0CB
:1038000001035370504A537843F0020353704E4AF9
:10381000537843F0040353704B4A53786FF3C30358
:103820005370494A53786FF305135370464A5378DF
:103830006FF386135370444A13780B2161F304032A
:103840001370424A13786FF3451313703F4A53784D
:10385000032161F3020353703C4A5378022161F360
:10386000C7035370394A13780C2161F304031370B2
:10387000374A13780D2161F304031370344A137827
:10388000042161F347131370314A5378032161F324
:10389000020353702F4A13780E2161F3040313704F
:1038A0002C4A1378042161F3471313702A4A1378C2
:1038B000102161F304031370284A1378182161F36F
:1038C00004031370254A13786FF347131370234AC8
:1038D00053786FF302035370204A53786FF3C60393
:1038E00053701E4A93786FF3030393701C4A137846
:1038F0001A2161F304031370194A5388032161F3F9
:103900000D035380164AD37843F0C003D370144A92
:1039100013796FF30003137124E000BF880B0020BC
:103920005C28002080280020B00C002008290020FE
:10393000B01D002018210020840B00207C280020CE
:10394000602800203C2800202C280020700B00203C
:10395000F40C0020041D0020F4270020900C00200F
:10396000680B0020204A13781C2161F304031370B4
:103970001D4A5388012161F30B0353801B4A1378BE
:103980001D2161F304031370184A13786FF3471372
:103990001370164A13687E2161F319231360144AC9
:1039A00013781E2161F304031370114A1378022166
:1039B00061F3471313700E4A13687E2161F31923D4
:1039C00013600C4A137843F01F031370094A5378AD
:1039D0006FF304035370074A53786FF34513537022
:1039E000BD465DF8047B7047F02700204C2800207E
:1039F00020280020281D002080B400AFD04A9378F2
:103A000043F002039370CE4A1388192161F34F13D8
:103A10001380CB4A93786FF300039370C84A1378EE
:103A20006FF304031370C74A93786FF341039370E5
:103A3000C44A1388192161F34F131380C14A937844
:103A40006FF300039370BF4A1378012161F30403FD
:103A50001370BD4A93786FF341039370BA4A138889
:103A6000642161F34F131380B74A93786FF3000317
:103A70009370B54A1378022161F304031370B34ABB
:103A800093786FF341039370B04A1388FA2161F37E
:103A90004F131380AD4A93786FF300039370AB4AD2
:103AA0001378032161F304031370A94A93786FF329
:103AB00041039370A64A1388142161F34F131380B6
:103AC000A34A93786FF300039370A14A13780421FB
:103AD00061F3040313709F4A93786FF3410393706B
:103AE0009C4A1388FA2161F34F131380994A937803
:103AF0006FF300039370974A1378052161F3040371
:103B00001370954A5378052161F303035370924A69
:103B100053786FF3071353708F4A9378052161F33D
:103B2000030393708C4A93786FF3071393708A4A58
:103B30001378062161F304031370884A53786FF3F6
:103B400003035370854A53786FF307135370834A06
:103B50009378022161F303039370804A93786FF3A3
:103B6000071393707D4A1378072161F304031370E0
:103B70007B4A53786FF303035370794A53786FF39A
:103B800007135370764A9378062161F30303937009
:103B9000734A93786FF307139370714A137808216F
:103BA00061F3040313706F4A1378092161F304036E
:103BB00013706D4A13786FF3461313706A4A537883
:103BC0006FF303035370684A53786FF30413537011
:103BD000654A53786FF345135370634A537843F043
:103BE00040035370604A537843F0800353705E4A39
:103BF000937843F0070393705B4A13780A2161F3CB
:103C000004031370594A137843F020031370574A82
:103C1000137843F040031370544A137843F0800341
:103C20001370524A537843F0010353704F4A53784C
:103C300043F0020353704D4A537843F0040353702A
:103C40004A4A53786FF3C3035370484A53786FF36B
:103C500005135370454A53786FF386135370434AE4
:103C600013780B2161F304031370414A13786FF347
:103C7000451313703E4A5378032161F302035370D6
:103C80003B4A5378022161F3C7035370384A1378D3
:103C90000C2161F304031370364A13780D2161F38C
:103CA00004031370334A1378042161F3471313702C
:103CB000304A5378032161F3020353702E4A13787C
:103CC0000E2161F3040313702B4A1378042161F36E
:103CD00047131370294A1378102161F304031370FA
:103CE000274A1378182161F304031370244A1378C8
:103CF0006FF347131370224A53786FF30203537024
:103D00001F4A53786FF3C60353701D4A93786FF3BD
:103D1000030393701B4A13781A2161F30403137091
:103D2000184A5388032161F30D035380154AD37851
:103D300043F0C003D370134A13796FF3000323E0F9
:103D4000880B00205C28002080280020B00C002078
:103D500008290020B01D002018210020840B00201D
:103D60007C280020602800203C2800202C280020EF
:103D7000700B0020F40C0020041D0020F42700200C
:103D8000900C0020680B00201371214A13781C212D
:103D900061F3040313701E4A5388012161F30B037E
:103DA00053801C4A13781D2161F304031370194AD0
:103DB00013786FF347131370164A1368FA2161F3EF
:103DC00019231360144A13781E2161F3040313703E
:103DD000114A1378022161F3471313700E4A1368D6
:103DE000FA2161F3192313600C4A137843F01F037F
:103DF00013700A4A53786FF304035370074A5378D9
:103E00006FF345135370BD465DF8047B704700BFE8
:103E1000F02700204C28002020280020281D00200A
:103E200080B400AFD04A937843F002039370CE4A37
:103E30001388082161F34F131380CB4A937843F022
:103E400001039370C84A13786FF304031370C74AD1
:103E500093786FF341039370C44A1388082161F388
:103E60004F131380C14A937843F001039370BF4A04
:103E70001378012161F304031370BD4A93786FF343
:103E800041039370BA4A1388062161F34F131380DC
:103E9000B74A937843F001039370B54A137802212F
:103EA00061F304031370B34A93786FF34103937083
:103EB000B04A1388062161F34F131380AD4A9378FB
:103EC00043F001039370AB4A1378032161F30403B9
:103ED0001370A94A93786FF341039370A64A13882D
:103EE000FC2161F34F131380A34A937843F001033D
:103EF0009370A14A1378042161F3040313709F4A5D
:103F000093786FF3410393709C4A1388072161F300
:103F10004F131380994A93786FF300039370974A75
:103F20001378052161F304031370954A53786FF3F6
:103F300003035370924A53786FF307135370904AF8
:103F400093786FF3030393708D4A93786FF307139D
:103F500093708B4A1378062161F304031370894A26
:103F600053786FF303035370864A53786FF3071344
:103F70005370844A93786FF303039370814A937864
:103F80006FF3071393707F4A1378072161F30403DB
:103F900013707D4A53786FF3030353707A4A537852
:103FA0006FF307135370784A9378022161F3030388
:103FB0009370754A9378022161F307139370724AE4
:103FC0001378082161F304031370704A13780921F0
:103FD00061F3040313706E4A13786FF34613137082
:103FE0006B4A53786FF303035370694A53786FF346
:103FF00004135370664A53786FF345135370644A41
:10400000537843F040035370614A537843F0800380
:1040100053705F4A937843F0070393705C4A1378B8
:104020000A2161F3040313705A4A137843F0200302
:104030001370584A137843F040031370554A1378AD
:1040400043F080031370534A537843F001035370D5
:10405000504A537843F0020353704E4A537843F06A
:10406000040353704B4A53786FF3C3035370494AA8
:1040700053786FF305135370464A53786FF38613E2
:104080005370444A13780B2161F304031370424ABE
:1040900013786FF3451313703F4A5378032161F38C
:1040A000020353703C4A5378022161F3C7035370F3
:1040B000394A13780C2161F304031370374A1378DB
:1040C0000D2161F304031370344A1378042161F362
:1040D00047131370314A5378032161F3020353707D
:1040E0002F4A13780E2161F3040313702C4A1378BE
:1040F000042161F3471313702A4A1378102161F3E6
:1041000004031370284A1378182161F30403137011
:10411000254A13786FF347131370234A53786FF3CC
:1041200002035370204A53786FF3C60353701E4A3C
:1041300093786FF3030393701C4A13781A2161F389
:1041400004031370194A5388032161F30D0353804C
:10415000164AD37843F0C003D370144A13796FF32F
:104160000003137124E000BF880B00205C280020AE
:1041700080280020B00C002008290020B01D00205D
:1041800018210020840B00207C28002060280020BB
:104190003C2800202C280020700B0020F40C00206C
:1041A000041D0020F4270020900C0020680B002044
:1041B000204A13781C2161F3040313701D4A5388AD
:1041C000012161F30B0353801B4A13781D2161F316
:1041D00004031370184A13786FF347131370164AC9
:1041E0001368FC2161F319231360144A13781E210C
:1041F00061F304031370114A1378022161F347132A
:1042000013700E4A1368FC2161F3192313600C4AE2
:10421000137843F01F031370094A53786FF30403B4
:104220005370074A53786FF345135370BD465DF8DA
:10423000047B7047F02700204C2800202028002015
:10424000281D002080B500AFAE4B00221A60AD4B98
:104250001A68AD4B9B78C3F34003DBB25B041A438F
:10426000A94B9B78C3F30003DBB2DB071A43A64BD1
:104270001B88C3F34A139BB25B011A43A24B1B7802
:10428000C3F30403DBB21A439E4B1A609D4B1B68B9
:104290001846FEF72BFB9D48FCF70EFE994B0022BB
:1042A0001A60984B1A68984B9B78C3F30003DBB2F3
:1042B000DB071A43944B1B88C3F34A139BB25B0181
:1042C0001A43914B1B78C3F30403DBB21A438D4BA3
:1042D0001A608C4B00225A608A4B5A688C4B9B7830
:1042E000C3F34003DBB25B041A43894B9B78C3F3EF
:1042F0000003DBB2DB071A43854B1B88C3F34A1369
:104300009BB25B011A43824B1B78C3F30403DBB2FD
:104310001A437C4B5A607B4B00229A60794B9A6817
:104320007C4B9B78C3F30003DBB2DB071A43794B6A
:104330001B88C3F34A139BB25B011A43754B1B786E
:10434000C3F30403DBB21A436E4B9A606D4B002239
:10435000DA606C4BDA68704B9B78C3F30003DBB216
:10436000DB071A436C4B1B88C3F34A139BB25B01F8
:104370001A43694B1B78C3F30403DBB21A43614B46
:10438000DA60604B00221A615E4B1A69634B9B78BE
:10439000C3F30003DBB2DB071A43604B1B88C3F394
:1043A0004A139BB25B011A435C4B1B78C3F30403B3
:1043B000DBB21A43534B1A61524B00225A61514BE4
:1043C0005A69574B9B78C3F30003DBB2DB071A43F0
:1043D000534B1B88C3F34A139BB25B011A43504BE8
:1043E0001B78C3F30403DBB21A43464B5A61454BB7
:1043F00000229A61434B9A694A4B5B78C3F30303EB
:10440000DBB21B041A43474B5B78C3F30313DBB2E5
:104410001B051A43434B9B78C3F30303DBB21B0614
:104420001A43404B9B78C3F30313DBB21B071A43B9
:104430003C4B1B78C3F30403DBB21A43314B9A6144
:10444000304B0022DA612F4BDA69374B5B78C3F3CC
:104450000303DBB21B041A43334B5B78C3F3031330
:10446000DBB21B051A43304B9B78C3F30303DBB26B
:104470001B061A432C4B9B78C3F30313DBB21B07B9
:104480001A43294B1B78C3F30403DBB21A431D4BB9
:10449000DA611C4B00221A621A4B1A6A234B5B78B2
:1044A000C3F30303DBB21B041A43204B5B78C3F353
:1044B0000313DBB21B051A431C4B9B78C3F30303A6
:1044C000DBB21B061A43194B9B78C3F30313DBB211
:1044D0001B071A43154B1B78C3F30403DBB21A43C3
:1044E000084B1A62074B00225A62064B5A6A104B5D
:1044F0001B78C3F30403DBB21A430E4B1343014A88
:10450000536219E0581D0020880B00209CC600084B
:104510005C28002080280020B00C00200829002002
:10452000B01D002018210020840B00207C280020D2
:104530006028002040555555B64B00229A62B54B75
:104540009A6AB54B1B78C3F34113DBB21B061A43BF
:10455000B14B5B78C3F30303DBB29B071A43AE4B4B
:104560005B78C3F30013DBB2DB051A43AA4B5B781D
:10457000C3F34013DBB29B051A43A74B5B78C3F32D
:104580008013DBB25B051A43A34B5B78C3F3C01304
:10459000DBB21B051A43A04B9B78C3F30203DBB2CB
:1045A0001B041A439C4B1B78C3F30403DBB2134375
:1045B00043F0805343F48043964A9362954B002224
:1045C000DA62944BDA6A954B1B78C3F34013DBB283
:1045D0001B051A43914B1B78C3F38013DBB25B05B9
:1045E0001A438E4B1B78C3F3C013DBB29B051A43EF
:1045F0008A4B5B78C3F30003DBB2DB051A43874BBE
:104600005B78C3F34003DBB21B061A43834B5B7832
:10461000C3F38003DBB25B061A43804B5B78C3F3C2
:10462000C003DBB21B041A437C4B5B78C3F301135A
:10463000DBB21B031A43794B5B78C3F38013DBB205
:104640005B011A43754B1B78C3F30403DBB21343BE
:1046500043F050526F4BDA626E4B00221A636D4B7F
:104660001A6B6F4B1B78C3F34013DBB2DB051A43A5
:104670006B4B5B78C3F30203DBB21B061A43684B38
:104680005B78C3F3C403DBB2DB061A43644B1B78CD
:10469000C3F30403DBB2134343F4402343F060034A
:1046A0005C4A13635B4B00225A635A4B5A6B5D4B57
:1046B0001B78C3F34213DBB21B041A43594B5B78DC
:1046C000C3F30203DBB21B061A43564B1B78C3F33A
:1046D0000403DBB2134343F0605343F400434D4AF9
:1046E00053634C4B00229A634A4B9A6B4E4B1B7898
:1046F000C3F34213DBB21B061A434B4B1B78C3F3C5
:104700000403DBB21A43434B9A63424B0022DA6341
:10471000404BDA6B454B1B78C3F30403DBB21A43FF
:10472000434B13433B4AD3633A4B00221A64394B41
:104730001A6C404B1B78C3F34213DBB21B041A43C1
:104740003C4B5B78C3F30203DBB21B051A43394BC6
:104750005B78C3F3C303DBB21B061A43354B9B786C
:10476000C3F30303DBB21B071A43324B1B78C3F3BB
:104770000403DBB21A43274B1A64264B00225A6407
:10478000244B5A6C2C4B5B88C3F30D039BB29B01EB
:104790001A43294BDB78C3F38113DBB29B061A4320
:1047A000254B1B79C3F30003DBB25B071A43224B93
:1047B0001B78C3F30403DBB2134343F0034343F416
:1047C0002003144A5364134B00229A64114B9A6CD1
:1047D0001A4B5B88C3F30B039BB21B051A43174BA1
:1047E0001B78C3F30403DBB21A430A4B9A64094BE8
:1047F0000022DA64074BDA6C114B1B78C3F34213C7
:10480000DBB21B061A430E4B1B68C3F311235B017B
:104810001A4317E0581D00203C2800202C280020B7
:10482000700B0020F40C0020041D0020F427002051
:10483000000455C1900C0020680B0020F0270020D8
:104840004C280020974B1B78C3F30403DBB21343BF
:1048500043F40002944BDA64934B00221A65924BA6
:104860001A6D924B1B78C3F34213DBB21B061A433B
:104870008E4B1B68C3F311235B011A438B4B1B78D0
:10488000C3F30403DBB21A43874B1A65864B00223D
:104890005A65854B5A6D864B5B78C3F30403DBB2D4
:1048A0001B041A43824B5B78C3F34013DBB25B01FA
:1048B0001A437F4B1B78C3F30403DBB21A437A4BD2
:1048C0005A65794B1B681846FEF710F87948FCF7D3
:1048D000F3FA754B5B681846FEF708F87648FCF764
:1048E000EBFA714B9B681846FEF700F87348FCF72B
:1048F000E3FA6D4BDB681846FDF7F8FF7048FCF7EC
:10490000DBFA694B1B691846FDF7F0FF6D48FCF7B1
:10491000D3FA654B5B691846FDF7E8FF6A48FCF778
:10492000CBFA614B1B681846FDF7E0FF6148FCF7C6
:10493000C3FA5D4B5B681846FDF7D8FF5E48FCF78D
:10494000BBFA594B9B681846FDF7D0FF5B48FCF754
:10495000B3FA554BDB681846FDF7C8FF5848FCF71B
:10496000ABFA514B1B691846FDF7C0FF5548FCF7E1
:10497000A3FA4D4B5B691846FDF7B8FF5248FCF7A8
:104980009BFA494B9B691846FDF7B0FF4F48FCF76F
:1049900093FA454BDB691846FDF7A8FF4C48FCF736
:1049A0008BFA414B1B6A1846FDF7A0FF4948FCF7FC
:1049B00083FA3D4B5B6A1846FDF798FF4648FCF7C3
:1049C0007BFA394B9B6A1846FDF790FF4348FCF78A
:1049D00073FA354BDB6A1846FDF788FF4048FCF751
:1049E0006BFA314B1B6B1846FDF780FF3D48FCF717
:1049F00063FA2D4B5B6B1846FDF778FF3A48FCF7DE
:104A00005BFA294B9B6B1846FDF770FF3748FCF7A4
:104A100053FA254BDB6B1846FDF768FF3448FCF76B
:104A20004BFA214B1B6C1846FDF760FF3148FCF731
:104A300043FA1D4B5B6C1846FDF758FF2E48FCF7F8
:104A40003BFA194B9B6C1846FDF750FF2B48FCF7BF
:104A500033FA154BDB6C1846FDF748FF2848FCF786
:104A60002BFA114B1B6D1846FDF740FF2548FCF74C
:104A700023FA0D4B5B6D1846FDF738FF2248FCF713
:104A80001BFA224B80225A616420FCF7D9F91F4B94
:104A900080221A616420FCF7D3F91C4B80225A61F2
:104AA00080BD00BF4C280020581D00202028002079
:104AB000281D0020A8C60008ACC60008B0C6000823
:104AC000B4C60008B8C60008BCC60008C0C60008C6
:104AD000C4C60008C8C60008CCC60008D0C6000876
:104AE000D8C60008E0C60008E8C60008F0C60008FE
:104AF000F8C6000800C7000808C7000810C700086B
:104B000018C7000820C7000828C700080010014087
:104B100080B500AFAE4B00221A60AD4B1A68AD4BAA
:104B20009B78C3F34003DBB25B041A43A94B9B7829
:104B3000C3F30003DBB2DB071A43A64B1B88C3F3A6
:104B40004A139BB25B011A43A24B1B78C3F30403C5
:104B5000DBB21A439E4B1A609D4B1B681846FDF74B
:104B6000DDFE9D48FCF7A8F9994B00221A60984B8E
:104B70001A68984B9B78C3F30003DBB2DB071A4338
:104B8000944B1B88C3F34A139BB25B011A43914BAE
:104B90001B78C3F30403DBB21A438D4B1A608C4BB2
:104BA00000225A608A4B5A688C4B9B78C3F34003AF
:104BB000DBB25B041A43894B9B78C3F30003DBB27F
:104BC000DB071A43854B1B88C3F34A139BB25B0177
:104BD0001A43824B1B78C3F30403DBB21A437C4BAA
:104BE0005A607B4B00229A60794B9A687C4B9B7889
:104BF000C3F30003DBB2DB071A43794B1B88C3F313
:104C00004A139BB25B011A43754B1B78C3F3040331
:104C1000DBB21A436E4B9A606D4B0022DA606C4B2C
:104C2000DA68704B9B78C3F30003DBB2DB071A43EF
:104C30006C4B1B88C3F34A139BB25B011A43694B4D
:104C40001B78C3F30403DBB21A43614BDA60604B99
:104C500000221A615E4B1A69634B9B78C3F3000311
:104C6000DBB2DB071A43604B1B88C3F34A139BB2CA
:104C70005B011A435C4B1B78C3F30403DBB21A439A
:104C8000534B1A61524B00225A61514B5A69574B90
:104C90009B78C3F30003DBB2DB071A43534B1B883B
:104CA000C3F34A139BB25B011A43504B1B78C3F307
:104CB0000403DBB21A43464B5A61454B00229A610A
:104CC000434B9A694A4B5B78C3F30303DBB21B0483
:104CD0001A43474B5B78C3F30313DBB21B051A433C
:104CE000434B9B78C3F30303DBB21B061A43404BD1
:104CF0009B78C3F30313DBB21B071A433C4B1B78AF
:104D0000C3F30403DBB21A43314B9A61304B0022E8
:104D1000DA612F4BDA69374B5B78C3F30303DBB2FD
:104D20001B041A43334B5B78C3F30313DBB21B053D
:104D30001A43304B9B78C3F30303DBB21B061A43C1
:104D40002C4B9B78C3F30313DBB21B071A43294B8D
:104D50001B78C3F30403DBB21A431D4BDA611C4B0F
:104D600000221A621A4B1A6A234B5B78C3F30303BF
:104D7000DBB21B041A43204B5B78C3F30313DBB293
:104D80001B051A431C4B9B78C3F30303DBB21B06C2
:104D90001A43194B9B78C3F30313DBB21B071A4367
:104DA000154B1B78C3F30403DBB21A43084B1A629A
:104DB000074B00225A62064B5A6A104B1B78C3F30A
:104DC0000403DBB21A430E4B1343014A536219E04A
:104DD00088280020880B00209CC600085C28002042
:104DE00080280020B00C002008290020B01D0020E1
:104DF00018210020840B00207C280020602800203F
:104E000040555555B64B00229A62B54B9A6AB54B40
:104E10001B78C3F34113DBB21B061A43B14B5B781B
:104E2000C3F30303DBB29B071A43AE4B5B78C3F3B8
:104E30000013DBB2DB051A43AA4B5B78C3F34013C4
:104E4000DBB29B051A43A74B5B78C3F38013DBB23D
:104E50005B051A43A34B5B78C3F3C013DBB21B059E
:104E60001A43A04B9B78C3F30203DBB21B041A4323
:104E70009C4B1B78C3F30403DBB2134343F0805312
:104E800043F48043964A9362954B0022DA62944B36
:104E9000DA6A954B1B78C3F34013DBB21B051A4348
:104EA000914B1B78C3F38013DBB25B051A438E4B27
:104EB0001B78C3F3C013DBB29B051A438A4B5B78A4
:104EC000C3F30003DBB2DB051A43874B5B78C3F304
:104ED0004003DBB21B061A43834B5B78C3F38003AA
:104EE000DBB25B061A43804B5B78C3F3C003DBB2D3
:104EF0001B041A437C4B5B78C3F30113DBB21B0327
:104F00001A43794B5B78C3F38013DBB25B011A431E
:104F1000754B1B78C3F30403DBB2134343F05052C9
:104F20006F4BDA626E4B00221A636D4B1A6B6F4B3C
:104F30001B78C3F34013DBB2DB051A436B4B5B7882
:104F4000C3F30203DBB21B061A43684B5B78C3F35F
:104F5000C403DBB2DB061A43644B1B78C3F30403C0
:104F6000DBB2134343F4402343F060035C4A136312
:104F70005B4B00225A635A4B5A6B5D4B1B78C3F351
:104F80004213DBB21B041A43594B5B78C3F3020391
:104F9000DBB21B061A43564B1B78C3F30403DBB288
:104FA000134343F0605343F400434D4A53634C4B67
:104FB00000229A634A4B9A6B4E4B1B78C3F3421301
:104FC000DBB21B061A434B4B1B78C3F30403DBB263
:104FD0001A43434B9A63424B0022DA63404BDA6B2D
:104FE000454B1B78C3F30403DBB21A43434B134313
:104FF0003B4AD3633A4B00221A64394B1A6C404B3C
:105000001B78C3F34213DBB21B041A433C4B5B789F
:10501000C3F30203DBB21B051A43394B5B78C3F3BE
:10502000C303DBB21B061A43354B9B78C3F3030360
:10503000DBB21B071A43324B1B78C3F30403DBB20A
:105040001A43274B1A64264B00225A64244B5A6C8D
:105050002C4B5B88C3F30D039BB29B011A43294B76
:10506000DB78C3F38113DBB29B061A43254B1B7914
:10507000C3F30003DBB25B071A43224B1B78C3F375
:105080000403DBB2134343F0034343F42003144A05
:105090005364134B00229A64114B9A6C1A4B5B8831
:1050A000C3F30B039BB21B051A43174B1B78C3F3C7
:1050B0000403DBB21A430A4B9A64094B0022DA64F8
:1050C000074BDA6C114B1B78C3F34213DBB21B06A0
:1050D0001A430E4B1B68C3F311235B011A4317E0FD
:1050E000882800203C2800202C280020700B00205D
:1050F000F40C0020041D0020F4270020000455C1FA
:10510000900C0020680B0020F02700204C28002085
:10511000974B1B78C3F30403DBB2134343F4000241
:10512000944BDA64934B00221A65924B1A6D924BA2
:105130001B78C3F34213DBB21B061A438E4B1B686A
:10514000C3F311235B011A438B4B1B78C3F3040396
:10515000DBB21A43874B1A65864B00225A65854B92
:105160005A6D864B5B78C3F30403DBB21B041A430E
:10517000824B5B78C3F34013DBB25B011A437F4B76
:105180001B78C3F30403DBB21A437A4B5A65794B9D
:105190001B681846FDF7C2FB7948FBF78DFE754B7F
:1051A0005B681846FDF7BAFB7648FBF785FE714B46
:1051B0009B681846FDF7B2FB7348FBF77DFE6D4B0D
:1051C000DB681846FDF7AAFB7048FBF775FE694BD4
:1051D0001B691846FDF7A2FB6D48FBF76DFE654B9A
:1051E0005B691846FDF79AFB6A48FBF765FE614B61
:1051F0001B681846FDF792FB6148FBF75DFE5D4BAF
:105200005B681846FDF78AFB5E48FBF755FE594B75
:105210009B681846FDF782FB5B48FBF74DFE554B3C
:10522000DB681846FDF77AFB5848FBF745FE514B03
:105230001B691846FDF772FB5548FBF73DFE4D4BC9
:105240005B691846FDF76AFB5248FBF735FE494B90
:105250009B691846FDF762FB4F48FBF72DFE454B57
:10526000DB691846FDF75AFB4C48FBF725FE414B1E
:105270001B6A1846FDF752FB4948FBF71DFE3D4BE4
:105280005B6A1846FDF74AFB4648FBF715FE394BAB
:105290009B6A1846FDF742FB4348FBF70DFE354B72
:1052A000DB6A1846FDF73AFB4048FBF705FE314B39
:1052B0001B6B1846FDF732FB3D48FBF7FDFD2D4B00
:1052C0005B6B1846FDF72AFB3A48FBF7F5FD294BC7
:1052D0009B6B1846FDF722FB3748FBF7EDFD254B8E
:1052E000DB6B1846FDF71AFB3448FBF7E5FD214B55
:1052F0001B6C1846FDF712FB3148FBF7DDFD1D4B1B
:105300005B6C1846FDF70AFB2E48FBF7D5FD194BE1
:105310009B6C1846FDF702FB2B48FBF7CDFD154BA8
:10532000DB6C1846FDF7FAFA2848FBF7C5FD114B70
:105330001B6D1846FDF7F2FA2548FBF7BDFD0D4B36
:105340005B6D1846FDF7EAFA2248FBF7B5FD224BE4
:1053500080225A616420FBF773FD1F4B80221A6183
:105360006420FBF76DFD1C4B80225A6180BD00BF9D
:105370004C2800208828002020280020281D0020FC
:10538000A8C60008ACC60008B0C60008B4C600082D
:10539000B8C60008BCC60008C0C60008C4C60008DD
:1053A000C8C60008CCC60008D0C60008D8C6000889
:1053B000E0C60008E8C60008F0C60008F8C6000805
:1053C00000C7000808C7000810C7000818C7000871
:1053D00020C7000828C700080010014080B582B02F
:1053E00000AF0346FB71FB79642B2BD14648FBF7DA
:1053F00063FD4648FBF760FD4548FBF75DFDFDF7A3
:10540000C1FCFFF785FB4348FBF756FD4248FBF71D
:1054100053FD3D48FBF750FD3B48FBF74DFD3B4836
:10542000FBF74AFD3D48FBF747FDFDF795FAFEF710
:1054300009FF3848FBF740FD3748FBF73DFD324890
:10544000FBF73AFDFB790A2B2BD12F48FBF734FDF4
:105450002E48FBF731FD3248FBF72EFDFEF7BAF878
:10546000FFF756FB2B48FBF727FD2B48FBF724FDE6
:105470002548FBF721FD2448FBF71EFD2348FBF7D9
:105480001BFD2848FBF718FDFDF790FEFEF7DAFE3E
:105490002048FBF711FD2048FBF70EFD1A48FBF7EB
:1054A0000BFDFB79052B2BD11748FBF705FD1748A2
:1054B000FBF702FD1C48FBF7FFFCFEF7B1FCFFF712
:1054C00027FB1448FBF7F8FC1348FBF7F5FC0E48E4
:1054D000FBF7F2FC0C48FBF7EFFC0C48FBF7ECFC8D
:1054E0001248FBF7E9FCFEF787FAFEF7ABFE094826
:1054F000FBF7E2FC0848FBF7DFFC0348FBF7DCFCAA
:105500000837BD4680BD00BF68BB000830C7000833
:1055100058C700087CC7000884C7000894C7000863
:10552000B8C70008DCC7000800C8000824C8000885
:1055300080B586B000AF244B7B610920012100F0CB
:1055400079F94FF40010012100F092F91F4BC022AD
:105550001A801E4B1C22DA701C4B01229A701C48C8
:105560001A49FAF7EBFE4FF40010012100F09EF902
:105570004FF40010002100F099F900233B814BF615
:10558000FF737B810023BB814FF48063FB814FF469
:1055900080433B827B697B603B1D0E48194600F0CF
:1055A000A3FF0C48012101F061F80A48012101F034
:1055B0007DF81F20FBF72CF81F200121FBF740F896
:1055C0001837BD4680BD00BFA086010030280020EE
:1055D000000C01400054004080B500AFFBF77CF8A0
:1055E000FBF7D2F9FBF712FBFBF7DAFBFBF770FADC
:1055F000FBF7F0F8FBF7E6FCFFF79AFF1348FBF721
:105600005BFC1348FBF758FC1048FBF755FC1148AE
:10561000FBF752FC0E48FBF74FFC0C48FBF74CFC29
:105620000020FCF709FF0C4B64221A600120FBF7F5
:10563000BBFE6420FFF7D2FEFCF7B8FDFBF714FCBD
:10564000FCF7FCFDFCF790FDF6E700BF68BB000827
:1056500048C8000850C800088809002080B485B0F8
:1056600000AF78600023FB60094B5B68FB60FB6860
:1056700023F44043FB60FA687B681343FB60044BF0
:10568000FA685A601437BD465DF8047B704700BF66
:105690000010024080B487B000AF786000237B61C7
:1056A00000233B610023FB600023BB604D4B5B6824
:1056B00003F00C037B617B69042B07D0082B09D016
:1056C000002B34D17B68484A1A6034E07B68464A34
:1056D0001A6030E0434B5B6803F470133B61414B4D
:1056E0005B6803F48033FB603B699B0C02333B61D6
:1056F000FB68002B06D13B693C4A02FB03F27B6846
:105700001A6013E0374B5B6803F40033002B06D0BC
:105710003B69364A02FB03F27B681A6006E03B698C
:10572000314A02FB03F27B681A6004E003E07B6805
:105730002D4A1A6000BF2B4B5B6803F0F0037B61BE
:105740007B691B097B612A4A7B6913441B78DBB2A6
:10575000BB607B681A68BB68DA407B685A60214B83
:105760005B6803F4E0637B617B691B0A7B61204A11
:105770007B6913441B78DBB2BB607B685A68BB68EB
:10578000DA407B689A60174B5B6803F460537B6177
:105790007B69DB0A7B61164A7B6913441B78DBB2A9
:1057A000BB607B685A68BB68DA407B68DA600D4B87
:1057B0005B6803F440437B617B699B0B7B610D4A13
:1057C0007B6913441B78DBB2BB607B68DA68BB681B
:1057D000B2FBF3F27B681A611C37BD465DF8047BAF
:1057E000704700BF0010024000127A0000093D001F
:1057F000180000202800002080B483B000AF78603B
:105800000B46FB70FB78002B06D0094B084A516908
:105810007A680A435A6106E0054B054A51697A687D
:10582000D2430A405A610C37BD465DF8047B70478D
:105830000010024080B483B000AF78600B46FB706C
:10584000FB78002B06D0094B084A91697A680A4315
:105850009A6106E0054B054A91697A68D2430A408D
:105860009A610C37BD465DF8047B7047001002401A
:1058700080B483B000AF78600B46FB70FB78002BE0
:1058800006D0094B084AD1697A680A43DA6106E012
:10589000054B054AD1697A68D2430A40DA610C3770
:1058A000BD465DF8047B70470010024080B483B0B1
:1058B00000AF78600B46FB70FB78002B06D0094BDD
:1058C000084A11697A680A431A6106E0054B054ADD
:1058D00011697A68D2430A401A610C37BD465DF8F7
:1058E000047B70470010024080B485B000AF786040
:1058F0000023FB60324BFB607B689B79002B4DD013
:105900002F4B2F4A11687A681268D2430A401A60F6
:105910002B4B2B4A51687A681268D2430A405A606E
:105920007B681B79FA681344FB60FB68FA681168AE
:105930007A6812680A431A60214B214A91687A6892
:105940001268D2430A409A601D4B1D4AD1687A689A
:105950001268D2430A40DA607B685B79102B0ED163
:10596000174B174A91687A6812680A439A60144B79
:10597000134AD1687A6812680A43DA601BE0104B58
:10598000FB607B685B79FA681344FB60FB68FA682C
:1059900011687A6812680A431A600CE07B681B7908
:1059A000FA681344FB60FB68FA6811687A68126849
:1059B000D2430A401A601437BD465DF8047B704735
:1059C0000004014080B483B000AF7860034B7A6874
:1059D0005A610C37BD465DF8047B704700040140F6
:1059E00080B485B000AF78600023FB730023BB60F8
:1059F0000C4B1A687B681340BB600A4B5A697B6882
:105A00001340002B05D0BB68002B02D00123FB7391
:105A100001E00023FB73FB7B18461437BD465DF89D
:105A2000047B70470004014080B483B000AF78600D
:105A3000034B7A685A610C37BD465DF8047B7047AA
:105A40000004014080B485B000AF78603960002365
:105A5000FB600023FB727B685B68FB60FB6823F4E0
:105A6000702323F48073FB603B681A683B681B79E2
:105A70001B021343FA681343FB607B68FA685A60A1
:105A80007B689B68FB60FA68164B1340FB603B68C1
:105A9000DA683B689B681A433B685B795B00134399
:105AA000FA681343FB607B68FA689A607B68DB6A7C
:105AB000FB60FB6823F47003FB603B681B7C013BCD
:105AC000DAB2FB7A1343FB72FB7A1B05FA681343C5
:105AD000FB607B68FA68DA621437BD465DF8047BC8
