:020000040800F2
:10000000103D0020D5020008350300083503000824
:100010003503000835030008350300080000000020
:100020000000000000000000000000003503000890
:100030003503000800000000350300082D07000804
:1000400035030008350300083503000835030008B0
:1000500035030008350300083503000835030008A0
:1000600035030008350800081508000835030008A6
:1000700035030008350300084D0D0008350300085E
:100080003503000835030008990B00083503000804
:10009000350300083503000835030008550800083B
:1000A0003503000835030008350300083503000850
:1000B0003503000835030008350300083503000840
:1000C00035030008350300083503000861100008F7
:1000D00035030008D9100008451100083503000851
:1000E000E10800083503000835030008000000009F
:1000F0000000000000000000000000000000000000
:1001000000000000000000005FF808F110B5054C89
:10011000237833B9044B13B10448AFF300800123B3
:10012000237010BDB80800200000000088B7000848
:1001300008B5064B1BB106480649AFF300800648D8
:10014000036813B1054B03B1984708BD00000000D8
:1001500088B70008BC080020B40800200000000098
:1001600080B500AF154B154A126842F001021A60C3
:10017000124A124B5968124B0B4053600F4A0F4BF7
:100180001B6823F0847323F4803313600B4B0B4AFA
:10019000126822F480221A60084B084A526822F43E
:1001A000FE025A60054B4FF41F029A6000F00CF8F3
:1001B000044B4FF000629A6080BD00BF0010024007
:1001C0000000FFF800ED00E080B500AF00F002F89D
:1001D00080BD00BF80B483B000AF00237B600023EC
:1001E0003B603A4B394A126842F480321A60374B0E
:1001F0001B6803F400333B607B6801337B603B6822
:10020000002B03D17B68B3F5A06FF0D12F4B1B6897
:1002100003F40033002B02D001233B6001E00023F4
:100220003B603B68012B4BD1294B294A126842F0B5
:1002300010021A60264B264A126822F003021A6046
:10024000234B234A126842F002021A601F4B1F4AD6
:1002500052685A601D4B1D4A52685A601B4B1B4A1C
:10026000526842F480625A60184B184A526822F46D
:100270007C125A60154B154A526842F4E8125A60D3
:10028000124B124A126842F080721A6000BF0F4B84
:100290001B6803F00073002BF9D00C4B0B4A52681B
:1002A00022F003025A60094B084A526842F00202E7
:1002B0005A6000BF054B5B6803F00C03082BF9D1B3
:1002C0000C37BD465DF8047B704700BF001002404C
:1002D0000020024080B582B000AF114B7B60114B13
:1002E0003B6007E03B681A1D3A607A68111D79602F
:1002F00012681A603A680C4B9A42F3D30B480C49C7
:100300004FF000028842B8BF40F8042BFFF6FAAF66
:10031000FFF726FF03F0FEFF0837BD4680BD00BF94
:1003200090B7000800000020B8080020B80800209E
:100330001029002080B400AFFEE700BF80B489B070
:1003400000AF786039600023FB6100233B6100232C
:10035000BB610023FB6000237B610023BB603B6823
:10036000DB7803F00F03FB613B68DB7803F01003DD
:10037000002B04D03B689B78FA691343FB613B6810
:100380001B88DBB2002B44D07B681B687B61002399
:10039000BB6138E0BB69012202FA03F3FB603B68F2
:1003A0001B881A46FB6813403B613A69FB689A4216
:1003B00026D1BB699B00FB60FB680F2202FA03F3A6
:1003C000BB60BB68DB437A6913407B61FB68FA69F9
:1003D00002FA03F37A6913437B613B68DB78282BCD
:1003E00005D1BB6901229A407B685A6108E03B68ED
:1003F000DB78482B04D1BB6901229A407B681A61E3
:10040000BB690133BB61BB69072BC3D97B687A69C0
:100410001A603B681B88FF2B46D97B685B687B6151
:100420000023BB613AE0BB690833012202FA03F3FF
:10043000FB603B681B881A46FB6813403B613A69C6
:10044000FB689A4227D1BB699B00FB60FB680F22C7
:1004500002FA03F3BB60BB68DB437A6913407B613C
:10046000FB68FA6902FA03F37A6913437B613B681C
:10047000DB78282B05D1BB69083301229A407B68C1
:100480005A613B68DB78482B05D1BB6908330122F0
:100490009A407B681A61BB690133BB61BB69072B5A
:1004A000C1D97B687A695A602437BD465DF8047B00
:1004B000704700BF80B487B000AF78600B46FB7018
:1004C00000233B610023FB6000237B610023BB60B2
:1004D0007B68002B03DA2E4BDB697B6102E02C4B3F
:1004E0005B687B617B6803F470231B0CBB607B68DB
:1004F0009BB23B617B6803F44013B3F5401F0AD104
:100500007B6923F070637B61214B214A526822F0A2
:1005100070625A6021E07B6803F48013002B0ED0D8
:10052000BB68032202FA03F3FB60FB68DB437A69D2
:1005300013407B617B6943F070637B610DE07B68F6
:100540005B0D1B013A6902FA03F3DB437A6913403E
:100550007B617B6943F070637B61FB78002B08D083
:100560007B685B0D1B013A6902FA03F37A69134356
:100570007B617B68002B03DA054B7A69DA6102E064
:10058000034B7A695A601C37BD465DF8047B70479F
:100590000000014090B484B000AF02460B46FA71EF
:1005A000BB710023FB60BB7903F003039B000F22A8
:1005B00002FA03F3FB60154BBA799208D2B21349E1
:1005C000B8798008C0B2023051F82000F968C943F8
:1005D0000140023243F822100C4BBA799208D2B291
:1005E0000A49B8798008C0B2023051F82000FC797D
:1005F000B97901F00301890004FA01F101430232E3
:1006000043F822101037BD4690BC704700000140EF
:1006100080B483B000AF0346FB71084B97F9072005
:100620005209F97901F01F01012000FA01F143F8A4
:1006300022100C37BD465DF8047B704700E100E0F6
:1006400080B483B000AF03463960FB7197F907307F
:10065000002B0BDA0D49FB7903F00F03043B3A68DA
:10066000D2B21201D2B20B441A7609E0084997F9C6
:1006700007303A68D2B21201D2B20B4483F8002399
:100680000C37BD465DF8047B704700BF00ED00E00D
:1006900000E100E080B582B000AF78607B68B3F124
:1006A000807F01D3012311E00A4B7A6822F07F4258
:1006B000013A5A604FF0FF300F21FFF7C1FF054BA1
:1006C00000229A60034B07221A600023184608375D
:1006D000BD4680BD10E000E080B500AF44F67D006F
:1006E000012103F045FF054B1A68054BA3FB0213DC
:1006F0009B091846FFF7CEFF80BD00BF0000002019
:10070000D34D621080B483B000AF78607A68064B36
:100710001A6000BF044B1B68002BFBD10C37BD4691
:100720005DF8047B704700BF940C002080B400AFDC
:100730001F4B1B68002B04D01D4B1B685A1E1C4B03
:100740001A601C4B1B685A1C1A4B1A601A4B1B6808
:100750005A1C194B1A60194B1B780133DAB2174B2C
:100760001A70174B1B685A1C154B1A60154B1B88C7
:10077000002B05D0134B1B88013B9AB2114B1A80FA
:10078000114B1B68B3F5FA7F04DA0F4B1B685A1C38
:100790000D4B1A600D4B1B78012B05D10C4B1B78B0
:1007A0000133DAB20A4B1A70BD465DF8047B70471C
:1007B000940C0020D408002048090020540900208F
:1007C00050090020800900204009002069280020ED
:1007D0006728002080B500AF01200521FFF7DAFE71
:1007E0000B4B00221A710A4B08225A71084B202227
:1007F0001A60074B01229A71054803F013FF172076
:100800000121FFF71DFF1720FFF702FF80BD00BF8A
:100810007028002080B500AF102003F07FFF034652
:10082000002B05D0102003F06BFF102003F09AFF7F
:1008300080BD00BF80B500AF082003F06FFF034606
:10084000002B05D0082003F05BFF082003F08AFF8F
:1008500080BD00BF80B500AF202003F05FFF0346DE
:10086000002B05D0202003F04BFF202003F07AFF5F
:10087000402003F053FF0346002B05D0402003F037
:100880003FFF402003F06EFF802003F047FF034648
:10089000002B05D0802003F033FF802003F062FF9F
:1008A0004FF4807003F03AFF0346002B07D04FF45B
:1008B000807003F025FF4FF4807003F053FF4FF476
:1008C000007003F02BFF0346002B07D04FF400709D
:1008D00003F016FF4FF4007003F044FF80BD00BF2B
:1008E00080B500AF4FF4006003F018FF0346002B03
:1008F00003D04FF4006003F035FF4FF4806003F045
:100900000DFF0346002B03D04FF4806003F02AFF55
:100910004FF4805003F002FF0346002B03D04FF446
:10092000805003F01FFF4FF4005003F0F7FE034622
:10093000002B06D04FF4005003F014FF0F4B0122A0
:100940001A704FF4804003F0E9FE0346002B06D0F6
:100950004FF4804003F006FF094B01221A704FF458
:10096000004003F0DBFE0346002B06D04FF40040AE
:1009700003F0F8FE034B01221A7080BD41280020CD
:10098000CC0C00206828002080B500AF4848012129
:10099000FFF790FD474B474A526842F000725A6099
:1009A000454B4FF410621A80434B1022DA70424BD1
:1009B00003229A7041484049FFF7C0FC3E4B102289
:1009C0001A803D4B4822DA703B4B03229A703B4819
:1009D0003949FFF7B3FC384B4FF480721A80364B1D
:1009E0001022DA70344B03229A7035483249FFF7EF
:1009F000A5FC314B20221A802F4B4822DA702E4B57
:100A000003229A702E482C49FFF798FC2A4B80222B
:100A10001A80294B1022DA70274B03229A7029483A
:100A20002549FFF78BFC244B4FF440721A80224B70
:100A30004822DA70204B03229A7022481E49FFF7A1
:100A40007DFC1D4B4FF68C421A801B4B1022DA7036
:100A5000194B03229A701C481749FFF76FFC164B7D
:100A600060221A80144B4822DA70134B03229A70CA
:100A700015481149FFF762FC0F4B7E221A800E4B7E
:100A80001022DA700C4B03229A7010480A49FFF7C3
:100A900055FC094B4FF680721A80074B4822DA70DA
:100AA000054B03229A7009480349FFF747FC80BDB4
:100AB0000004300000000140302800200008014000
:100AC000000C0140001001400014014000180140DA
:100AD00080B500AF4FF4804003F05EFC4FF400702F
:100AE000012103F045FD0420012103F041FD264BC7
:100AF00030221A80244B0022DA70234B03229A7092
:100B000022482149FFF71AFC214B00221A60204B92
:100B100000221A711E4B00225A711D4B4FF46022A5
:100B20009A601B4B0022DA60194B01221A74194893
:100B3000174903F025FE012003F01EFF15484FF46E
:100B40000871012203F08AFE1220FFF761FD1148AF
:100B5000012103F067FE0F4803F0A2FE00BF0D481D
:100B600003F0AEFE0346002BF9D10A4803F0C0FEA5
:100B700000BF084803F0CCFE0346002BF9D105481E
:100B8000012103F0DDFE80BD30280020001001406F
:100B9000301D00200024014080B400AF084B084AFB
:100BA000126822F002021A60054BDA6C054B1A60DB
:100BB000054B01221A70BD465DF8047B704700BFEB
:100BC00000240140680900206409002080B582B03B
:100BD00000AF78600A4B7A685A630A4B00221A7099
:100BE0000748012103F0ACFE00BF064B1B78012B28
:100BF000FBD1054B1B6818460837BD4680BD00BFBA
:100C000000240140640900206809002080B500AF7D
:100C1000264B4FF400721A80244B03229A70234B08
:100C20001822DA7022482149FFF788FB1F4B4FF446
:100C300080621A801D4B03229A701C4B0422DA70CA
:100C40001B481A49FFF77AFB4FF48040012103F05B
:100C50008FFC184B4FF4E1321A60164B00229A8039
:100C6000144B0022DA80134B00221A81114B0C2204
:100C70005A81104B00229A8125200F21FFF7E0FCBA
:100C80002520FFF7C5FC0C4840F22551012203F056
:100C900069FF0948012103F045FF0748054903F0B2
:100CA00087FE0120012103F045FC80BD3028002093
:100CB00000080140101D00200038014080B58EB0B2
:100CC00000AF78600B467B801D4804F05BF81D4B3D
:100CD000FB607B683B6110237B617B88BB610023E9
:100CE000FB6180233B6200237B620023BB62002305
:100CF000FB6200233B6300237B6307F10C03104876
:100D0000194604F0FBF80E200E21FFF799FC0E2087
:100D1000FFF77EFC0A480221012204F049F90A4843
:100D2000C02103F08BFF08488021012203F062FFFD
:100D30000348012104F020F93837BD4680BD00BFCB
:100D400044000240043801400038014080B500AF43
:100D50004FF4005004F04AF90346002B14D00C481D
:100D6000002104F009F94FF4005004F069F94FF440
:100D7000005004F07FF90748002104F0FDF8064810
:100D8000C021002203F036FF044B00221A7080BD00
:100D90005800024044000240003801408C09002005
:100DA00080B500AF214B04221A80204B03229A7099
:100DB0001E4B1822DA701E481C49FFF7BFFA1B4B66
:100DC00008221A80194B03229A70184B0422DA70F9
:100DD00017481649FFF7B2FA4FF40030012103F02B
:100DE000E5FB144B144A1A60124B00229A80114BF7
:100DF0000022DA800F4B00221A810E4B0C225A81FE
:100E00000C4B00229A812620FFF702FC0B4840F28F
:100E10002551012203F0A6FE0848012103F082FEBD
:100E20000648044903F0C4FD80BD00BF30280020FF
:100E300000080140BC0C0020688909000044004003
:100E400080B485B000AF0346FB800023FB6002E066
:100E5000FB680133FB60FA88FB689A42F8DC1437C0
:100E6000BD465DF8047B704780B584B000AF0023B9
:100E7000FB600023FB720D4B1B78DBB2002B12D101
:100E80000B4B1B68012B0ED9094B1B687B607B68E1
:100E90009BB208481946FFF711FF054B00221A6064
:100EA000024B01221A701037BD4680BD8C0900200C
:100EB000AC0C0020000D002080B584B000AF78603D
:100EC0000023BB810023FB811A4B1B78DBB2002B74
:100ED0002DD1786805F0D8FB0346BB81BA89164B43
:100EE0001B681A4440F6FB739A4202D9124B002247
:100EF0001A60114B1B68FB810CE0FB89F9890E4AD3
:100F000012688A1A79680A4411780C4AD154FB890C
:100F10000133FB81FA89B989074B1B680B449A425C
:100F2000EBD3BA89044B1B681A44034B1A60103781
:100F3000BD4680BD8C090020AC0C0020000D0020B7
:100F400080B485B000AF78600B46FB701A4B1B78FD
:100F5000DBB2002B2AD1FB78BB81BA89174B1B6807
:100F60001A4440F6FB739A4202D9144B00221A60CD
:100F7000124B1B68FB810CE0FB89F9890F4A126850
:100F80008A1A79680A4411780D4AD154FB890133D1
:100F9000FB81FA89B989094B1B680B449A42EBD350
:100FA000BA89064B1B681A44044B1A601437BD46B5
:100FB0005DF8047B704700BF8C090020AC0C00205A
:100FC000000D002080B586B000AF0920012103F09C
:100FD000CFFA4FF48040012103F0E8FA4FF42043A8
:100FE000BB821823FB750323BB7507F114031A4852
:100FF0001946FFF7A3F94FF48043BB821C23FB750E
:101000000323BB7507F1140313481946FFF796F93C
:1010100000233B804FF482737B800023BB8000233E
:10102000FB8000233B814FF400737B812023BB8135
:101030000023FB813B460948194604F035F8074870
:10104000012104F075F805484FF4807104F0ACF804
:101050001837BD4680BD00BF000C0140003800407D
:1010600080B582B000AF0748012104F0BFF8034605
:10107000012B03D1034B9B899BB2FB710837BD4603
:1010800080BD00BF0030014080B584B000AF034692
:10109000FB71FB799BB20F48194604F069F800BF59
:1010A0000C48022104F0A2F80346002BF8D000BF40
:1010B0000848012104F09AF80346002BF8D00548AF
:1010C00004F064F80346FB73FB7B18461037BD46FB
:1010D00080BD00BF0038004080B582B000AF154829
:1010E00040F2255103F0BAFD0346002B04D011480D
:1010F00040F2255103F00AFE0E4B9B889BB2FB7118
:101100000D4B1B785A1CD1B20B4A11700B4AF9795E
:10111000D1540B4B1B780133DAB2094B1A70054BD3
:101120001B889BB2BB71034B9B889BB2BB7108377A
:10113000BD4680BD003801403F280020900B0020B4
:101140001D27002080B582B000AF154840F2255120
:1011500003F084FD0346002B04D0114840F22551D2
:1011600003F0D4FD0E4B9B889BB2FB710D4B1B789B
:101170005A1CD1B20B4A11700B4AF979D1540B4B5E
:101180001B780133DAB2094B1A70054B1B889BB2EE
:10119000BB71034B9B889BB2BB710837BD4680BDBA
:1011A00000440040201D002014200020B40C00202A
:1011B00080B485B000AF78600023FB7302E0FB7B56
:1011C0000133FB73FB7B7A6813441B78002B02D03E
:1011D000FB7B772BF3D9FB7B18461437BD465DF8B4
:1011E000047B704780B483B000AF00BF0C4B1B780A
:1011F000002BFBD00B4B1B785A1CD1B2094A117043
:10120000094AD35CFB71064B1B78013BDAB2044BF5
:101210001A70FB7918460C37BD465DF8047B7047A1
:101220001D27002000200020900B002080B586B0F4
:1012300000AF786000237B61786805F025FA0346EB
:10124000013B3B6117E07B697A6813441B78FB73B1
:101250007B697A6813443A6979680A4412781A708B
:101260003B697A681344FA7B1A707B6901337B61AE
:101270003B69013B3B617A693B699A42E3DB183782
:10128000BD4680BD80B584B000AF786039607B68B2
:10129000BB60BB68002B02DA7B685B427B6000238B
:1012A000FB60FB685A1CFA603A68D0187968174BE3
:1012B00083FB01239A10CB17D21A13469B001344C9
:1012C0005B00CA1AD3B23033DBB203707B680F4ABB
:1012D00082FB03129210DB17D31A7B607B68002B12
:1012E000DFDCBB68002B06DAFB685A1CFA603A6840
:1012F00013442D221A70FB683A68134400221A70B6
:101300003868FFF793FF1037BD4680BD6766666695
:1013100080B582B000AF786039607868FFF7CCFDA7
:101320003B6818460549FFF7ADFF0448FFF7C4FDC9
:101330000348FFF7C1FD0837BD4680BDE028002007
:10134000A0A8000880B582B000AF786039607868E6
:10135000FFF7B2FD3B6818460449FFF793FF0348C7
:10136000FFF7AAFD0837BD4680BD00BFE02800207A
:1013700080B582B000AF786039607868FFF79CFD77
:10138000064807493A6805F03BF80448FFF794FD22
:101390000448FFF791FD0837BD4680BDE0280020D6
:1013A000A4A80008A0A8000890B585B000AF034627
:1013B000FB71974B974A5A62954B974A9A62944BA6
:1013C000964ADA62924B964A1A63914B954A5A634F
:1013D0008F4B954ADA638E4B944A1A668C4B944A2B
:1013E000C3F8A4208A4B934AC3F81821884B4FF0C6
:1013F0000002C3F80822864B8F4AC3F89823844B17
:101400004FF08242C3F828250023FB8115E0FB89B9
:10141000A3F1090213465B0013445B00A3F51673A6
:10142000184604F085FD0346BB60FA89784BB9681D
:1014300043F82210FB890133FB81FB89082BE6D995
:101440000923FB8126E0FB89093B184604F03EF99D
:1014500002460B461046194663A3D3E9002304F065
:101460009BF902460B46104619464FF00002734B9B
:1014700003F0DEFF02460B461046194604F04EFC10
:101480000346BB60FA89624BB96843F82210FB89B6
:101490000133FB81FB890F2BD5D90F23FB8113E08F
:1014A000FB89A3F10F0213469B001344C83B184667
:1014B00004F03EFD0346BB60FA89554BB96843F81A
:1014C0002210FB890133FB81FB89182BE8D91823F3
:1014D000FB8126E0FB89183B184604F0F7F802462A
:1014E0000B461046194642A3D3E9002304F054F9F1
:1014F00002460B46104619463FA3D3E9002303F0EA
:1015000097FF02460B461046194604F007FC0346B7
:10151000BB60FA893E4BB96843F82210FB8901335E
:10152000FB81FB89292BD5D92923FB8126E0FB8967
:10153000293B184604F0CAF802460B4610461946E5
:101540002FA3D3E9002304F027F902460B461046E7
:1015500019464FF000023A4B03F06AFF02460B4671
:101560001046194604F0DAFB0346BB60FA89284BA3
:10157000B96843F82210FB890133FB81FB89462BB4
:10158000D5D94623FB8126E0FB89463B184604F06B
:101590009DF802460B46104619461BA3D3E90023CB
:1015A00004F0FAF802460B46104619464FF00002C6
:1015B000244B03F03DFF02460B461046194604F04B
:1015C000ADFB0346BB60FA89114BB96843F82210A2
:1015D000FB890133FB81FB89822BD5D98223FB81D7
:1015E0005AE000BFAFF300809A99999999992040E9
:1015F0009A999999999905400000000000C06240AD
:10160000333333333333FB3F8FC2F5285C8FEA3FEC
:10161000202100200000C8C10000C0C10000B8C1E6
:101620000000B0C10000A8C10000A0C1000070C14E
:10163000000020C10000A0C00000A04000406F409A
:101640000000594000004940FB89823B184604F0E5
:101650003DF802460B46104619464FF00002384B43
:1016600004F09AF802460B46104619464FF0000265
:101670004FF0000303F0DEFE02460B46104619460B
:1016800004F04CFB0346BB60FA892E4BB96843F863
:101690002210FB890133FB81FB89E62BD4D9E62399
:1016A000FB8126E0FB89E63B184604F00FF8024672
:1016B0000B461046194620A3D3E9002304F06CF82A
:1016C00002460B46104619464FF000021E4B03F02F
:1016D000B1FE02460B461046194604F01FFB0346B6
:1016E000BB60FA89174BB96843F82210FB890133B4
:1016F000FB81FB89B3F5A77FD4D3FB79002B17D0EF
:101700000023FB8110E0FC89FA890E4B53F822304C
:1017100018460E4904F014FD03461A46094B43F8D7
:101720002420FB890133FB81FB89B3F5A77FEAD332
:101730001437BD4690BD00BF8FC2F5285C8FD23FE5
:101740000000E03F2021002000004940000020412F
:1017500080B588B000AF78600023FB610023BB61D7
:1017600000237B6100233B610023FB732C4B1B6830
:10177000FB612B4B1B68002B03D17868FFF718FD2A
:10178000F861274B00221A60FB69BB61254B0022E0
:101790001A60254B1B681846244904F0D9FD0346FE
:1017A000002B03D1224B1B889D2B37D9214B0022C4
:1017B0001A701D4B4FF000021A601F4B00221A6076
:1017C0001E4B00221A701E4B00221A701D4B002265
:1017D0001A601D4B01221A601C4B01221A601C4B1F
:1017E00000221A701B4B00221A701B4B00221A7029
:1017F0001A4B00221A601A4B00221A60194B202241
:101800001A70194B20221A70184B00221A70184BAC
:1018100000221A70064B00221A80A7E1A6E100BF41
:10182000E0080020F0080020B80C0020000048422A
:101830000E090020EE080020E8080020EC08002037
:10184000ED080020F4080020F8080020FC08002023
:1018500004090020050900200609002000090020D5
:1018600008090020D00900204C2600201009002083
:101870000C090020774B1B687A6813441B787E2B79
:101880003AD1754B1B78002B36D1734B01221A705D
:10189000724B4FF000021A60714B00221A60714BBC
:1018A00000221A70704B00221A70704B00221A60CE
:1018B0006F4B01221A606F4B01221A606E4B00229F
:1018C0001A706E4B00221A706D4B00221A706D4B0D
:1018D00000221A606C4B00221A606C4B20221A7096
:1018E0006B4B20221A706B4B00221A706A4B00223D
:1018F0001A706A4B00221A80594B1B68554A1268AD
:1019000079680A441178664AD154644B1B880133C4
:101910009AB2624B1A80524B1B68614AD35C3B2BD4
:1019200010D15D4B1B78002B0CD14B4B1B78012B3E
:1019300008D1494B00221A704B4B01221A70554BAB
:1019400001221A70464B1B68554AD35C3D2B05D0CB
:10195000434B1B68524AD35C3A2B09D1464B1B7848
:10196000002B05D1444B01221A704A4B01221A70F8
:101970003B4B1B684A4AD35C2E2B0DD13F4B1B7847
:10198000002B09D1444B1B78002B05D13B4B012286
:101990001A70404B01221A70314B1B68404AD35CCD
:1019A000242B09D1364B1B78002B05D1344B022256
:1019B0001A70384B01221A70294B1B68022B40F217
:1019C0009A80374B9B78202B40F09580314B1B78C9
:1019D000002B40F090802A4B1B78012B00F28B806B
:1019E000254B1B78012B07D0204B1B681C4A126823
:1019F0002B49895C2B4AD1541F4B1B78012B0BD1EF
:101A00001E4B1B78002B07D1194B1B68144A126818
:101A10002349895C1D4AD154174B1B78012B0BD1EC
:101A2000164B1B78012B07D1124B1B680C4A12680E
:101A30001B49895C164AD1540F4B1B78012B33D0BC
:101A40000A4B1B681F2B56D8084B1B685A1C074BA8
:101A50001A6050E0F0080020EE080020B80C0020CA
:101A6000E8080020EC080020ED080020F408002021
:101A7000F8080020FC0800200409002005090020C7
:101A8000060900200009002008090020D0090020D4
:101A90004C260020100900200C0900200E0900200F
:101AA00024270020D00C0020904B1B78012B11D153
:101AB0008F4B1B78002B0DD18E4B1B68C72B09D881
:101AC0008C4B1B685A1C8B4B1A608B4B1B685A1C27
:101AD000894B1A60854B1B78012B0CD1844B1B78EA
:101AE000012B08D1854B1B68C72B04D8834B1B687F
:101AF0005A1C824B1A60824B1B78022B0DD1814BF2
:101B00001B78002B09D1804B1B68804AD35C1A4696
:101B10007F4B1A607A4B01221A70774B1A687C4B04
:101B20001B689A4207D2764B1B78012B03D1794B65
:101B300001221A7002E0774B00221A70724B1B6868
:101B4000C72B04D8704B1B685A1C6F4B1A60724B22
:101B50001B68C72B04D8704B1B685A1C6E4B1A604D
:101B6000FB69013BFB61674B00221A70FB69002B8C
:101B70007FF480AE694B1B78012B40F04682684BA6
:101B80001B685A1C664B1A60604B1B787E2B06D173
:101B9000644B1B7843F00103DAB2624B1A705B4B63
:101BA0005A78614B1B789A4206D15E4B1B7843F002
:101BB0000203DAB25B4B1A705A4B1B78032B40F0CE
:101BC0008C815A485A4904F041FC0346002B09D144
:101BD0005848FFF771F95848FFF76EF9012002F0F5
:101BE000FDFA7AE15148554904F030FC0346002BD8
:101BF0000CD15348FFF760F94F48FFF75DF9514B9F
:101C00001B7851481946FFF7B3FB66E147484F4937
:101C100004F01CFC0346002B09D14D48FFF74CF99A
:101C20004548FFF749F9002000F0AEFB55E13F4879
:101C3000484904F00BFC0346002B06D14448FFF74B
:101C40003BF93D48FFF738F947E13848424904F08D
:101C5000FDFB0346002B08D14048FFF72DF936481D
:101C6000FFF72AF900F0E4FD37E130483C4904F081
:101C7000EDFB0346002B08D13A48FFF71DF92E482B
:101C8000FFF71AF900F080FB27E12848364904F0F5
:101C9000DDFB0346002B77D1344804F063FB034699
:101CA0001A46334B1A60334804F05CFB03461A466D
:101CB000314B1A602E4B1B6830481946FFF742FB28
:101CC0002D4B1B682E481946FFF722FB284B1B683B
:101CD000DAB2294B1B68DBB21046194600F0E6FC6D
:101CE000034628481946FFF743FBF6E004090020A5
:101CF00005090020F808002008090020FC08002041
:101D00000609002010090020E808002024270020F0
:101D1000000900200C090020F0080020ED08002038
:101D20002C090020EC08002014000020D00C00201A
:101D3000D4A80008DCA80008ECA80008F0A8000857
:101D4000F4A80008740B002000A9000808A90008E6
:101D500010A9000820A9000828A9000830A9000837
:101D600040A9000848A9000858A90008D009002087
:101D7000180900204C2600201409002060A9000842
:101D800070A9000874A900086A486B4904F05EFB5A
:101D90000346002B25D1694804F0E4FA03461A46AD
:101DA000674B1A60674804F0DDFA03461A46664B33
:101DB0001A60634B1B6865481946FFF7A9FA624B26
:101DC0001B6863481946FFF7A3FA5D4B1B68DAB23C
:101DD0005D4B1B68DBB2104619465E4A00F008FCFA
:101DE0007BE054485C4904F031FB0346002B19D1D9
:101DF000524804F0B7FA03461A46514B1A6051484C
:101E000004F0B0FA03461A464F4B1A604C4B1B685D
:101E100052481946FFF77CFA494B1B68184600F0F8
:101E200099FC5AE043484E4904F010FB0346002B4E
:101E300019D1424804F096FA03461A46404B1A60FC
:101E4000404804F08FFA03461A463F4B1A603C4B59
:101E50001B6844481946FFF75BFA394B1B68184664
:101E600000F0ACFC39E033483F4904F0EFFA034698
:101E7000002B14D1314804F075FA03461A46304B52
:101E80001A602F4B1B6839481946FFF741FA2C4B53
:101E90001B68082004211A4600F0AAFB1DE0254813
:101EA000334904F0D3FA0346002B16D1234804F03B
:101EB00059FA03461A46224B1A60214B1B682D48DB
:101EC0001946FFF725FA1E4B1B681846FEF77EFEE3
:101ED000034629481946FFF71BFA0023FB6107E078
:101EE000144AFB69134400221A70FB690133FB6139
:101EF000FB691F2BF4D90023FB6107E00F4AFB6944
:101F0000134400221A70FB690133FB61FB69C82B83
:101F1000F4D90023FB6107E00A4AFB69134400225D
:101F20001A70FB690133FB61FB69C82BF4D90023EC
:101F3000FB612BE0D00C00207CA90008D009002018
:101F4000180900204C2600201409002084A900084C
:101F500094A90008DDCCBBAA98A90008A8A900088C
:101F6000C0A90008D0A90008E8A90008F4A9000841
:101F700008AA00080CAA000818AA0008354AFB693C
:101F8000134400221A70FB690133FB61FB69C72B04
:101F9000F4D9314B4FF000021A60304B00221A7016
:101FA0002F4B00221A602F4B00221A700023FB6176
:101FB0002D4B00221A702D4B00221A602C4B002250
:101FC0001A602C4B00221A702B4B00221A602B4BEC
:101FD00000221A702A4B00221A602A4B00221A7023
:101FE000294B00221A60294B00221A60284B00223C
:101FF0001A70284B00221A70274B20221A70274B88
:1020000020221A70264B00221A80174B1B78012BB6
:102010001DD1144B1B78012B19D1224B1B78002B9F
:1020200015D12148FEF748FF0D4B1B68DBB209486C
:102030001946FEF785FF1C48FEF73EFF1B4B0022AA
:102040001A701B4B00221A701A4B00221A7020378C
:10205000BD4680BD24270020B80C0020EE080020DB
:10206000E8080020EC080020ED080020F40800201B
:10207000F808002004090020FC08002005090020C1
:10208000F0080020060900200009002008090020AF
:10209000100900200C090020D00900204C26002047
:1020A0000E090020E4080020A0A800083F28002016
:1020B000002000201D27002080B400AF0D4B1B78AE
:1020C000312B03D80C4B4FF400621A61094B1B787B
:1020D000322B03D9084B4FF400625A61054B1B7831
:1020E000642B02D9034B00221A70BD465DF8047BB5
:1020F000704700BF540900200008014090B583B02C
:1021000000AF0023FB800023BB800023FB701C4B2F
:102110001B78002B31D01A4B1B78C72B03D8184BD8
:102120001B78BB8001E0C823BB800023FB8018E044
:10213000FC88FFF757F803461A46124B1A55FB88DE
:1021400001331A46104B1A60FB880E4AD35C3B2BB6
:1021500004D10123FB70BB88FB8006E0FB880133C0
:10216000FB80FA88BB889A42E2D3074B1B68054A7A
:102170000021D1540348FFF7EBFA0C37BD4690BD60
:102180001D2700209C0A0020E008002080B500AF39
:10219000694B1B68FA2B02DD684B00221A60664B04
:1021A0001B68F92B0CDC654B1B68002B08D1644BBA
:1021B0001B785B00DAB2624B1A70604B01221A6026
:1021C0005F4B1B78082B4AD0082B06DC022B22D051
:1021D000042B32D0012B0CD09BE0202B63D0202B82
:1021E00002DC102B4DD094E0402B6ED0802B7ED0A3
:1021F0008FE0544B40225A61534B4FF480621A6176
:10220000514B4FF400621A614E4B04225A614D4B00
:1022100008225A617DE04B4B40221A614A4B4FF431
:1022200080625A61484B4FF400621A61454B0422A8
:102230005A61444B08225A616BE0424B40221A61BA
:10224000414B4FF480621A613F4B4FF400625A6178
:102250003C4B04225A613B4B08225A6159E0394BEE
:1022600040221A61384B4FF480621A61364B4FF4AA
:1022700000621A61334B04221A61324B08225A6100
:1022800047E0304B40221A612F4B4FF480621A61B5
:102290002D4B4FF400621A612A4B04225A61294BDC
:1022A00008221A6135E0274B40225A61264B4FF431
:1022B00080621A61244B4FF400621A61214B0422A0
:1022C0001A61204B08225A6123E01E4B40221A61FA
:1022D0001D4B4FF480625A611B4B4FF400621A6130
:1022E000184B04225A61174B08221A6111E0154B52
:1022F00040221A61144B4FF480621A61124B4FF462
:1023000000621A610F4B04225A610E4B08225A6177
:1023100000BF094B1B68B3F5FA7F02D1064B0022C0
:102320001A60074B1B78002B02D1054B01221A7053
:10233000FFF7C2FE80BD00BF4009002090090020C9
:1023400094090020001801400014014080B582B0BB
:1023500000AF78607B681B0EDBB21846FEF794FE78
:102360007B681B0CDBB21846FEF78EFE7B681B0AEF
:10237000DBB21846FEF788FE7B68DBB21846FEF734
:1023800083FE0837BD4680BD80B584B000AF0346EC
:10239000FB710023FB6005E06148FEF78DFDFB68E3
:1023A0000133FB60FB68132BF6DD0023FB6005E0C7
:1023B0005C48FEF781FDFB680133FB60FB68132B73
:1023C000F6DD5748FEF778FD5748FEF775FD54488F
:1023D000FEF772FD5548FEF76FFD5548FEF76CFDA0
:1023E0005448FEF769FD5448FEF766FD5348FEF772
:1023F00063FD5348FEF760FD5248FEF75DFD52480D
:10240000FEF75AFD5148FEF757FD5148FEF754FDBF
:102410005048FEF751FD5048FEF74EFD4F48FEF77D
:102420004BFD4F48FEF748FD4E48FEF745FD4E4830
:10243000FEF742FD4D48FEF73FFD4D48FEF73CFDDF
:102440004C48FEF739FD4C48FEF736FD4B48FEF789
:1024500033FD4B48FEF730FD4A48FEF72DFD4A4854
:10246000FEF72AFD4948FEF727FD4948FEF724FDFF
:102470004848FEF721FD4848FEF71EFD4748FEF795
:102480001BFD4748FEF718FD4648FEF715FD464878
:10249000FEF712FD4548FEF70FFD4548FEF70CFD1F
:1024A0004448FEF709FD4448FEF706FD4348FEF7A1
:1024B00003FD4348FEF700FD4248FEF7FDFC42489D
:1024C000FEF7FAFC4148FEF7F7FC4148FEF7F4FC42
:1024D0004048FEF7F1FC4048FEF7EEFC3F48FEF7AF
:1024E000EBFC3F48FEF7E8FC3E48FEF7E5FC3E48C3
:1024F000FEF7E2FC0A48FEF7DFFC0948FEF7DCFCC9
:102500003A48FEF7D9FC0648FEF7D6FC0448FEF729
:10251000D3FC0348FEF7D0FC1037BD4680BD00BF9A
:10252000ECA8000820AA000824AA000854AA000861
:102530005CAA000868AA000888AA00089CAA0008EB
:10254000B0AA0008C4AA0008D8AA000808AB00086E
:1025500030AB000858AB000874AB0008A8AB00080B
:10256000D8AB000814AC000848AC000880AC0008E8
:10257000B0AC0008D8AC000814AD000848AD0008A5
:1025800080AD0008B0AD0008D8AD000814AE00085A
:1025900048AE000880AE0008B0AE0008D8AE000813
:1025A00000AF000844AF000884AF0008C4AF0008C3
:1025B000F8AF00083CB0000878B00008A4B00008EC
:1025C000D0B00008FCB0000828B1000868B10008CD
:1025D000BCB10008F8B1000830B2000868B20008C9
:1025E000ACB20008F4B200083CB300086CB30008B9
:1025F00080B584B000AF0B463A600246FA71BB71F9
:10260000FB79DB08BB73BB7B012B02D13B68DBB2E0
:10261000FB72BB7B022B06D13B68DBB2BB723B6813
:102620001B0ADBB2FB72BB7B032B0AD13B68DBB21C
:102630007B723B681B0ADBB2BB723B681B0CDBB2D4
:10264000FB72BB7B042B0ED13B68DBB23B723B6859
:102650001B0ADBB27B723B681B0CDBB2BB723B68B4
:102660001B0EDBB2FB72BB7963F07F03DBB2184653
:10267000FEF70AFD0023FB730DE0FB7BC3F10303B0
:1026800007F11002134413F8083C1846FEF7FCFC4F
:10269000FB7B0133FB73FB79DB08DBB2FA7B9A42ED
:1026A000EBD3002318461037BD4680BD90B587B0E8
:1026B00000AF02460B46FA71BB710023FB73FB7936
:1026C000DB08BB73BB79FB73FB7B1846FEF7DCFCB6
:1026D0000023FB750DE0FC7D0020FEF7D5FC0346D2
:1026E0001A4607F11803234403F8102CFB7D01332D
:1026F000FB75FB79DB08DBB2FA7D9A42EBD3BB7B3F
:10270000012B01D13B7A3B61BB7B022B04D13B7A8D
:102710001A027B7A13443B61BB7B032B07D13B7AC4
:102720001A047B7A1B021A44BB7A13443B61BB7BBD
:10273000042B0AD13B7A1A067B7A1B041A44BB7A13
:102740001B021A44FB7A13443B613B6918461C3751
:10275000BD4690BD80B586B000AF786000233B6178
:10276000FEF782FB00237B610EE020201E21FFF795
:102770009DFFF860FA680D4B9A4202D03B69013325
:102780003B617B6901337B617A697B689A42ECD358
:1027900007487968FEF7BCFD0648FEF78DFB064842
:1027A0003969FEF7B5FD1837BD4680BDEFBEEDDED9
:1027B00084B3000890B300089CB3000880B586B0CD
:1027C00000AF786000233B61FEF74EFB00237B6186
:1027D00013E020202421124AFFF70AFF20202321A2
:1027E000FFF764FFF860FA680D4B9A4202D03B692C
:1027F00001333B617B6901337B617A697B689A4273
:10280000E7D308487968FEF783FD0748FEF754FBD5
:1028100006483969FEF77CFD1837BD4680BD00BF0C
:10282000EFBEEDDE84B3000890B300089CB300084F
:1028300080B400AFBD465DF8047B704780B582B0C0
:1028400000AF78607868FFF781FD0120FDF75AFF3F
:10285000054B08221A610120FDF754FF024B0822A4
:102860005A610837BD4680BD0014014080B582B072
:1028700000AF78600120FDF745FF0A4B04225A6142
:102880007868FFF763FD0120FDF73CFF054B04224C
:102890001A610120FDF736FF024B04225A61083706
:1028A000BD4680BD0014014080B400AFD04A93788B
:1028B00043F002039370CE4A1388192161F34F133A
:1028C0001380CB4A93786FF300039370C84A137850
:1028D0006FF304031370C74A93786FF34103937047
:1028E000C44A1388192161F34F131380C14A9378A6
:1028F0006FF300039370BF4A1378012161F304035F
:102900001370BD4A93786FF341039370BA4A1388EA
:10291000642161F34F131380B74A93786FF3000378
:102920009370B54A1378022161F304031370B34A1C
:1029300093786FF341039370B04A1388FA2161F3DF
:102940004F131380AD4A93786FF300039370AB4A33
:102950001378032161F304031370A94A93786FF38A
:1029600041039370A64A1388142161F34F13138017
:10297000A34A93786FF300039370A14A137804215C
:1029800061F3040313709F4A93786FF341039370CC
:102990009C4A1388FA2161F34F131380994A937864
:1029A0006FF300039370974A1378052161F30403D2
:1029B0001370954A5378042161F303035370924ACC
:1029C00053786FF3071353708F4A9378042161F3A0
:1029D000030393708C4A93786FF3071393708A4ABA
:1029E0001378062161F304031370884A53786FF358
:1029F00003035370854A53786FF307135370834A68
:102A00009378022161F303039370804A93786FF304
:102A1000071393707D4A1378072161F30403137041
:102A20007B4A5378062161F303035370784A537845
:102A30006FF307135370764A9378062161F303030B
:102A40009370734A93786FF307139370704A1378F7
:102A5000082161F3040313706E4A1378092161F3AE
:102A6000040313706C4A13786FF3461313706A4AA9
:102A700053786FF303035370674A53786FF304136B
:102A80005370654A53786FF345135370624A537815
:102A900043F040035370604A537843F0800353700F
:102AA0005D4A937843F0070393705B4A13780A21D9
:102AB00061F304031370594A137843F02003137031
:102AC000564A137843F040031370544A137843F086
:102AD00080031370514A537843F0010353704F4AF7
:102AE000537843F0020353704C4A537843F0040385
:102AF00053704A4A53786FF3C3035370474A53786D
:102B00006FF305135370454A53786FF38613537070
:102B1000424A13780B2161F304031370404A13787F
:102B20006FF3451313703E4A5378032161F3020398
:102B300053703B4A5378022161F3C7035370384AFC
:102B400013780C2161F304031370364A13780D21B6
:102B500061F304031370334A1378042161F34713BC
:102B60001370304A5378032161F3020353702E4AE5
:102B700013780E2161F3040313702B4A1378042198
:102B800061F347131370294A1378102161F304038A
:102B90001370274A1378182161F304031370244A31
:102BA00013786FF347131370214A53786FF30203BE
:102BB00053701F4A53786FF3C60353701C4A9378BF
:102BC0006FF3030393701B4A13781A2161F3040314
:102BD0001370184A5388032161F30D035380154A7B
:102BE000D37843F0C003D370124A137924E000BFB6
:102BF000880B00205C28002080280020B00C0020DA
:102C000008290020B01D002018210020840B00207E
:102C10007C280020602800203C2800202C28002050
:102C2000700B0020F40C0020041D0020F42700206D
:102C3000900C0020680B00206FF300031371214AF1
:102C400013781C2161F3040313701E4A5388012179
:102C500061F30B0353801C4A13781D2161F30403B5
:102C60001370194A13786FF347131370164A1368D9
:102C7000052161F319231360144A13781E2161F3AF
:102C800004031370114A1378052161F3471313707D
:102C90000E4A1368052161F3192313600C4A137857
:102CA00043F01F0313700A4A53786FF30403537001
:102CB000074A53786FF345135370BD465DF8047BA4
:102CC000704700BFF02700204C280020202800205B
:102CD000281D002080B400AFD04A937843F002034F
:102CE0009370CE4A1388082161F34F131380CB4AA7
:102CF00093786FF300039370C84A13786FF304035B
:102D00001370C74A93786FF341039370C44A1388D2
:102D1000082161F34F131380C14A93786FF30003C6
:102D20009370BF4A1378012161F304031370BD4A05
:102D300093786FF341039370BA4A1388062161F3C5
:102D40004F131380B74A93786FF300039370B54A1B
:102D50001378022161F304031370B34A93786FF37D
:102D600041039370B04A1388062161F34F13138017
:102D7000AD4A93786FF300039370AB4A1378032145
:102D800061F304031370A94A93786FF341039370BE
:102D9000A64A1388FC2161F34F131380A34A93784A
:102DA0006FF300039370A14A1378042161F30403C5
:102DB00013709F4A93786FF3410393709C4A138872
:102DC000072161F34F131380994A93786FF300033F
:102DD0009370974A1378052161F304031370954AA1
:102DE00053786FF303035370924A53786FF30713CA
:102DF0005370904A93786FF3030393708D4A9378DE
:102E00006FF3071393708B4A1378062161F3040361
:102E10001370894A53786FF303035370864A5378CB
:102E20006FF307135370844A93786FF3030393701F
:102E3000814A93786FF3071393707F4A13780721C1
:102E400061F3040313707D4A53786FF303035370E7
:102E50007A4A53786FF307135370784A93780521B1
:102E600061F303039370754A9378052161F30713A7
:102E70009370724A1378082161F304031370704A47
:102E80001378092161F3040313706E4A13786FF30A
:102E9000461313706B4A53786FF303035370694AF8
:102EA00053786FF304135370664A53786FF34513E6
:102EB0005370644A537843F040035370614A537827
:102EC00043F0800353705F4A937843F00703937095
:102ED0005C4A13780A2161F3040313705A4A137889
:102EE00043F020031370584A137843F040031370E3
:102EF000554A137843F080031370534A537843F0D4
:102F000001035370504A537843F0020353704E4A02
:102F1000537843F0040353704B4A53786FF3C30361
:102F20005370494A53786FF305135370464A5378E8
:102F30006FF386135370444A13780B2161F3040333
:102F40001370424A13786FF3451313703F4A537856
:102F5000032161F3020353703C4A5378022161F369
:102F6000C7035370394A13780C2161F304031370BB
:102F7000374A13780D2161F304031370344A137830
:102F8000042161F347131370314A5378032161F32D
:102F9000020353702F4A13780E2161F30403137058
:102FA0002C4A1378042161F3471313702A4A1378CB
:102FB000102161F304031370284A1378182161F378
:102FC00004031370254A13786FF347131370234AD1
:102FD00053786FF302035370204A53786FF3C6039C
:102FE00053701E4A93786FF3030393701C4A13784F
:102FF0001A2161F304031370194A5388032161F302
:103000000D035380164AD378022161F38713D370DE
:10301000134A13796FF30003137123E0880B002028
:103020005C28002080280020B00C00200829002007
:10303000B01D002018210020840B00207C280020D7
:10304000602800203C2800202C280020700B002045
:10305000F40C0020041D0020F4270020900C002018
:10306000680B0020214A13781C2161F304031370BC
:103070001E4A5388052161F30B0353801C4A1378C1
:103080001D2161F304031370194A1378012161F3C0
:1030900047131370164A13683F2161F31923136015
:1030A000144A13781E2161F304031370114A137834
:1030B000022161F3471313700E4A13683F2161F335
:1030C000192313600C4A137843F01F0313700A4A44
:1030D00053786FF304035370074A53786FF3451323
:1030E0005370BD465DF8047B704700BFF027002099
:1030F0004C28002020280020281D002080B582B008
:1031000000AF0346FB71FFF7CFFBAF4B00221A6005
:10311000AD4B1A68AD4B9B78C3F34003DBB25B0445
:103120001A43AA4B9B78C3F30003DBB2DB071A43B5
:10313000A64B1B88C3F34A139BB25B011A43A34BF4
:103140001B78C3F30403DBB21A439F4B1A609E4BF8
:103150001B681846FFF772FB9D48FDF7ADFE9A4BC2
:1031600000221A60984B1A68984B9B78C3F30003AF
:10317000DBB2DB071A43954B1B88C3F34A139BB2A0
:103180005B011A43914B1B78C3F30403DBB21A4370
:103190008D4B1A608C4B00225A608B4B5A688D4BBA
:1031A0009B78C3F34003DBB25B041A43894B9B78E3
:1031B000C3F30003DBB2DB071A43864B1B88C3F360
:1031C0004A139BB25B011A43824B1B78C3F304037F
:1031D000DBB21A437C4B5A607B4B00229A607A4BDD
:1031E0009A687D4B9B78C3F30003DBB2DB071A437D
:1031F000794B1B88C3F34A139BB25B011A43764B8E
:103200001B78C3F30403DBB21A436F4B9A606E4B17
:103210000022DA606C4BDA68704B9B78C3F30003D2
:10322000DBB2DB071A436D4B1B88C3F34A139BB217
:103230005B011A43694B1B78C3F30403DBB21A43E7
:10324000614BDA60604B00221A615F4B1A69644B74
:103250009B78C3F30003DBB2DB071A43604B1B8888
:10326000C3F34A139BB25B011A435D4B1B78C3F354
:103270000403DBB21A43544B1A61534B00225A61C8
:10328000514B5A69574B9B78C3F30003DBB2DB0702
:103290001A43544B1B88C3F34A139BB25B011A4376
:1032A000504B1B78C3F30403DBB21A43464B5A61FD
:1032B000454B00229A61444B9A694B4B5B78C3F3B0
:1032C0000303DBB21B041A43474B5B78C3F30313BE
:1032D000DBB21B051A43444B9B78C3F30303DBB2F9
:1032E0001B061A43404B9B78C3F30313DBB21B0747
:1032F0001A433D4B1B78C3F30403DBB21A43324B32
:103300009A61314B0022DA612F4BDA69374B5B78D7
:10331000C3F30303DBB21B041A43344B5B78C3F3E0
:103320000313DBB21B051A43304B9B78C3F3030333
:10333000DBB21B061A432D4B9B78C3F30313DBB29E
:103340001B071A43294B1B78C3F30403DBB21A4350
:103350001D4BDA611C4B00221A621B4B1A6A244B6C
:103360005B78C3F30303DBB21B041A43204B5B7887
:10337000C3F30313DBB21B051A431D4B9B78C3F346
:103380000303DBB21B061A43194B9B78C3F30313E9
:10339000DBB21B071A43164B1B78C3F30403DBB2E3
:1033A0001A43094B1A62084B00225A62064B5A6AAA
:1033B000104B1B78C3F30403DBB21A430E4B1343C9
:1033C000014A53621AE000BF581D0020880B0020FC
:1033D000ACB300085C28002080280020B00C00203E
:1033E00008290020B01D002018210020840B002097
:1033F0007C2800206028002040555555B64B0022FF
:103400009A62B54B9A6AB54B1B78C3F34113DBB292
:103410001B061A43B14B5B78C3F30303DBB29B0774
:103420001A43AE4B5B78C3F30013DBB2DB051A43E0
:10343000AA4B5B78C3F34013DBB29B051A43A74B3F
:103440005B78C3F38013DBB25B051A43A34B5B7855
:10345000C3F3C013DBB21B051A43A04B9B78C3F325
:103460000203DBB21B041A439C4B1B78C3F3040317
:10347000DBB2134343F0805343F48043964A936294
:10348000954B0022DA62944BDA6A954B1B78C3F3B2
:103490004013DBB21B051A43914B1B78C3F3801317
:1034A000DBB25B051A438E4B1B78C3F3C013DBB250
:1034B0009B051A438A4B5B78C3F30003DBB2DB0541
:1034C0001A43874B5B78C3F34003DBB21B061A43F6
:1034D000834B5B78C3F38003DBB25B061A43804BFC
:1034E0005B78C3F3C003DBB21B041A437C4B5B78ED
:1034F000C3F30113DBB21B031A43794B5B78C3F3AD
:103500008013DBB25B011A43754B1B78C3F30403D2
:10351000DBB2134343F050526F4BDA626E4B002222
:103520001A636D4B1A6B6F4B1B78C3F34013DBB2FE
:10353000DB051A436B4B5B78C3F30203DBB21B065C
:103540001A43684B5B78C3F3C403DBB2DB061A4350
:10355000644B1B78C3F30403DBB2134343F44023EF
:1035600043F060035C4A13635B4B00225A635A4B7F
:103570005A6B5D4B1B78C3F34213DBB21B041A4337
:10358000594B5B78C3F30203DBB21B061A43564B5D
:103590001B78C3F30403DBB2134343F0605343F4DB
:1035A00000434D4A53634C4B00229A634A4B9A6B3B
:1035B0004E4B1B78C3F34213DBB21B061A434B4B33
:1035C0001B78C3F30403DBB21A43434B9A63424BA9
:1035D0000022DA63404BDA6B454B1B78C3F30403DC
:1035E000DBB21A43434B13433B4AD3633A4B0022AB
:1035F0001A64394B1A6C404B1B78C3F34213DBB28D
:103600001B041A433C4B5B78C3F30203DBB21B057C
:103610001A43394B5B78C3F3C303DBB21B061A436F
:10362000354B9B78C3F30303DBB21B071A43324BC2
:103630001B78C3F30403DBB21A43274B1A64264BEF
:1036400000225A64244B5A6C2C4B5B88C3F30D0345
:103650009BB29B011A43294BDB78C3F38113DBB286
:103660009B061A43254B1B79C3F30003DBB25B07B0
:103670001A43224B1B78C3F30403DBB2134343F01A
:10368000034343F42003144A5364134B00229A6407
:10369000114B9A6C1A4B5B88C3F30B039BB21B054F
:1036A0001A43174B1B78C3F30403DBB21A430A4BCC
:1036B0009A64094B0022DA64074BDA6C114B1B78D1
:1036C000C3F34213DBB21B061A430E4B1B68C3F352
:1036D00011235B011A4317E0581D00203C280020ED
:1036E0002C280020700B0020F40C0020041D00206A
:1036F000F4270020000455C1900C0020680B002026
:10370000F02700204C2800207D4B1B78C3F30403D6
:10371000DBB2134343F400027A4BDA64794B0022A4
:103720001A65784B1A6D784B1B78C3F34213DBB2E2
:103730001B061A43744B1B68C3F311235B011A4326
:10374000714B1B78C3F30403DBB21A436D4B1A654C
:103750006C4B00225A656B4B5A6D6C4B5B78C3F314
:103760000403DBB21B041A43684B5B78C3F34013BA
:10377000DBB25B011A43654B1B78C3F30403DBB276
:103780001A43604B5A655F4B1B681846FFF756F8A3
:103790005F48FDF791FB5B4B5B681846FFF74EF8FF
:1037A0005C48FDF789FB574B9B681846FFF746F8C6
:1037B0005948FDF781FB534BDB681846FFF73EF88D
:1037C0005648FDF779FB4F4B1B691846FFF736F853
:1037D0005348FDF771FB4B4B5B691846FFF72EF81A
:1037E0005048FDF769FB474B9B691846FFF726F8E1
:1037F0004D48FDF761FB434BDB691846FFF71EF8A8
:103800004A48FDF759FB3F4B1B6A1846FFF716F86D
:103810004748FDF751FB3B4B5B6A1846FFF70EF834
:103820004448FDF749FB374B9B6A1846FFF706F8FB
:103830004148FDF741FB334BDB6A1846FEF7FEFFBC
:103840003E48FDF739FB2F4B1B6B1846FEF7F6FF82
:103850003B48FDF731FB2B4B5B6B1846FEF7EEFF49
:103860003848FDF729FB274B9B6B1846FEF7E6FF10
:103870003548FDF721FB234BDB6B1846FEF7DEFFD7
:103880003248FDF719FB1F4B1B6C1846FEF7D6FF9D
:103890002F48FDF711FB1B4B5B6C1846FEF7CEFF64
:1038A0002C48FDF709FB174B9B6C1846FEF7C6FF2B
:1038B0002948FDF701FB134BDB6C1846FEF7BEFFF2
:1038C0002648FDF7F9FA0F4B1B6D1846FEF7B6FFB9
:1038D0002348FDF7F1FA0B4B5B6D1846FEF7AEFF80
:1038E0002048FDF7E9FA204B80225A616420FDF759
:1038F000A7FA1D4B80221A610837BD4680BD00BF64
:103900004C280020581D002020280020281D0020C1
:10391000B8B30008BCB30008C0B30008C4B30008C3
:10392000C8B30008CCB30008D0B30008D4B3000873
:10393000D8B30008DCB30008E0B30008E8B300081F
:10394000F0B30008F8B3000800B4000808B4000899
:1039500010B4000818B4000820B4000828B4000807
:1039600030B4000838B400080010014080B582B0BF
:1039700000AF0346FB71FFF7ADF9AF4B00221A60B1
:10398000AD4B1A68AD4B9B78C3F34003DBB25B04CD
:103990001A43AA4B9B78C3F30003DBB2DB071A433D
:1039A000A64B1B88C3F34A139BB25B011A43A34B7C
:1039B0001B78C3F30403DBB21A439F4B1A609E4B80
:1039C0001B681846FEF752FF9D48FDF775FA9A4BA3
:1039D00000221A60984B1A68984B9B78C3F3000337
:1039E000DBB2DB071A43954B1B88C3F34A139BB228
:1039F0005B011A43914B1B78C3F30403DBB21A43F8
:103A00008D4B1A608C4B00225A608B4B5A688D4B41
:103A10009B78C3F34003DBB25B041A43894B9B786A
:103A2000C3F30003DBB2DB071A43864B1B88C3F3E7
:103A30004A139BB25B011A43824B1B78C3F3040306
:103A4000DBB21A437C4B5A607B4B00229A607A4B64
:103A50009A687D4B9B78C3F30003DBB2DB071A4304
:103A6000794B1B88C3F34A139BB25B011A43764B15
:103A70001B78C3F30403DBB21A436F4B9A606E4B9F
:103A80000022DA606C4BDA68704B9B78C3F300035A
:103A9000DBB2DB071A436D4B1B88C3F34A139BB29F
:103AA0005B011A43694B1B78C3F30403DBB21A436F
:103AB000614BDA60604B00221A615F4B1A69644BFC
:103AC0009B78C3F30003DBB2DB071A43604B1B8810
:103AD000C3F34A139BB25B011A435D4B1B78C3F3DC
:103AE0000403DBB21A43544B1A61534B00225A6150
:103AF000514B5A69574B9B78C3F30003DBB2DB078A
:103B00001A43544B1B88C3F34A139BB25B011A43FD
:103B1000504B1B78C3F30403DBB21A43464B5A6184
:103B2000454B00229A61444B9A694B4B5B78C3F337
:103B30000303DBB21B041A43474B5B78C3F3031345
:103B4000DBB21B051A43444B9B78C3F30303DBB280
:103B50001B061A43404B9B78C3F30313DBB21B07CE
:103B60001A433D4B1B78C3F30403DBB21A43324BB9
:103B70009A61314B0022DA612F4BDA69374B5B785F
:103B8000C3F30303DBB21B041A43344B5B78C3F368
:103B90000313DBB21B051A43304B9B78C3F30303BB
:103BA000DBB21B061A432D4B9B78C3F30313DBB226
:103BB0001B071A43294B1B78C3F30403DBB21A43D8
:103BC0001D4BDA611C4B00221A621B4B1A6A244BF4
:103BD0005B78C3F30303DBB21B041A43204B5B780F
:103BE000C3F30313DBB21B051A431D4B9B78C3F3CE
:103BF0000303DBB21B061A43194B9B78C3F3031371
:103C0000DBB21B071A43164B1B78C3F30403DBB26A
:103C10001A43094B1A62084B00225A62064B5A6A31
:103C2000104B1B78C3F30403DBB21A430E4B134350
:103C3000014A53621AE000BF88280020880B002048
:103C4000ACB300085C28002080280020B00C0020C5
:103C500008290020B01D002018210020840B00201E
:103C60007C2800206028002040555555B64B002286
:103C70009A62B54B9A6AB54B1B78C3F34113DBB21A
:103C80001B061A43B14B5B78C3F30303DBB29B07FC
:103C90001A43AE4B5B78C3F30013DBB2DB051A4368
:103CA000AA4B5B78C3F34013DBB29B051A43A74BC7
:103CB0005B78C3F38013DBB25B051A43A34B5B78DD
:103CC000C3F3C013DBB21B051A43A04B9B78C3F3AD
:103CD0000203DBB21B041A439C4B1B78C3F304039F
:103CE000DBB2134343F0805343F48043964A93621C
:103CF000954B0022DA62944BDA6A954B1B78C3F33A
:103D00004013DBB21B051A43914B1B78C3F380139E
:103D1000DBB25B051A438E4B1B78C3F3C013DBB2D7
:103D20009B051A438A4B5B78C3F30003DBB2DB05C8
:103D30001A43874B5B78C3F34003DBB21B061A437D
:103D4000834B5B78C3F38003DBB25B061A43804B83
:103D50005B78C3F3C003DBB21B041A437C4B5B7874
:103D6000C3F30113DBB21B031A43794B5B78C3F334
:103D70008013DBB25B011A43754B1B78C3F304035A
:103D8000DBB2134343F050526F4BDA626E4B0022AA
:103D90001A636D4B1A6B6F4B1B78C3F34013DBB286
:103DA000DB051A436B4B5B78C3F30203DBB21B06E4
:103DB0001A43684B5B78C3F3C403DBB2DB061A43D8
:103DC000644B1B78C3F30403DBB2134343F4402377
:103DD00043F060035C4A13635B4B00225A635A4B07
:103DE0005A6B5D4B1B78C3F34213DBB21B041A43BF
:103DF000594B5B78C3F30203DBB21B061A43564BE5
:103E00001B78C3F30403DBB2134343F0605343F462
:103E100000434D4A53634C4B00229A634A4B9A6BC2
:103E20004E4B1B78C3F34213DBB21B061A434B4BBA
:103E30001B78C3F30403DBB21A43434B9A63424B30
:103E40000022DA63404BDA6B454B1B78C3F3040363
:103E5000DBB21A43434B13433B4AD3633A4B002232
:103E60001A64394B1A6C404B1B78C3F34213DBB214
:103E70001B041A433C4B5B78C3F30203DBB21B0504
:103E80001A43394B5B78C3F3C303DBB21B061A43F7
:103E9000354B9B78C3F30303DBB21B071A43324B4A
:103EA0001B78C3F30403DBB21A43274B1A64264B77
:103EB00000225A64244B5A6C2C4B5B88C3F30D03CD
:103EC0009BB29B011A43294BDB78C3F38113DBB20E
:103ED0009B061A43254B1B79C3F30003DBB25B0738
:103EE0001A43224B1B78C3F30403DBB2134343F0A2
:103EF000034343F42003144A5364134B00229A648F
:103F0000114B9A6C1A4B5B88C3F30B039BB21B05D6
:103F10001A43174B1B78C3F30403DBB21A430A4B53
:103F20009A64094B0022DA64074BDA6C114B1B7858
:103F3000C3F34213DBB21B061A430E4B1B68C3F3D9
:103F400011235B011A4317E0882800203C28002039
:103F50002C280020700B0020F40C0020041D0020F1
:103F6000F4270020000455C1900C0020680B0020AD
:103F7000F02700204C2800207D4B1B78C3F304035E
:103F8000DBB2134343F400027A4BDA64794B00222C
:103F90001A65784B1A6D784B1B78C3F34213DBB26A
:103FA0001B061A43744B1B68C3F311235B011A43AE
:103FB000714B1B78C3F30403DBB21A436D4B1A65D4
:103FC0006C4B00225A656B4B5A6D6C4B5B78C3F39C
:103FD0000403DBB21B041A43684B5B78C3F3401342
:103FE000DBB25B011A43654B1B78C3F30403DBB2FE
:103FF0001A43604B5A655F4B1B681846FEF736FC48
:104000005F48FCF759FF5B4B5B681846FEF72EFCD8
:104010005C48FCF751FF574B9B681846FEF726FC9F
:104020005948FCF749FF534BDB681846FEF71EFC66
:104030005648FCF741FF4F4B1B691846FEF716FC2C
:104040005348FCF739FF4B4B5B691846FEF70EFCF3
:104050005048FCF731FF474B9B691846FEF706FCBA
:104060004D48FCF729FF434BDB691846FEF7FEFB82
:104070004A48FCF721FF3F4B1B6A1846FEF7F6FB48
:104080004748FCF719FF3B4B5B6A1846FEF7EEFB0F
:104090004448FCF711FF374B9B6A1846FEF7E6FBD6
:1040A0004148FCF709FF334BDB6A1846FEF7DEFB9D
:1040B0003E48FCF701FF2F4B1B6B1846FEF7D6FB63
:1040C0003B48FCF7F9FE2B4B5B6B1846FEF7CEFB2B
:1040D0003848FCF7F1FE274B9B6B1846FEF7C6FBF2
:1040E0003548FCF7E9FE234BDB6B1846FEF7BEFBB9
:1040F0003248FCF7E1FE1F4B1B6C1846FEF7B6FB7F
:104100002F48FCF7D9FE1B4B5B6C1846FEF7AEFB45
:104110002C48FCF7D1FE174B9B6C1846FEF7A6FB0C
:104120002948FCF7C9FE134BDB6C1846FEF79EFBD3
:104130002648FCF7C1FE0F4B1B6D1846FEF796FB99
:104140002348FCF7B9FE0B4B5B6D1846FEF78EFB60
:104150002048FCF7B1FE204B80225A616420FCF716
:104160006FFE1D4B80221A610837BD4680BD00BF1F
:104170004C2800208828002020280020281D00200E
:10418000B8B30008BCB30008C0B30008C4B300084B
:10419000C8B30008CCB30008D0B30008D4B30008FB
:1041A000D8B30008DCB30008E0B30008E8B30008A7
:1041B000F0B30008F8B3000800B4000808B4000821
:1041C00010B4000818B4000820B4000828B400088F
:1041D00030B4000838B400080010014080B582B047
:1041E00000AF0346FB71FB79012B2CD11748FCF77C
:1041F00063FE1748FCF760FE1648FCF75DFE1648A4
:10420000FCF75AFE0020FFF7B1FB1448FCF754FE00
:104210001348FCF751FE0D48FCF74EFE0B48FCF727
:104220004BFE0B48FCF748FE0E48FCF745FE01200C
:10423000FEF764FF0948FCF73FFE0B48FCF73CFE25
:104240000248FCF739FE0837BD4680BDA0A800082B
:1042500040B4000868B4000890B40008A8B400088E
:10426000B0B40008C0B40008D8B4000880B586B067
:1042700000AF244B7B610920012100F079F94FF454
:104280000010012100F092F91F4BC0221A801E4B32
:104290001C22DA701C4B01229A701C481A49FCF748
:1042A0004DF84FF40010012100F09EF94FF400107A
:1042B000002100F099F900233B814BF6FF737B81CD
:1042C0000023BB814FF48063FB814FF480433B822A
:1042D0007B697B603B1D0E48194600F0A3FF0C482C
:1042E000012101F061F80A48012101F07DF81F2049
:1042F000FCF78EF91F200121FCF7A2F91837BD4603
:1043000080BD00BFA086010030280020000C0140C5
:104310000054004080B500AFFCF7DEF9FCF734FB39
:10432000FCF774FCFCF73CFDFCF7D2FBFCF752FAFF
:10433000FCF748FEFFF79AFF1348FCF7BDFD134852
:10434000FCF7BAFD1048FCF7B7FD1148FCF7B4FDC7
:104350000E48FCF7B1FD0C48FCF7AEFD0020FEF75F
:1043600013F80C4B64221A600120FDF71DF80120A0
:10437000FFF734FFFDF7C2FEFCF776FDFDF706FF01
:10438000FDF79AFEF6E700BFA0A80008E8B4000811
:10439000F0B400088809002080B485B000AF7860D0
:1043A0000023FB60094B5B68FB60FB6823F4404320
:1043B000FB60FA687B681343FB60044BFA685A6041
:1043C0001437BD465DF8047B704700BF0010024003
:1043D00080B487B000AF786000237B6100233B612D
:1043E0000023FB600023BB604D4B5B6803F00C03B4
:1043F0007B617B69042B07D0082B09D0002B34D1BB
:104400007B68484A1A6034E07B68464A1A6030E0AC
:10441000434B5B6803F470133B61414B5B6803F4EF
:104420008033FB603B699B0C02333B61FB68002BD4
:1044300006D13B693C4A02FB03F27B681A6013E039
:10444000374B5B6803F40033002B06D03B69364AD8
:1044500002FB03F27B681A6006E03B69314A02FB0B
:1044600003F27B681A6004E003E07B682D4A1A605F
:1044700000BF2B4B5B6803F0F0037B617B691B097A
:104480007B612A4A7B6913441B78DBB2BB607B6883
:104490001A68BB68DA407B685A60214B5B6803F49A
:1044A000E0637B617B691B0A7B61204A7B69134463
:1044B0001B78DBB2BB607B685A68BB68DA407B68FC
:1044C0009A60174B5B6803F460537B617B69DB0A7E
:1044D0007B61164A7B6913441B78DBB2BB607B6847
:1044E0005A68BB68DA407B68DA600D4B5B6803F49E
:1044F00040437B617B699B0B7B610D4A7B69134465
:104500001B78DBB2BB607B68DA68BB68B2FBF3F296
:104510007B681A611C37BD465DF8047B704700BF9D
:104520000010024000127A0000093D00180000202F
:104530002800002080B483B000AF78600B46FB7089
:10454000FB78002B06D0094B084A51697A680A4368
:104550005A6106E0054B054A51697A68D2430A4020
:104560005A610C37BD465DF8047B7047001002406D
:1045700080B483B000AF78600B46FB70FB78002BF3
:1045800006D0094B084A91697A680A439A6106E0A5
:10459000054B054A91697A68D2430A409A610C3703
:1045A000BD465DF8047B70470010024080B483B0C4
:1045B00000AF78600B46FB70FB78002B06D0094BF0
:1045C000084AD1697A680A43DA6106E0054B054A70
:1045D000D1697A68D2430A40DA610C37BD465DF88A
:1045E000047B70470010024080B483B000AF786055
:1045F0000B46FB70FB78002B06D0094B084A11696B
:104600007A680A431A6106E0054B054A11697A681F
:10461000D2430A401A610C37BD465DF8047B7047EF
:104620000010024080B485B000AF78600023FB60CA
:10463000324BFB607B689B79002B4DD02F4B2F4A70
:1046400011687A681268D2430A401A602B4B2B4AD1
:1046500051687A681268D2430A405A607B681B79B5
:10466000FA681344FB60FB68FA6811687A6812689C
:104670000A431A60214B214A91687A681268D24332
:104680000A409A601D4B1D4AD1687A681268D2436D
:104690000A40DA607B685B79102B0ED1174B174A02
:1046A00091687A6812680A439A60144B134AD16879
:1046B0007A6812680A43DA601BE0104BFB607B6883
:1046C0005B79FA681344FB60FB68FA6811687A68E2
:1046D00012680A431A600CE07B681B79FA6813447D
:1046E000FB60FB68FA6811687A681268D2430A4076
:1046F0001A601437BD465DF8047B70470004014022
:1047000080B483B000AF7860034B7A685A610C378D
:10471000BD465DF8047B70470004014080B485B05D
:1047200000AF78600023FB730023BB600C4B1A685A
:104730007B681340BB600A4B5A697B681340002BAF
:1047400005D0BB68002B02D00123FB7301E00023DE
:10475000FB73FB7B18461437BD465DF8047B70473E
:104760000004014080B483B000AF7860034B7A68E6
:104770005A610C37BD465DF8047B70470004014068
:1047800080B485B000AF786039600023FB600023FF
:10479000FB727B685B68FB60FB6823F4702323F487
:1047A0008073FB603B681A683B681B791B021343EC
:1047B000FA681343FB607B68FA685A607B689B6801
:1047C000FB60FA68164B1340FB603B68DA683B6895
:1047D0009B681A433B685B795B001343FA68134399
:1047E000FB607B68FA689A607B68DB6AFB60FB6849
:1047F00023F47003FB603B681B7C013BDAB2FB7A5D
:104800001343FB72FB7A1B05FA681343FB607B685A
:10481000FA68DA621437BD465DF8047B704700BF62
:10482000FDF7F1FF80B483B000AF78600B46FB70FA
:10483000FB78002B06D07B689B6843F001027B6805
:104840009A6005E07B689B6823F001027B689A60B0
:104850000C37BD465DF8047B704700BF80B485B05F
:1048600000AF786013460A467A807B700023FB73A2
:104870007B88FB737B78002B06D07B685A68FB7BB8
:104880001A437B685A6006E07B685A68FB7BDB430F
:104890001A407B685A601437BD465DF8047B704748
:1048A00080B483B000AF78607B689B6843F00802F7
:1048B0007B689A600C37BD465DF8047B704700BF8B
:1048C00080B485B000AF78600023FB737B689B6881
:1048D00003F00803002B02D00123FB7301E0002347
:1048E000FB73FB7B18461437BD465DF8047B7047AD
:1048F00080B483B000AF78607B689B6843F00402AB
:104900007B689A600C37BD465DF8047B704700BF3A
:1049100080B485B000AF78600023FB737B689B6830
:1049200003F00403002B02D00123FB7301E00023FA
:10493000FB73FB7B18461437BD465DF8047B70475C
:1049400080B483B000AF78600B46FB70FB78002B1F
:1049500006D07B689B6843F4A0027B689A6005E000
:104960007B689B6823F4A0027B689A600C37BD4685
:104970005DF8047B704700BF80B483B000AF03468E
:10498000FB71FB79002B06D0084B084A926842F471
:1049900000029A6005E0054B044A926822F4000286
:1049A0009A600C37BD465DF8047B704700240140D7
:1049B00080B58CB000AF786039600023FB620023C3
:1049C000BB6200237B6200233B620023FB617B68A8
:1049D000FB617B681B8A9BB2FB62FA6A4CF6FF7331
:1049E0001340FB623B68DB88FA6A1343FB62FB6A95
:1049F0009AB27B681A827B689B899BB2FB62FA6AD7
:104A00004EF6F3131340FB623B689A883B681B89A0
:104A100013439AB23B685B8913439BB2FA6A134310
:104A2000FB62FB6A9AB27B689A817B689B8A9BB225
:104A3000FB62FA6A4FF6FF431340FB623B689B89B7
:104A4000FA6A1343FB62FB6A9AB27B689A8207F1A7
:104A500008031846FFF7BCFCFA69304B9A4202D1B2
:104A60007B69BB6201E03B69BB627B689B899BB24F
:104A70009BB21BB2002B0CDABA6A13469B0013449C
:104A80009A001A443B681B685B00B2FBF3F37B623D
:104A90000BE0BA6A13469B0013449A001A443B6821
:104AA0001B689B00B2FBF3F37B627A6A1C4BA3FB8F
:104AB00002135B091B01FB62FB6A1B09642202FBF8
:104AC00003F37A6AD31A3B627B689B899BB29BB2E1
:104AD0001BB2002B0DDA3B6ADB0003F13202104BF4
:104AE000A3FB02135B0903F00703FA6A1343FB629B
:104AF0000CE03B6A1B0103F13202094BA3FB0213DA
:104B00005B0903F00F03FA6A1343FB62FB6A9AB274
:104B10007B681A813037BD4680BD00BF0038014038
:104B20001F85EB5180B483B000AF78600B46FB70FB
:104B3000FB78002B08D07B689B899BB243F4005321
:104B40009AB27B689A8107E07B689B899BB223F4C9
:104B500000539AB27B689A810C37BD465DF8047B9E
:104B6000704700BF80B487B000AF786013460A4634
:104B70007A807B7000233B610023FB600023BB60D5
:104B800000237B617B687B617B88DBB25B09DBB2E6
:104B90003B617B8803F01F03FB60FB68012202FA84
:104BA00003F3BB603B69012B03D17B690C337B6151
:104BB00009E03B69022B03D17B6910337B6102E082
:104BC0007B6914337B617B78002B06D07B697A6923
:104BD0001168BA680A431A6006E07B697A6911684D
:104BE000BA68D2430A401A601C37BD465DF8047BA0
:104BF000704700BF80B483B000AF786013460A46A8
:104C00007A807B707B78002B08D07B689B8A9AB275
:104C10007B8813439AB27B689A8209E07B689B8AFF
:104C20009AB27B88DB439BB213409AB27B689A822C
:104C30000C37BD465DF8047B704700BF80B483B07D
:104C400000AF78600B467B807B88DB439AB27B6841
:104C50001A800C37BD465DF8047B704780B487B07E
:104C600000AF78600B467B800023FB6000237B61F4
:104C70000023BB600023FB747B88DBB25B09DBB2E3
:104C8000BB607B8803F01F037B617B69012202FA12
:104C900003F37B61BB68012B06D17B689B899BB2C8
:104CA0007A6913407B610FE0BB68022B06D17B68F9
:104CB0001B8A9BB27A6913407B6105E07B689B8A03
:104CC0009BB27A6913407B617B881B0A9BB2FB60B5
:104CD000FB68012202FA03F3FB607B681B889BB22E
:104CE000FA681340FB607B69002B05D0FB68002B42
:104CF00002D00123FB7401E00023FB74FB7C184607
:104D00001C37BD465DF8047B704700BF80B485B09A
:104D100000AF78600B467B800023FB810023BB81C2
:104D20007B881B0AFB81FB89012202FA03F3BB810A
:104D3000BB89DB439AB27B681A801437BD465DF8A5
:104D4000047B704780B485B000AF78600B4B1B6864
:104D5000002B02D1094B0A4A1A60084B1B68FB6002
:104D6000064B1A687B681A44044B1A60FB681846A5
:104D70001437BD465DF8047B704700BF98090020DA
:104D80001029002080B483B000AF78607B681A6877
:104D90004FF6FE7313407A6813607B6800221A6036
:104DA0007B6800225A607B6800229A607B68002240
:104DB000DA607A68434B9A4206D1434B424A5268C2
:104DC00042F00F025A6077E07A68404B9A4206D16F
:104DD0003D4B3D4A526842F0F0025A606CE07A68FE
:104DE0003B4B9A4206D1384B374A526842F47062C4
:104DF0005A6061E07A68374B9A4206D1324B324AA8
:104E0000526842F470425A6056E07A68324B9A42D5
:104E100006D12D4B2C4A526842F470225A604BE066
:104E20007A682E4B9A4206D1274B274A526842F4A1
:104E300070025A6040E07A68294B9A4206D1224BB0
:104E4000214A526842F070625A6035E07A68254B18
:104E50009A4206D1244B244A526842F00F025A600B
:104E60002AE07A68214B9A4206D11F4B1E4A5268AB
:104E700042F0F0025A601FE07A681D4B9A4206D158
:104E8000194B194A526842F470625A6014E07A6809
:104E9000184B9A4206D1144B134A526842F470429E
:104EA0005A6009E07A68144B9A4205D10E4B0E4ABB
:104EB000526842F470225A600C37BD465DF8047B9C
:104EC000704700BF08000240000002401C00024082
:104ED0003000024044000240580002406C00024092
:104EE0008000024008040240000402401C0402400A
:104EF00030040240440402405804024080B485B0AB
:104F000000AF786039600023FB607B681B68FB6042
:104F1000FB6823F4FF4323F07003FB603B689A684F
:104F20003B681B6A1A433B681B691A433B685B6911
:104F30001A433B689B691A433B68DB691A433B6829
:104F40005B6A1A433B689B6A1343FA681343FB602E
:104F50007B68FA681A603B68DA687B685A603B686D
:104F60001A687B689A603B685A687B68DA60143715
:104F7000BD465DF8047B704780B483B000AF7860B5
:104F80000B46FB70FB78002B06D07B681B6843F058
:104F900001027B681A6006E07B681A684FF6FE73B0
:104FA00013407A6813600C37BD465DF8047B704788
:104FB00080B485B000AFF860B9601346FB71FB792F
:104FC000002B06D0FB681A68BB681A43FB681A609E
:104FD00006E0FB681A68BB68DB431A40FB681A608E
:104FE0001437BD465DF8047B704700BF80B485B0C0
:104FF00000AF78600023FB730023BB607B6803F085
:105000008053002B03D00C4B1B68BB6002E00B4BA2
:105010001B68BB60BA687B681340002B02D0012379
:10502000FB7301E00023FB73FB7B18461437BD467E
:105030005DF8047B704700BF00040240000002409E
:1050400080B483B000AF78607B6803F08053002B9E
:1050500003D0064B7A685A6002E0054B7A685A60C2
:105060000C37BD465DF8047B704700BF000402406A
:105070000000024080B483B000AF78607B6803F02A
:105080008053002B03D0064B7A685A6002E0054B30
:105090007A685A600C37BD465DF8047B704700BFE4
:1050A000000402400000024080B485B000AF786088
:1050B00039600023FB817B681B88FB81FB8903F43B
:1050C0004153FB813B681A883B685B8813439AB263
:1050D0003B689B8813439AB23B68DB8813439AB2C0
:1050E0003B681B8913439AB23B685B8913439AB2AE
:1050F0003B689B8913439AB23B68DB8913439AB29E
:10510000FB891343FB817B68FA891A807B689B8B40
:105110009BB223F400639AB27B689A833B681A8A35
:105120007B681A821437BD465DF8047B704700BF68
:1051300080B483B000AF78600B46FB70FB78002B27
:1051400008D07B681B889BB243F040039AB27B680F
:105150001A8007E07B681B889BB223F040039AB259
:105160007B681A800C37BD465DF8047B704700BF32
:1051700080B483B000AF78600B467B807B687A8810
:105180009A810C37BD465DF8047B704780B483B0CC
:1051900000AF78607B689B899BB218460C37BD4690
:1051A0005DF8047B704700BF80B483B000AF7860C7
:1051B0000B467B807A884FF6FF639A4208D07B6863
:1051C0001B889BB243F480739AB27B681A8007E015
:1051D0007B681B889BB223F480739AB27B681A8029
:1051E0000C37BD465DF8047B704700BF80B485B0C6
:1051F00000AF78600B467B800023FB737B681B89C4
:105200009AB27B8813409BB2002B02D00123FB7320
:1052100001E00023FB73FB7B18461437BD465DF8A5
:10522000047B704780B58AB000AF78603960002396
:10523000FB8400237B840423BB84574BFB617B6886
:105240009B88FB84FB8C23F03F03FB8407F108035E
:105250001846FFF7BDF83B69FB61FA694F4BA3FBAA
:1052600002139B0C7B84FA8C7B8C1343FB847B683E
:10527000FA8C9A807B681B889BB223F001039AB258
:105280007B681A800023FB843B681A68444B9A426F
:1052900015D83B681B685B00FA69B2FBF3F3BB846B
:1052A000BB8C032B01D80423BB84FA8CBB8C134327
:1052B000FB847B8C01339AB27B681A8440E03B68A4
:1052C000DA884BF6FF739A4209D13B681A68134695
:1052D0005B001344FA69B2FBF3F3BB840EE03B6856
:1052E0001A6813469B0013449A001344FA69B2FBF0
:1052F000F3F3BB84BB8C43F48043BB84BB8CC3F30C
:105300000B03002B03D1BB8C43F00103BB84BA8C8D
:10531000FB8C13439BB26FEA43436FEA5343FB8416
:105320007B8C4FF4967202FB03F31E4A82FB03123E
:105330009211DB17D31A9BB201339AB27B681A849D
:105340007B68FA8C9A837B681B889BB243F00103CD
:105350009AB27B681A807B681B88FB84FB8C23F4E1
:10536000816323F00203FB843B689A883B685B8976
:1053700013439AB2FB8C1343FB847B68FA8C1A802C
:105380003B689A893B681B8913439AB27B681A81F0
:105390002837BD4680BD00BF00127A0083DE1B4364
:1053A000A0860100D34D621080B483B000AF786056
:1053B0000B46FB70FB78002B08D07B681B889BB2E8
:1053C00043F001039AB27B681A8007E07B681B8870
:1053D0009BB223F001039AB27B681A800C37BD465A
:1053E0005DF8047B704700BF80B483B000AF786085
:1053F0000B46FB70FB78002B08D07B681B889BB2A8
:1054000043F480639AB27B681A8007E07B681B884C
:105410009BB223F480639AB27B681A800C37BD4636
:105420005DF8047B704700BF81F0004102E000BFDF
:1054300083F0004330B54FEA41044FEA430594EA54
:10544000050F08BF90EA020F1FBF54EA000C55EA8F
:10545000020C7FEA645C7FEA655C00F0E2804FEA60
:105460005454D4EB5555B8BF6D420CDD2C4480EA42
:10547000020281EA030382EA000083EA010180EA72
:10548000020281EA0303362D88BF30BD11F0004FC0
:105490004FEA01314FF4801C4CEA113102D04042F6
:1054A00061EB410113F0004F4FEA03334CEA133331
:1054B00002D0524263EB430394EA050F00F0A78049
:1054C000A4F10104D5F1200E0DDB02FA0EFC22FA44
:1054D00005F2801841F1000103FA0EF2801843FA38
:1054E00005F359410EE0A5F120050EF1200E012A29
:1054F00003FA0EFC28BF4CF0020C43FA05F3C01867
:1055000051EBE37101F0004507D54FF0000EDCF1DF
:10551000000C7EEB00006EEB0101B1F5801F1BD388
:10552000B1F5001F0CD349085FEA30004FEA3C0C8C
:1055300004F101044FEA445212F5800F80F09A8082
:10554000BCF1004F08BF5FEA500C50F1000041EB86
:10555000045141EA050130BD5FEA4C0C404141EB8A
:10556000010111F4801FA4F10104E9D191F0000FB1
:1055700004BF01460020B1FA81F308BF2033A3F134
:105580000B03B3F120020CDA0C3208DD02F1140C2B
:10559000C2F10C0201FA0CF021FA02F10CE002F166
:1055A0001402D8BFC2F1200C01FA02F120FA0CFC5F
:1055B000DCBF41EA0C019040E41AA2BF01EB0451A8
:1055C000294330BD6FEA04041F3C1CDA0C340EDCA6
:1055D00004F11404C4F1200220FA04F001FA02F3E9
:1055E00040EA030021FA04F345EA030130BDC4F1A7
:1055F0000C04C4F1200220FA02F001FA04F340EA9C
:105600000300294630BD21FA04F0294630BD94F04C
:10561000000F83F4801306BF81F480110134013D33
:105620004EE77FEA645C18BF7FEA655C29D094EAA4
:10563000050F08BF90EA020F05D054EA000C04BF22
:105640001946104630BD91EA030F1EBF002100200D
:1056500030BD5FEA545C05D14000494128BF41F0AC
:10566000004130BD14F580043CBF01F5801130BD10
:1056700001F0004545F0FE4141F470014FF000009B
:1056800030BD7FEA645C1ABF194610467FEA655C4C
:105690001CBF0B46024650EA013406BF52EA0335EE
:1056A00091EA030F41F4002130BD00BF90F0000FDC
:1056B00004BF0021704730B54FF4806404F1320418
:1056C0004FF000054FF0000150E700BF90F0000FD1
:1056D00004BF0021704730B54FF4806404F13204F8
:1056E00010F0004548BF40424FF000013EE700BFC8
:1056F00042004FEAE2014FEA31014FEA02701FBF58
:1057000012F07F4393F07F4F81F06051704792F029
:10571000000F14BF93F07F4F704730B54FF46074A3
:1057200001F0004521F0004120E700BF50EA0102EE
:1057300008BF704730B54FF000050AE050EA01029B
:1057400008BF704730B511F0004502D5404261EB0B
:1057500041014FF4806404F132045FEA915C3FF44C
:10576000DCAE4FF003025FEADC0C18BF03325FEAE5
:10577000DC0C18BF033202EBDC02C2F1200300FA9A
:1057800003FC20FA02F001FA03FE40EA0E0021FABF
:1057900002F11444C1E600BF70B54FF0FF0C4CF4A9
:1057A000E06C1CEA11541DBF1CEA135594EA0C0F5F
:1057B00095EA0C0F00F0DEF82C4481EA030621EA9A
:1057C0004C5123EA4C5350EA013518BF52EA0335D5
:1057D00041F4801143F4801338D0A0FB02CE4FF087
:1057E0000005E1FB02E506F00042E0FB03E54FF0B7
:1057F0000006E1FB03569CF0000F18BF4EF0010EAF
:10580000A4F1FF04B6F5007F64F5407404D25FEAAA
:105810004E0E6D4146EB060642EAC62141EA55515D
:105820004FEAC52040EA5E504FEACE2EB4F1FD0C9F
:1058300088BFBCF5E06F1ED8BEF1004F08BF5FEA1D
:10584000500E50F1000041EB045170BD06F00046CF
:1058500046EA010140EA020081EA0301B4EB5C047C
:10586000C2BFD4EB0C0541EA045170BD41F4801174
:105870004FF0000E013C00F3AB8014F1360FDEBF99
:10588000002001F0004170BDC4F10004203C35DA75
:105890000C341BDC04F11404C4F1200500FA05F3F8
:1058A00020FA04F001FA05F240EA020001F0004299
:1058B00021F0004110EBD37021FA04F642EB06010F
:1058C0005EEA430E08BF20EAD37070BDC4F10C0439
:1058D000C4F1200500FA04F320FA05F001FA04F2FD
:1058E00040EA020001F0004110EBD37041F10001E9
:1058F0005EEA430E08BF20EAD37070BDC4F12005F4
:1059000000FA05F24EEA020E20FA04F301FA05F25B
:1059100043EA020321FA04F001F0004121FA04F203
:1059200020EA020000EBD3705EEA430E08BF20EAD3
:10593000D37070BD94F0000F0FD101F0004640000D
:1059400041EB010111F4801F08BF013CF7D041EA8F
:10595000060195F0000F18BF704703F00046520093
:1059600043EB030313F4801F08BF013DF7D043EA64
:105970000603704794EA0C0F0CEA135518BF95EA1A
:105980000C0F0CD050EA410618BF52EA4306D1D1A1
:1059900081EA030101F000414FF0000070BD50EAC0
:1059A000410606BF1046194652EA430619D094EA4A
:1059B0000C0F02D150EA013613D195EA0C0F05D134
:1059C00052EA03361CBF104619460AD181EA030188
:1059D00001F0004141F0FE4141F470014FF0000040
:1059E00070BD41F0FE4141F4780170BD70B54FF0DB
:1059F000FF0C4CF4E06C1CEA11541DBF1CEA13555B
:105A000094EA0C0F95EA0C0F00F0A7F8A4EB05043C
:105A100081EA030E52EA03354FEA013100F0888033
:105A20004FEA03334FF0805545EA131343EA1263FC
:105A30004FEA022245EA111545EA10654FEA0026B1
:105A40000EF000419D4208BF964244F1FD0404F56A
:105A5000407402D25B084FEA3202B61A65EB0305C6
:105A60005B084FEA32024FF480104FF4002CB6EB83
:105A7000020E75EB030E22BFB61A754640EA0C0003
:105A80005B084FEA3202B6EB020E75EB030E22BF43
:105A9000B61A754640EA5C005B084FEA3202B6EB84
:105AA000020E75EB030E22BFB61A754640EA9C0043
:105AB0005B084FEA3202B6EB020E75EB030E22BF13
:105AC000B61A754640EADC0055EA060E18D04FEAD1
:105AD000051545EA16754FEA06164FEAC30343EA71
