:020000040800F2
:10000000103D0020D5020008350300083503000824
:100010003503000835030008350300080000000020
:100020000000000000000000000000003503000890
:100030003503000800000000350300082D07000804
:1000400035030008350300083503000835030008B0
:1000500035030008350300083503000835030008A0
:1000600035030008350800081508000835030008A6
:1000700035030008350300084D0D0008350300085E
:100080003503000835030008990B00083503000804
:10009000350300083503000835030008550800083B
:1000A0003503000835030008350300083503000850
:1000B0003503000835030008350300083503000840
:1000C00035030008350300083503000861100008F7
:1000D00035030008D9100008451100083503000851
:1000E000E10800083503000835030008000000009F
:1000F0000000000000000000000000000000000000
:1001000000000000000000005FF808F110B5054C89
:10011000237833B9044B13B10448AFF300800123B3
:10012000237010BDB80800200000000098BD000832
:1001300008B5064B1BB106480649AFF300800648D8
:10014000036813B1054B03B1984708BD00000000D8
:1001500098BD0008BC080020B40800200000000082
:1001600080B500AF154B154A126842F001021A60C3
:10017000124A124B5968124B0B4053600F4A0F4BF7
:100180001B6823F0847323F4803313600B4B0B4AFA
:10019000126822F480221A60084B084A526822F43E
:1001A000FE025A60054B4FF41F029A6000F00CF8F3
:1001B000044B4FF000629A6080BD00BF0010024007
:1001C0000000FFF800ED00E080B500AF00F002F89D
:1001D00080BD00BF80B483B000AF00237B600023EC
:1001E0003B603A4B394A126842F480321A60374B0E
:1001F0001B6803F400333B607B6801337B603B6822
:10020000002B03D17B68B3F5A06FF0D12F4B1B6897
:1002100003F40033002B02D001233B6001E00023F4
:100220003B603B68012B4BD1294B294A126842F0B5
:1002300010021A60264B264A126822F003021A6046
:10024000234B234A126842F002021A601F4B1F4AD6
:1002500052685A601D4B1D4A52685A601B4B1B4A1C
:10026000526842F480625A60184B184A526822F46D
:100270007C125A60154B154A526842F4E8125A60D3
:10028000124B124A126842F080721A6000BF0F4B84
:100290001B6803F00073002BF9D00C4B0B4A52681B
:1002A00022F003025A60094B084A526842F00202E7
:1002B0005A6000BF054B5B6803F00C03082BF9D1B3
:1002C0000C37BD465DF8047B704700BF001002404C
:1002D0000020024080B582B000AF114B7B60114B13
:1002E0003B6007E03B681A1D3A607A68111D79602F
:1002F00012681A603A680C4B9A42F3D30B480C49C7
:100300004FF000028842B8BF40F8042BFFF6FAAF66
:10031000FFF726FF04F0E4FA0837BD4680BD00BFB2
:10032000A0BD000800000020B8080020B808002088
:100330001029002080B400AFFEE700BF80B489B070
:1003400000AF786039600023FB6100233B6100232C
:10035000BB610023FB6000237B610023BB603B6823
:10036000DB7803F00F03FB613B68DB7803F01003DD
:10037000002B04D03B689B78FA691343FB613B6810
:100380001B88DBB2002B44D07B681B687B61002399
:10039000BB6138E0BB69012202FA03F3FB603B68F2
:1003A0001B881A46FB6813403B613A69FB689A4216
:1003B00026D1BB699B00FB60FB680F2202FA03F3A6
:1003C000BB60BB68DB437A6913407B61FB68FA69F9
:1003D00002FA03F37A6913437B613B68DB78282BCD
:1003E00005D1BB6901229A407B685A6108E03B68ED
:1003F000DB78482B04D1BB6901229A407B681A61E3
:10040000BB690133BB61BB69072BC3D97B687A69C0
:100410001A603B681B88FF2B46D97B685B687B6151
:100420000023BB613AE0BB690833012202FA03F3FF
:10043000FB603B681B881A46FB6813403B613A69C6
:10044000FB689A4227D1BB699B00FB60FB680F22C7
:1004500002FA03F3BB60BB68DB437A6913407B613C
:10046000FB68FA6902FA03F37A6913437B613B681C
:10047000DB78282B05D1BB69083301229A407B68C1
:100480005A613B68DB78482B05D1BB6908330122F0
:100490009A407B681A61BB690133BB61BB69072B5A
:1004A000C1D97B687A695A602437BD465DF8047B00
:1004B000704700BF80B487B000AF78600B46FB7018
:1004C00000233B610023FB6000237B610023BB60B2
:1004D0007B68002B03DA2E4BDB697B6102E02C4B3F
:1004E0005B687B617B6803F470231B0CBB607B68DB
:1004F0009BB23B617B6803F44013B3F5401F0AD104
:100500007B6923F070637B61214B214A526822F0A2
:1005100070625A6021E07B6803F48013002B0ED0D8
:10052000BB68032202FA03F3FB60FB68DB437A69D2
:1005300013407B617B6943F070637B610DE07B68F6
:100540005B0D1B013A6902FA03F3DB437A6913403E
:100550007B617B6943F070637B61FB78002B08D083
:100560007B685B0D1B013A6902FA03F37A69134356
:100570007B617B68002B03DA054B7A69DA6102E064
:10058000034B7A695A601C37BD465DF8047B70479F
:100590000000014090B484B000AF02460B46FA71EF
:1005A000BB710023FB60BB7903F003039B000F22A8
:1005B00002FA03F3FB60154BBA799208D2B21349E1
:1005C000B8798008C0B2023051F82000F968C943F8
:1005D0000140023243F822100C4BBA799208D2B291
:1005E0000A49B8798008C0B2023051F82000FC797D
:1005F000B97901F00301890004FA01F101430232E3
:1006000043F822101037BD4690BC704700000140EF
:1006100080B483B000AF0346FB71084B97F9072005
:100620005209F97901F01F01012000FA01F143F8A4
:1006300022100C37BD465DF8047B704700E100E0F6
:1006400080B483B000AF03463960FB7197F907307F
:10065000002B0BDA0D49FB7903F00F03043B3A68DA
:10066000D2B21201D2B20B441A7609E0084997F9C6
:1006700007303A68D2B21201D2B20B4483F8002399
:100680000C37BD465DF8047B704700BF00ED00E00D
:1006900000E100E080B582B000AF78607B68B3F124
:1006A000807F01D3012311E00A4B7A6822F07F4258
:1006B000013A5A604FF0FF300F21FFF7C1FF054BA1
:1006C00000229A60034B07221A600023184608375D
:1006D000BD4680BD10E000E080B500AF44F67D006F
:1006E000012104F031FA054B1A68054BA3FB0213F4
:1006F0009B091846FFF7CEFF80BD00BF0000002019
:10070000D34D621080B483B000AF78607A68064B36
:100710001A6000BF044B1B68002BFBD10C37BD4691
:100720005DF8047B704700BF940C002080B400AFDC
:100730001F4B1B68002B04D01D4B1B685A1E1C4B03
:100740001A601C4B1B685A1C1A4B1A601A4B1B6808
:100750005A1C194B1A60194B1B780133DAB2174B2C
:100760001A70174B1B685A1C154B1A60154B1B88C7
:10077000002B05D0134B1B88013B9AB2114B1A80FA
:10078000114B1B68B3F5FA7F04DA0F4B1B685A1C38
:100790000D4B1A600D4B1B78012B05D10C4B1B78B0
:1007A0000133DAB20A4B1A70BD465DF8047B70471C
:1007B000940C0020D408002048090020540900208F
:1007C00050090020800900204009002069280020ED
:1007D0006728002080B500AF01200521FFF7DAFE71
:1007E0000B4B00221A710A4B08225A71084B202227
:1007F0001A60074B01229A71054804F0FFF917208F
:100800000121FFF71DFF1720FFF702FF80BD00BF8A
:100810007028002080B500AF102004F06BFA03466A
:10082000002B05D0102004F057FA102004F086FAAF
:1008300080BD00BF80B500AF082004F05BFA03461E
:10084000002B05D0082004F047FA082004F076FABF
:1008500080BD00BF80B500AF202004F04BFA0346F6
:10086000002B05D0202004F037FA202004F066FA8F
:10087000402004F03FFA0346002B05D0402004F04E
:100880002BFA402004F05AFA802004F033FA034691
:10089000002B05D0802004F01FFA802004F04EFACF
:1008A0004FF4807004F026FA0346002B07D04FF473
:1008B000807004F011FA4FF4807004F03FFA4FF4A6
:1008C000007004F017FA0346002B07D04FF40070B5
:1008D00004F002FA4FF4007004F030FA80BD00BF5B
:1008E00080B500AF4FF4006004F004FA0346002B1B
:1008F00003D04FF4006004F021FA4FF4806004F05C
:10090000F9F90346002B03D04FF4806004F016FA87
:100910004FF4805004F0EEF90346002B03D04FF45F
:10092000805004F00BFA4FF4005004F0E3F9034652
:10093000002B06D04FF4005004F000FA0F4B0122B8
:100940001A704FF4804004F0D5F90346002B06D00E
:100950004FF4804004F0F2F9094B01221A704FF471
:10096000004004F0C7F90346002B06D04FF40040C6
:1009700004F0E4F9034B01221A7080BD41280020E5
:10098000CC0C00206828002080B500AF4848012129
:10099000FFF790FD474B474A526842F000725A6099
:1009A000454B4FF410621A80434B1022DA70424BD1
:1009B00003229A7041484049FFF7C0FC3E4B102289
:1009C0001A803D4B4822DA703B4B03229A703B4819
:1009D0003949FFF7B3FC384B4FF480721A80364B1D
:1009E0001022DA70344B03229A7035483249FFF7EF
:1009F000A5FC314B20221A802F4B4822DA702E4B57
:100A000003229A702E482C49FFF798FC2A4B882223
:100A10001A80294B1022DA70274B03229A7029483A
:100A20002549FFF78BFC244B4FF440721A80224B70
:100A30004822DA70204B03229A7022481E49FFF7A1
:100A40007DFC1D4B4FF68C421A801B4B1022DA7036
:100A5000194B03229A701C481749FFF76FFC164B7D
:100A600060221A80144B4822DA70134B03229A70CA
:100A700015481149FFF762FC0F4B7E221A800E4B7E
:100A80001022DA700C4B03229A7010480A49FFF7C3
:100A900055FC094B4FF680721A80074B4822DA70DA
:100AA000054B03229A7009480349FFF747FC80BDB4
:100AB0000004300000000140302800200008014000
:100AC000000C0140001001400014014000180140DA
:100AD00080B500AF4FF4804003F04AFF4FF4007040
:100AE000012104F031F80420012104F02DF8264BF7
:100AF00030221A80244B0022DA70234B03229A7092
:100B000022482149FFF71AFC214B00221A60204B92
:100B100000221A711E4B00225A711D4B4FF46022A5
:100B20009A601B4B0022DA60194B01221A74194893
:100B3000174904F011F9012004F00AFA15484FF49E
:100B40000871012204F076F91220FFF761FD1148C7
:100B5000012104F053F90F4804F08EF900BF0D484D
:100B600004F09AF90346002BF9D10A4804F0ACF9D5
:100B700000BF084804F0B8F90346002BF9D1054836
:100B8000012104F0C9F980BD302800200010014087
:100B9000301D00200024014080B400AF084B084AFB
:100BA000126822F002021A60054BDA6C054B1A60DB
:100BB000054B01221A70BD465DF8047B704700BFEB
:100BC00000240140680900206409002080B582B03B
:100BD00000AF78600A4B7A685A630A4B00221A7099
:100BE0000748012104F098F900BF064B1B78012B40
:100BF000FBD1054B1B6818460837BD4680BD00BFBA
:100C000000240140640900206809002080B500AF7D
:100C1000264B4FF400721A80244B03229A70234B08
:100C20001822DA7022482149FFF788FB1F4B4FF446
:100C300080621A801D4B03229A701C4B0422DA70CA
:100C40001B481A49FFF77AFB4FF48040012103F05B
:100C50007BFF184B4FF4E1321A60164B00229A804A
:100C6000144B0022DA80134B00221A81114B0C2204
:100C70005A81104B00229A8125200F21FFF7E0FCBA
:100C80002520FFF7C5FC0C4840F22551012204F055
:100C900055FA0948012104F031FA0748054904F0E2
:100CA00073F90120012103F031FF80BD30280020BD
:100CB00000080140101D00200038014080B58EB0B2
:100CC00000AF78600B467B801D4804F047FB1D4B4E
:100CD000FB607B683B6110237B617B88BB610023E9
:100CE000FB6180233B6200237B620023BB62002305
:100CF000FB6200233B6300237B6307F10C03104876
:100D0000194604F0E7FB0E200E21FFF799FC0E2098
:100D1000FFF77EFC0A480221012204F035FC0A4854
:100D2000C02104F077FA08488021012204F04EFA2D
:100D30000348012104F00CFC3837BD4680BD00BFDC
:100D400044000240043801400038014080B500AF43
:100D50004FF4005004F036FC0346002B14D00C482E
:100D6000002104F0F5FB4FF4005004F055FC4FF463
:100D7000005004F06BFC0748002104F0E9FB064832
:100D8000C021002204F022FA044B00221A7080BD18
:100D90005800024044000240003801408C09002005
:100DA00080B500AF214B04221A80204B03229A7099
:100DB0001E4B1822DA701E481C49FFF7BFFA1B4B66
:100DC00008221A80194B03229A70184B0422DA70F9
:100DD00017481649FFF7B2FA4FF40030012103F02B
:100DE000D1FE144B144A1A60124B00229A80114B08
:100DF0000022DA800F4B00221A810E4B0C225A81FE
:100E00000C4B00229A812620FFF702FC0B4840F28F
:100E10002551012204F092F90848012104F06EF9ED
:100E20000648044904F0B0F880BD00BF3028002017
:100E300000080140BC0C0020688909000044004003
:100E400080B485B000AF0346FB800023FB6002E066
:100E5000FB680133FB60FA88FB689A42F8DC1437C0
:100E6000BD465DF8047B704780B584B000AF0023B9
:100E7000FB600023FB720D4B1B78DBB2002B12D101
:100E80000B4B1B68012B0ED9094B1B687B607B68E1
:100E90009BB208481946FFF711FF054B00221A6064
:100EA000024B01221A701037BD4680BD8C0900200C
:100EB000AC0C0020000D002080B584B000AF78603D
:100EC0000023BB810023FB811A4B1B78DBB2002B74
:100ED0002DD1786805F0C4FE0346BB81BA89164B54
:100EE0001B681A4440F6FB739A4202D9124B002247
:100EF0001A60114B1B68FB810CE0FB89F9890E4AD3
:100F000012688A1A79680A4411780C4AD154FB890C
:100F10000133FB81FA89B989074B1B680B449A425C
:100F2000EBD3BA89044B1B681A44034B1A60103781
:100F3000BD4680BD8C090020AC0C0020000D0020B7
:100F400080B485B000AF78600B46FB701A4B1B78FD
:100F5000DBB2002B2AD1FB78BB81BA89174B1B6807
:100F60001A4440F6FB739A4202D9144B00221A60CD
:100F7000124B1B68FB810CE0FB89F9890F4A126850
:100F80008A1A79680A4411780D4AD154FB890133D1
:100F9000FB81FA89B989094B1B680B449A42EBD350
:100FA000BA89064B1B681A44044B1A601437BD46B5
:100FB0005DF8047B704700BF8C090020AC0C00205A
:100FC000000D002080B586B000AF0920012103F09C
:100FD000BBFD4FF48040012103F0D4FD4FF42043CA
:100FE000BB821823FB750323BB7507F114031A4852
:100FF0001946FFF7A3F94FF48043BB821C23FB750E
:101000000323BB7507F1140313481946FFF796F93C
:1010100000233B804FF482737B800023BB8000233E
:10102000FB8000233B814FF400737B812023BB8135
:101030000023FB813B460948194604F021FB074881
:10104000012104F061FB05484FF4807104F098FB26
:101050001837BD4680BD00BF000C0140003800407D
:1010600080B582B000AF0748012104F0ABFB034616
:10107000012B03D1034B9B899BB2FB710837BD4603
:1010800080BD00BF0030014080B584B000AF034692
:10109000FB71FB799BB20F48194604F055FB00BF6A
:1010A0000C48022104F08EFB0346002BF8D000BF51
:1010B0000848012104F086FB0346002BF8D00548C0
:1010C00004F050FB0346FB73FB7B18461037BD460C
:1010D00080BD00BF0038004080B582B000AF154829
:1010E00040F2255104F0A6F80346002B04D0114825
:1010F00040F2255104F0F6F80E4B9B889BB2FB7131
:101100000D4B1B785A1CD1B20B4A11700B4AF9795E
:10111000D1540B4B1B780133DAB2094B1A70054BD3
:101120001B889BB2BB71034B9B889BB2BB7108377A
:10113000BD4680BD003801403F280020900B0020B4
:101140001D27002080B582B000AF154840F2255120
:1011500004F070F80346002B04D0114840F22551EA
:1011600004F0C0F80E4B9B889BB2FB710D4B1B78B3
:101170005A1CD1B20B4A11700B4AF979D1540B4B5E
:101180001B780133DAB2094B1A70054B1B889BB2EE
:10119000BB71034B9B889BB2BB710837BD4680BDBA
:1011A00000440040201D002014200020B40C00202A
:1011B00080B485B000AF78600023FB7302E0FB7B56
:1011C0000133FB73FB7B7A6813441B78002B02D03E
:1011D000FB7B772BF3D9FB7B18461437BD465DF8B4
:1011E000047B704780B483B000AF00BF0C4B1B780A
:1011F000002BFBD00B4B1B785A1CD1B2094A117043
:10120000094AD35CFB71064B1B78013BDAB2044BF5
:101210001A70FB7918460C37BD465DF8047B7047A1
:101220001D27002000200020900B002080B586B0F4
:1012300000AF786000237B61786805F011FD0346FC
:10124000013B3B6117E07B697A6813441B78FB73B1
:101250007B697A6813443A6979680A4412781A708B
:101260003B697A681344FA7B1A707B6901337B61AE
:101270003B69013B3B617A693B699A42E3DB183782
:10128000BD4680BD80B584B000AF786039607B68B2
:10129000BB60BB68002B02DA7B685B427B6000238B
:1012A000FB60FB685A1CFA603A68D0187968174BE3
:1012B00083FB01239A10CB17D21A13469B001344C9
:1012C0005B00CA1AD3B23033DBB203707B680F4ABB
:1012D00082FB03129210DB17D31A7B607B68002B12
:1012E000DFDCBB68002B06DAFB685A1CFA603A6840
:1012F00013442D221A70FB683A68134400221A70B6
:101300003868FFF793FF1037BD4680BD6766666695
:1013100080B582B000AF786039607868FFF7CCFDA7
:101320003B6818460549FFF7ADFF0448FFF7C4FDC9
:101330000348FFF7C1FD0837BD4680BDE028002007
:1013400078AE000880B582B000AF78603960786808
:10135000FFF7B2FD3B6818460449FFF793FF0348C7
:10136000FFF7AAFD0837BD4680BD00BFE02800207A
:1013700080B582B000AF786039607868FFF79CFD77
:10138000064807493A6805F027FB0448FFF794FD33
:101390000448FFF791FD0837BD4680BDE0280020D6
:1013A0007CAE000878AE000890B585B000AF03466B
:1013B000FB71974B974A5A62954B974A9A62944BA6
:1013C000964ADA62924B964A1A63914B954A5A634F
:1013D0008F4B954ADA638E4B944A1A668C4B944A2B
:1013E000C3F8A4208A4B934AC3F81821884B4FF0C6
:1013F0000002C3F80822864B8F4AC3F89823844B17
:101400004FF08242C3F828250023FB8115E0FB89B9
:10141000A3F1090213465B0013445B00A3F51673A6
:10142000184605F071F80346BB60FA89784BB96835
:1014300043F82210FB890133FB81FB89082BE6D995
:101440000923FB8126E0FB89093B184604F02AFCAE
:1014500002460B461046194663A3D3E9002304F065
:1014600087FC02460B46104619464FF00002734BAC
:1014700004F0CAFA02460B461046194604F03AFF39
:101480000346BB60FA89624BB96843F82210FB89B6
:101490000133FB81FB890F2BD5D90F23FB8113E08F
:1014A000FB89A3F10F0213469B001344C83B184667
:1014B00005F02AF80346BB60FA89554BB96843F832
:1014C0002210FB890133FB81FB89182BE8D91823F3
:1014D000FB8126E0FB89183B184604F0E3FB02463B
:1014E0000B461046194642A3D3E9002304F040FC02
:1014F00002460B46104619463FA3D3E9002304F0E9
:1015000083FA02460B461046194604F0F3FE0346E2
:10151000BB60FA893E4BB96843F82210FB8901335E
:10152000FB81FB89292BD5D92923FB8126E0FB8967
:10153000293B184604F0B6FB02460B4610461946F6
:101540002FA3D3E9002304F013FC02460B461046F8
:1015500019464FF000023A4B04F056FA02460B4689
:101560001046194604F0C6FE0346BB60FA89284BB4
:10157000B96843F82210FB890133FB81FB89462BB4
:10158000D5D94623FB8126E0FB89463B184604F06B
:1015900089FB02460B46104619461BA3D3E90023DC
:1015A00004F0E6FB02460B46104619464FF00002D7
:1015B000244B04F029FA02460B461046194604F063
:1015C00099FE0346BB60FA89114BB96843F82210B3
:1015D000FB890133FB81FB89822BD5D98223FB81D7
:1015E0005AE000BFAFF300809A99999999992040E9
:1015F0009A999999999905400000000000C06240AD
:10160000333333333333FB3F8FC2F5285C8FEA3FEC
:10161000202100200000C8C10000C0C10000B8C1E6
:101620000000B0C10000A8C10000A0C1000070C14E
:10163000000020C10000A0C00000A04000406F409A
:101640000000594000004940FB89823B184604F0E5
:1016500029FB02460B46104619464FF00002384B54
:1016600004F086FB02460B46104619464FF0000276
:101670004FF0000304F0CAF902460B461046194623
:1016800004F038FE0346BB60FA892E4BB96843F874
:101690002210FB890133FB81FB89E62BD4D9E62399
:1016A000FB8126E0FB89E63B184604F0FBFA024684
:1016B0000B461046194620A3D3E9002304F058FB3B
:1016C00002460B46104619464FF000021E4B04F02E
:1016D0009DF902460B461046194604F00BFE0346E0
:1016E000BB60FA89174BB96843F82210FB890133B4
:1016F000FB81FB89B3F5A77FD4D3FB79002B17D0EF
:101700000023FB8110E0FC89FA890E4B53F822304C
:1017100018460E4905F000F803461A46094B43F8EF
:101720002420FB890133FB81FB89B3F5A77FEAD332
:101730001437BD4690BD00BF8FC2F5285C8FD23FE5
:101740000000E03F2021002000004940000020412F
:1017500080B588B000AF78600023FB610023BB61D7
:1017600000237B6100233B610023FB73604B1B68FC
:10177000FB615F4B1B68002B03D17868FFF718FDF6
:10178000F8615B4B00221A60FB69BB61594B002278
:101790001A60594B1B681846584905F0C5F80346AE
:1017A000002B03D1564B1B889D2B37D9554B00225C
:1017B0001A70514B4FF000021A60534B00221A600E
:1017C000524B00221A70524B00221A70514B0022C9
:1017D0001A60514B01221A60504B01221A60504B83
:1017E00000221A704F4B00221A704F4B00221A70C1
:1017F0004E4B00221A604E4B00221A604D4B2022A5
:101800001A704D4B20221A704C4B00221A704C4B10
:1018100000221A703A4B00221A809AE199E1354B66
:101820001B687A6813441B787E2B3AD1354B1B78A2
:10183000002B36D1334B01221A702F4B4FF0000290
:101840001A60314B00221A60304B00221A70304B64
:1018500000221A702F4B00221A602F4B01221A60AF
:101860002E4B01221A602E4B00221A702D4B0022A3
:101870001A702D4B00221A702C4B00221A602C4B30
:1018800000221A602B4B20221A702B4B20221A7038
:101890002A4B00221A702A4B00221A70184B002281
:1018A0001A80194B1B68134A126879680A44117828
:1018B000244AD154124B1B8801339AB2104B1A8020
:1018C000114B1B681F4AD35C3B2B3DD11C4B1B7833
:1018D000002B39D10B4B1B78012B35D1094B002242
:1018E0001A700B4B01221A70144B01221A7034E14A
:1018F000E0080020F0080020B80C0020000048425A
:101900000E090020EE080020E8080020EC08002066
:10191000ED080020F4080020F8080020FC08002052
:101920000409002005090020060900200009002004
:1019300008090020D00900204C26002010090020B2
:101940000C09002024270020654B1B68654AD35CE6
:101950003D2B05D0624B1B68624AD35C3A2B09D100
:10196000614B1B78002B05D15F4B01221A705F4B36
:1019700001221A705A4B1B685A4AD35C2E2B0DD188
:101980005B4B1B78002B09D15A4B1B78002B05D1E0
:10199000574B01221A70554B01221A70504B1B688D
:1019A000504AD35C242B09D1534B1B78002B05D113
:1019B000514B02221A704D4B01221A70484B1B6882
:1019C000022B6CD9474B9B78202B68D1474B1B7857
:1019D000002B64D1484B1B78012B60D8424B1B78FD
:1019E000012B07D0454B1B683D4A12683D49895C75
:1019F000434AD1543C4B1B78012B0BD13C4B1B78F9
:101A0000002B07D13F4B1B68354A12683549895C6A
:101A10003D4AD154344B1B78012B0BD1344B1B78EE
:101A2000012B07D1394B1B682D4A12682D49895C5F
:101A3000374AD1542C4B1B78012B09D02F4B1B68F4
:101A40001F2B2CD82D4B1B685A1C2C4B1A6026E0E0
:101A5000254B1B78012B11D1254B1B78002B0DD169
:101A6000284B1B68C72B09D8264B1B685A1C254BD3
:101A70001A60284B1B685A1C264B1A601A4B1B789D
:101A8000012B0CD11A4B1B78012B08D11F4B1B6863
:101A9000C72B04D81D4B1B685A1C1C4B1A60164BD5
:101AA0001B78022B0DD1114B1B78002B09D10C4B4D
:101AB0001B680C4AD35C1A46174B1A600E4B012266
:101AC0001A70144B1A68144B1B689A4226D20A4BA0
:101AD0001B78012B22D1074B01221A7021E000BF95
:101AE000E808002024270020040900201009002015
:101AF000050900200C09002006090020F408002038
:101B0000D00C0020F8080020D0090020FC0800209C
:101B10004C2600200809002000090020884B0022E4
:101B20001A70884B1B68C72B04D8864B1B685A1C3D
:101B3000844B1A60844B1B68C72B04D8824B1B68EC
:101B40005A1C814B1A60FB69013BFB617F4B0022F1
:101B50001A70FB69002B7FF462AE7D4B1B78012B62
:101B600040F0AB827B4B1B685A1C7A4B1A607A4B55
:101B70001B787E2B06D1794B1B7843F00103DAB238
:101B8000764B1A70744B5A78754B1B789A4206D173
:101B9000724B1B7843F00203DAB2704B1A706F4B32
:101BA0001B78032B40F0E8816E486F4904F03AFF40
:101BB0000346002B12D16D4804F0C0FE03461A46BE
:101BC0006B4B1A606A4B1B686A481946FFF7A0FB0B
:101BD000674B1B68184602F023FECDE16148664959
:101BE00004F020FF0346002B18D1604804F0A6FE45
:101BF00003461A465E4B1A605D4B1B685F481946E8
:101C0000FFF786FB5A4B1B68002B03D05C4B8022EE
:101C10001A61B1E15A4B80225A61ADE151485949EC
:101C200004F000FF0346002B1DD1504804F086FE4F
:101C300003461A464E4B1A604D4B1B6852481946D4
:101C4000FFF766FB4A4B1B68002B03D14C4B082265
:101C50005A6191E1464B1B68012B40F08D81484B46
:101C600008221A6188E13F48484904F0DBFE034638
:101C7000002B12D13D4804F061FE03461A463C4B4E
:101C80001A603B4B1B6842481946FFF741FB384B33
:101C90001B68184602F074FD6EE132483D4904F0BD
:101CA000C1FE0346002B0CD13B48FFF705F93B482A
:101CB000FFF702F93A4B1B783A481946FFF758FBF1
:101CC0005AE12848384904F0ADFE0346002B09D1FB
:101CD0003648FFF7F1F83148FFF7EEF8002000F042
:101CE000ABFB49E11F48324904F09CFE0346002B40
:101CF00006D12E48FFF7E0F82848FFF7DDF83BE172
:101D000018482C4904F08EFE0346002B08D12A48BF
:101D1000FFF7D2F82148FFF7CFF800F0E1FD2BE103
:101D20001048264904F07EFE0346002B4AD1244881
:101D3000FFF7C2F81948FFF7BFF800F07DFB1BE181
:101D40000C090020E8080020F008002010090020FD
:101D5000ED0800202C09002024270020EC0800209A
:101D600014000020D00C0020ACAE0008D0090020E8
:101D700018090020B4AE0008C4AE0008CCAE0008BC
:101D800000100140DCAE0008E0AE0008ECAE000838
:101D9000F4AE000804AF000808AF000814AF000854
:101DA000740B002018AF000820AF000828AF00080F
:101DB00038AF000840AF000848AF000858AF00082F
:101DC00060AF00088348844904F02CFE0346002BD2
:101DD00029D1824804F0B2FD03461A46804B1A60AE
:101DE000804804F0ABFD03461A467F4B1A607C4BDB
:101DF0001B687E481946FFF7A5FA7B4B1B687C4899
:101E00001946FFF785FA764B1B68DAB2764B1B68EA
:101E1000DBB21046194600F0A1FC0346754819468E
:101E2000FFF7A6FAA8E06B48734904F0FBFD0346F0
:101E3000002B25D1694804F081FD03461A46684B02
:101E40001A60684804F07AFD03461A46664B1A6029
:101E5000634B1B6869481946FFF75AFA624B1B68C7
:101E600067481946FFF754FA5D4B1B68DAB25E4BC0
:101E70001B68DBB210461946624A00F011FC7BE099
:101E80005448614904F0CEFD0346002B19D1534854
:101E900004F054FD03461A46514B1A60514804F0B1
:101EA0004DFD03461A46504B1A604D4B1B68574870
:101EB0001946FFF72DFA4A4B1B68184600F0A2FCA2
:101EC0005AE04448524904F0ADFD0346002B19D1B5
:101ED000424804F033FD03461A46414B1A6041481C
:101EE00004F02CFD03461A463F4B1A603C4B1B681E
:101EF00048481946FFF70CFA394B1B68184600F0A2
:101F0000B5FC39E03348444904F08CFD0346002B0E
:101F100014D1324804F012FD03461A46304B1A60C1
:101F20002F4B1B683D481946FFF7F2F92C4B1B68F5
:101F3000082004211A4600F0B3FB1DE0254838496B
:101F400004F070FD0346002B16D1244804F0F6FC83
:101F500003461A46224B1A60214B1B68314819462A
:101F6000FFF7D6F91E4B1B681846FEF72FFE0346F7
:101F70002D481946FFF7CCF90023FB6107E0154A0D
:101F8000FB69134400221A70FB690133FB61FB6992
:101F90001F2BF4D90023FB6107E0104AFB691344AF
:101FA00000221A70FB690133FB61FB69C82BF4D96D
:101FB0000023FB6107E00B4AFB69134400221A70FF
:101FC000FB690133FB61FB69C82BF4D90023FB617A
:101FD00034E000BFD00C002070AF0008D009002012
:101FE000180900204C2600201409002078AF0008B2
:101FF00088AF00088CAF000894AF00089CAF0008C1
:10200000ACAF0008DDCCBBAAB0AF0008C0AF000881
:10201000D8AF0008E8AF000800B000080CB0000816
:1020200020B0000824B0000830B00008354AFB6931
:10203000134400221A70FB690133FB61FB69C72B53
:10204000F4D9314B4FF000021A60304B00221A7065
:102050002F4B00221A602F4B00221A700023FB61C5
:102060002D4B00221A702D4B00221A602C4B00229F
:102070001A602C4B00221A702B4B00221A602B4B3B
:1020800000221A702A4B00221A602A4B00221A7072
:10209000294B00221A60294B00221A60284B00228B
:1020A0001A70284B00221A70274B20221A70274BD7
:1020B00020221A70264B00221A80174B1B78012B06
:1020C0001DD1144B1B78012B19D1224B1B78002BEF
:1020D00015D12148FEF7F0FE0D4B1B68DBB2094815
:1020E0001946FEF72DFF1C48FEF7E6FE1B4B0022AB
:1020F0001A701B4B00221A701A4B00221A702037DC
:10210000BD4680BD24270020B80C0020EE0800202A
:10211000E8080020EC080020ED080020F40800206A
:10212000F808002004090020FC0800200509002010
:10213000F0080020060900200009002008090020FE
:10214000100900200C090020D00900204C26002096
:102150000E090020E408002078AE00083F28002087
:10216000002000201D27002080B400AF0D4B1B78FD
:10217000312B03D80C4B4FF400621A61094B1B78CA
:10218000322B03D9084B4FF400625A61054B1B7880
:10219000642B02D9034B00221A70BD465DF8047B04
:1021A000704700BF540900200008014090B583B07B
:1021B00000AF0023FB800023BB800023FB701C4B7F
:1021C0001B78002B31D01A4B1B78C72B03D8184B28
:1021D0001B78BB8001E0C823BB800023FB8018E094
:1021E000FC88FEF7FFFF03461A46124B1A55FB8880
:1021F00001331A46104B1A60FB880E4AD35C3B2B06
:1022000004D10123FB70BB88FB8006E0FB8801330F
:10221000FB80FA88BB889A42E2D3074B1B68054AC9
:102220000021D1540348FFF793FA0C37BD4690BD07
:102230001D2700209C0A0020E008002080B500AF88
:10224000694B1B68FA2B02DD684B00221A60664B53
:102250001B68F92B0CDC654B1B68002B08D1644B09
:102260001B785B00DAB2624B1A70604B01221A6075
:102270005F4B1B78082B4AD0082B06DC022B22D0A0
:10228000042B32D0012B0CD09BE0202B63D0202BD1
:1022900002DC102B4DD094E0402B6ED0802B7ED0F2
:1022A0008FE0544B40225A61534B4FF480621A61C5
:1022B000514B4FF400621A614E4B04225A614D4B50
:1022C00008225A617DE04B4B40221A614A4B4FF481
:1022D00080625A61484B4FF400621A61454B0422F8
:1022E0005A61444B08225A616BE0424B40221A610A
:1022F000414B4FF480621A613F4B4FF400625A61C8
:102300003C4B04225A613B4B08225A6159E0394B3D
:1023100040221A61384B4FF480621A61364B4FF4F9
:1023200000621A61334B04221A61324B08225A614F
:1023300047E0304B40221A612F4B4FF480621A6104
:102340002D4B4FF400621A612A4B04225A61294B2B
:1023500008221A6135E0274B40225A61264B4FF480
:1023600080621A61244B4FF400621A61214B0422EF
:102370001A61204B08225A6123E01E4B40221A6149
:102380001D4B4FF480625A611B4B4FF400621A617F
:10239000184B04225A61174B08221A6111E0154BA1
:1023A00040221A61144B4FF480621A61124B4FF4B1
:1023B00000621A610F4B04225A610E4B08225A61C7
:1023C00000BF094B1B68B3F5FA7F02D1064B002210
:1023D0001A60074B1B78002B02D1054B01221A70A3
:1023E000FFF7C2FE80BD00BF400900209009002019
:1023F00094090020001801400014014080B582B00B
:1024000000AF78607B681B0EDBB21846FEF73CFE1F
:102410007B681B0CDBB21846FEF736FE7B681B0A96
:10242000DBB21846FEF730FE7B68DBB21846FEF7DB
:102430002BFE0837BD4680BD80B584B000AF034693
:10244000FB710023FB6005E06148FEF735FDFB688A
:102450000133FB60FB68132BF6DD0023FB6005E016
:102460005C48FEF729FDFB680133FB60FB68132B1A
:10247000F6DD5748FEF720FD5748FEF71DFD54488E
:10248000FEF71AFD5548FEF717FD5548FEF714FDF7
:102490005448FEF711FD5448FEF70EFD5348FEF771
:1024A0000BFD5348FEF708FD5248FEF705FD524864
:1024B000FEF702FD5148FEF7FFFC5148FEF7FCFC19
:1024C0005048FEF7F9FC5048FEF7F6FC4F48FEF77F
:1024D000F3FC4F48FEF7F0FC4E48FEF7EDFC4E488B
:1024E000FEF7EAFC4D48FEF7E7FC4D48FEF7E4FC3A
:1024F0004C48FEF7E1FC4C48FEF7DEFC4B48FEF78B
:10250000DBFC4B48FEF7D8FC4A48FEF7D5FC4A48AE
:10251000FEF7D2FC4948FEF7CFFC4948FEF7CCFC59
:102520004848FEF7C9FC4848FEF7C6FC4748FEF796
:10253000C3FC4748FEF7C0FC4648FEF7BDFC4648D2
:10254000FEF7BAFC4548FEF7B7FC4548FEF7B4FC79
:102550004448FEF7B1FC4448FEF7AEFC4348FEF7A2
:10256000ABFC4348FEF7A8FC4248FEF7A5FC4248F6
:10257000FEF7A2FC4148FEF79FFC4148FEF79CFC99
:102580004048FEF799FC4048FEF796FC3F48FEF7AE
:1025900093FC3F48FEF790FC3E48FEF78DFC3E481A
:1025A000FEF78AFC0A48FEF787FC0948FEF784FC20
:1025B0003A48FEF781FC0648FEF77EFC0448FEF729
:1025C0007BFC0348FEF778FC1037BD4680BD00BF9A
:1025D00014AF000838B000083CB000086CB0000828
:1025E00074B0000880B00008A0B00008B4B00008C3
:1025F000C8B00008DCB00008F0B0000820B1000846
:1026000048B1000870B100088CB10008C0B10008E2
:10261000F0B100082CB2000860B2000898B20008BF
:10262000C8B20008F0B200082CB3000860B300087C
:1026300098B30008C8B30008F0B300082CB4000831
:1026400060B4000898B40008C8B40008F0B40008EA
:1026500018B500085CB500089CB50008DCB500089A
:1026600010B6000854B6000890B60008BCB60008C2
:10267000E8B6000814B7000840B7000880B70008A3
:10268000D4B7000810B8000848B8000880B800089F
:10269000C4B800080CB9000854B9000884B900088F
:1026A00080B584B000AF0B463A600246FA71BB7148
:1026B000FB79DB08BB73BB7B012B02D13B68DBB230
:1026C000FB72BB7B022B06D13B68DBB2BB723B6863
:1026D0001B0ADBB2FB72BB7B032B0AD13B68DBB26C
:1026E0007B723B681B0ADBB2BB723B681B0CDBB224
:1026F000FB72BB7B042B0ED13B68DBB23B723B68A9
:102700001B0ADBB27B723B681B0CDBB2BB723B6803
:102710001B0EDBB2FB72BB7963F07F03DBB21846A2
:10272000FEF7B2FC0023FB730DE0FB7BC3F1030358
:1027300007F11002134413F8083C1846FEF7A4FCF6
:10274000FB7B0133FB73FB79DB08DBB2FA7B9A423C
:10275000EBD3002318461037BD4680BD90B587B037
:1027600000AF02460B46FA71BB710023FB73FB7985
:10277000DB08BB73BB79FB73FB7B1846FEF784FC5D
:102780000023FB750DE0FC7D0020FEF77DFC034679
:102790001A4607F11803234403F8102CFB7D01337C
:1027A000FB75FB79DB08DBB2FA7D9A42EBD3BB7B8E
:1027B000012B01D13B7A3B61BB7B022B04D13B7ADD
:1027C0001A027B7A13443B61BB7B032B07D13B7A14
:1027D0001A047B7A1B021A44BB7A13443B61BB7B0D
:1027E000042B0AD13B7A1A067B7A1B041A44BB7A63
:1027F0001B021A44FB7A13443B613B6918461C37A1
:10280000BD4690BD80B586B000AF786000233B61C7
:10281000FEF72AFB00237B610EE020201E21FFF73C
:102820009DFFF860FA680D4B9A4202D03B69013374
:102830003B617B6901337B617A697B689A42ECD3A7
:1028400007487968FEF764FD0648FEF735FB064841
:102850003969FEF75DFD1837BD4680BDEFBEEDDE80
:102860009CB90008A8B90008B4B9000880B586B0C2
:1028700000AF786000233B61FEF7F6FA00237B612E
:1028800013E020202421124AFFF70AFF20202321F1
:10289000FFF764FFF860FA680D4B9A4202D03B697B
:1028A00001333B617B6901337B617A697B689A42C2
:1028B000E7D308487968FEF72BFD0748FEF7FCFAD6
:1028C00006483969FEF724FD1837BD4680BD00BFB4
:1028D000EFBEEDDE9CB90008A8B90008B4B9000845
:1028E00080B400AFBD465DF8047B704780B582B010
:1028F00000AF78607868FFF781FD0120FDF702FFE7
:10290000054B08221A610120FDF7FCFE024B08224C
:102910005A610837BD4680BD0014014080B582B0C1
:1029200000AF78600120FDF7EDFE0A4B04225A61EA
:102930007868FFF763FD0120FDF7E4FE054B0422F4
:102940001A610120FDF7DEFE024B04225A610837AE
:10295000BD4680BD0014014080B400AFCF4A9378DB
:1029600043F002039370CD4A1388192161F34F138A
:102970001380CA4A93786FF300039370C74A1378A1
:102980006FF304031370C64A93786FF34103937097
:10299000C34A1388192161F34F131380C04A9378F7
:1029A0006FF300039370BE4A1378012161F30403AF
:1029B0001370BC4A93786FF341039370B94A13883C
:1029C000192161F34F131380B64A937843F0010342
:1029D0009370B44A1378022161F304031370B24A6E
:1029E00093786FF341039370AF4A1388FA2161F330
:1029F0004F131380AC4A937843F001039370AA4AB3
:102A00001378032161F304031370A84A93786FF3DA
:102A100041039370A54A1388142161F34F13138067
:102A2000A24A93786FF300039370A04A13780421AD
:102A300061F3040313709E4A93786FF3410393701C
:102A40009B4A1388FA2161F34F131380984A9378B5
:102A50006FF300039370964A1378052161F3040322
:102A60001370944A5378052161F303035370914A1C
:102A70005378052161F3071353708E4A937805212B
:102A800061F3030393708B4A93786FF3071393708A
:102A9000884A1378062161F304031370864A537839
:102AA0006FF303035370844A53786FF30713537023
:102AB000814A9378022161F3030393707E4A9378ED
:102AC0006FF3071393707C4A1378072161F30403B3
:102AD00013707A4A53786FF303035370774A53782D
:102AE0006FF307135370754A9378062161F303035C
:102AF0009370724A93786FF3071393706F4A137849
:102B0000082161F3040313706D4A1378092161F3FE
:102B1000040313706B4A13786FF346131370694AFA
:102B200053786FF303035370664A53786FF30413BB
:102B30005370644A53786FF345135370614A537866
:102B400043F0400353705F4A537843F0800353705F
:102B50005C4A937843F0070393705A4A13780A212A
:102B600061F304031370584A13786FF3451313701D
:102B7000554A13786FF386131370534A13786FF323
:102B8000C7131370504A53786FF3000353704E4AC3
:102B900053786FF3410353704B4A53786FF38203BA
:102BA0005370494A53786FF3C3035370464A5378BE
:102BB000012161F305135370434A53786FF3861371
:102BC0005370414A13780B2161F3040313703F4A99
:102BD00013786FF3451313703C4A5378032161F364
:102BE00002035370394A5378022161F3C7035370CB
:102BF000364A13780C2161F304031370344A1378B6
:102C00000D2161F304031370314A1378042161F339
:102C1000471313702E4A5378032161F30203537054
:102C20002C4A13780E2161F304031370294A137898
:102C3000042161F347131370274A1378102161F3BD
:102C400004031370254A1378182161F304031370E9
:102C5000224A13786FF347131370204A53786FF3A7
:102C6000020353701D4A53786FF3C60353701B4A17
:102C700093786FF303039370194A13781A2161F361
:102C800004031370164A5388032161F30D03538024
:102C9000134AD3786FF38713D37023E0880B002097
:102CA0005C28002080280020B00C0020082900208B
:102CB000B01D002018210020840B00207C2800205B
:102CC000602800203C2800202C280020700B0020C9
:102CD000F40C0020041D0020F4270020900C00209C
:102CE000680B0020234A13796FF300031371224A03
:102CF00013781C2161F3040313701F4A53880121C8
:102D000061F30B0353801D4A13781D2161F3040303
:102D100013701A4A13786FF347131370174A136826
:102D20007D2161F319231360154A13781E2161F385
:102D300004031370124A1378022161F347131370CE
:102D40000F4A13687D2161F3192313600D4A13782C
:102D500043F01F0313700B4A53786FF3040353704F
:102D6000084A53786FF345135370BD465DF8047BF2
:102D7000704700BF680B0020F02700204C2800207F
:102D800020280020281D002080B483B000AF786088
:102D9000D04A937843F002039370CE4A13880121FE
:102DA00061F34F131380CB4A937843F00103937080
:102DB000C84A13786FF304031370C74A93786FF30C
:102DC00041039370C44A1388012161F34F131380A8
:102DD000C14A93786FF300039370BF4A13780121BF
:102DE00061F304031370BD4A93786FF3410393704A
:102DF000BA4A1388012161F34F131380B74A9378BD
:102E000043F001039370B54A1378022161F3040380
:102E10001370B34A93786FF341039370B04A1388E9
:102E2000012161F34F131380AD4A937843F00103FE
:102E30009370AB4A1378032161F304031370A94A1A
:102E400093786FF341039370A64A1388012161F3CD
:102E50004F131380A34A937843F001039370A14A60
:102E60001378042161F3040313709F4A93786FF37E
:102E7000410393709C4A1388062161F34F1313801A
:102E8000994A93786FF300039370974A137805215A
:102E900061F304031370954A53786FF3030353707F
:102EA000924A53786FF307135370904A93786FF3F5
:102EB000030393708D4A93786FF3071393708B4AD3
:102EC0001378062161F304031370894A53786FF372
:102ED00003035370864A53786FF307135370844A81
:102EE00093786FF303039370814A93786FF307131A
:102EF00093707F4A1378072161F3040313707D4AAE
:102F000053786FF3030353707A4A53786FF30713C0
:102F10005370784A9378022161F303039370754AE2
:102F20009378022161F307139370724A1378082192
:102F300061F304031370704A1378092161F30403E9
:102F400013706E4A13786FF3461313706B4A5378FD
:102F50006FF303035370694A53786FF3041353708C
:102F6000664A53786FF345135370644A537843F0BD
:102F700040035370614A537843F0800353705F4AB3
:102F8000937843F0070393705C4A13780A2161F346
:102F9000040313705A4A137843F020031370584AFD
:102FA000137843F040031370554A137843F08003BD
:102FB0001370534A537843F001035370504A5378C7
:102FC00043F0020353704E4A537843F004035370A6
:102FD0004B4A537843F008035370494A5378012110
:102FE00061F305135370464A53786FF38613537099
:102FF000434A13780B2161F304031370414A137899
:103000006FF3451313703F4A5378032161F30203B2
:1030100053703C4A5378022161F3C7035370394A15
:1030200013780C2161F304031370374A13780D21D0
:1030300061F304031370344A1378042161F34713D6
:103040001370314A5378032161F3020353702F4AFE
:1030500013780E2161F3040313702C4A13780421B2
:1030600061F3471313702A4A1378102161F30403A4
:103070001370284A1378182161F304031370254A4A
:1030800013786FF347131370224A53786FF30203D8
:103090005370204A53786FF3C60353701D4A9378D8
:1030A0006FF3030393701C4A13781A2161F304032E
:1030B0001370194A538840F6B83161F30D035380F9
:1030C000154AD37843F0C003D370134A13796FF3D2
:1030D000000323E0880B00205C28002080280020CB
:1030E000B00C002008290020B01D0020182100206D
:1030F000840B00207C280020602800203C28002031
:103100002C280020700B0020F40C0020041D00204F
:10311000F4270020900C0020680B00201371214A36
:1031200013781C2161F3040313701E4A5388042191
:1031300061F30B0353801C4A13781D2161F30403D0
:103140001370194A13786FF347131370164A1368F4
:103150007B2161F319231360144A13781E2161F354
:1031600004031370114A13786FF3471313700F4A57
:1031700013687B2161F3192313600D4A137843F020
:103180001F0313700A4A53786FF304035370084AFD
:1031900053786FF3451353700C37BD465DF8047BCD
:1031A000704700BFF02700204C2800202028002076
:1031B000281D002080B483B000AF7860D04A937897
:1031C00043F002039370CE4A1388012161F34F1339
:1031D0001380CB4A937843F001039370C84A137865
:1031E0006FF304031370C74A93786FF3410393702E
:1031F000C44A1388012161F34F131380C14A9378A5
:103200006FF300039370BF4A1378012161F3040345
:103210001370BD4A93786FF341039370BA4A1388D1
:10322000012161F34F131380B74A937843F00103F0
:103230009370B54A1378022161F304031370B34A03
:1032400093786FF341039370B04A1388012161F3BF
:103250004F131380AD4A937843F001039370AB4A48
:103260001378032161F304031370A94A93786FF371
:1032700041039370A64A1388012161F34F13138011
:10328000A34A937843F001039370A14A1378042171
:1032900061F3040313709F4A93786FF341039370B3
:1032A0009C4A1388072161F34F131380994A93783E
:1032B0006FF300039370974A1378052161F30403B9
:1032C0001370954A53786FF303035370924A5378FF
:1032D0006FF307135370904A93786FF3030393705F
:1032E0008D4A93786FF3071393708B4A13780621F6
:1032F00061F304031370894A53786FF30303537027
:10330000864A53786FF307135370844A93786FF3A8
:1033100003039370814A93786FF3071393707F4A86
:103320001378072161F3040313707D4A53786FF318
:10333000030353707A4A53786FF307135370784A34
:103340009378022161F303039370754A9378022105
:1033500061F307139370724A1378082161F3040331
:103360001370704A1378092161F3040313706E4AD5
:1033700013786FF3461313706B4A53786FF303039C
:103380005370694A53786FF304135370664A537845
:103390006FF345135370644A537843F040035370FE
:1033A000614A537843F0800353705F4A937843F047
:1033B000070393705C4A13780A2161F304031370C6
:1033C0005A4A13786FF345131370584A13786FF302
:1033D00086131370554A13786FF3C7131370534A4B
:1033E00053786FF300035370504A53786FF34103DF
:1033F00053704E4A53786FF3820353704B4A53789D
:103400006FF3C3035370494A5378012161F30513E5
:103410005370464A53786FF386135370434A1378B8
:103420000B2161F304031370414A13786FF34513C2
:1034300013703F4A5378032161F3020353703C4AEF
:103440005378022161F3C7035370394A13780C2172
:1034500061F304031370374A13780D2161F30403F9
:103460001370344A1378042161F347131370314AFF
:103470005378032161F3020353702F4A13780E210E
:1034800061F3040313702C4A1378042161F347138A
:1034900013702A4A1378102161F304031370284A29
:1034A0001378182161F304031370254A13786FF31E
:1034B00047131370224A53786FF302035370204A64
:1034C00053786FF3C60353701D4A93786FF3030369
:1034D00093701C4A13781A2161F304031370194A7C
:1034E000538840F6B83161F30D035380154AD37801
:1034F00043F0C003D370134A13796FF3000323E042
:10350000880B00205C28002080280020B00C0020C0
:1035100008290020B01D002018210020840B002065
:103520007C280020602800203C2800202C28002037
:10353000700B0020F40C0020041D0020F427002054
:10354000900C0020680B00201371234A13781C2173
:1035500061F304031370204A5388642161F30B0361
:1035600053801E4A13781D2161F3040313701B4A14
:103570001378012161F3471313707B68C3F31101C2
:10358000164A136861F319231360154A13781E2134
:1035900061F304031370124A137843F0E0031370CD
:1035A0007B68C3F311010E4A136861F3192313609A
:1035B0000C4A137843F01F0313700A4A53786FF3D1
:1035C00004035370074A53786FF3451353700C3755
:1035D000BD465DF8047B7047F02700204C28002092
:1035E00020280020281D002080B500AFAE4B00220F
:1035F0001A60AD4B1A68AD4B9B78C3F34003DBB246
:103600005B041A43A94B9B78C3F30003DBB2DB07CF
:103610001A43A64B1B88C3F34A139BB25B011A43A0
:10362000A24B1B78C3F30403DBB21A439E4B1A6010
:103630009D4B1B681846FFF759F99D48FDF73CFC68
:10364000994B00221A60984B1A68984B9B78C3F3E9
:103650000003DBB2DB071A43944B1B88C3F34A1306
:103660009BB25B011A43914B1B78C3F30403DBB29B
:103670001A438D4B1A608C4B00225A608A4B5A6851
:103680008C4B9B78C3F34003DBB25B041A43894B3A
:103690009B78C3F30003DBB2DB071A43854B1B881F
:1036A000C3F34A139BB25B011A43824B1B78C3F3EB
:1036B0000403DBB21A437C4B5A607B4B00229A60B6
:1036C000794B9A687C4B9B78C3F30003DBB2DB0732
:1036D0001A43794B1B88C3F34A139BB25B011A430D
:1036E000754B1B78C3F30403DBB21A436E4B9A602D
:1036F0006D4B0022DA606C4BDA68704B9B78C3F339
:103700000003DBB2DB071A436C4B1B88C3F34A137D
:103710009BB25B011A43694B1B78C3F30403DBB212
:103720001A43614BDA60604B00221A615E4B1A69E2
:10373000634B9B78C3F30003DBB2DB071A43604B98
:103740001B88C3F34A139BB25B011A435C4B1B7883
:10375000C3F30403DBB21A43534B1A61524B0022EA
:103760005A61514B5A69574B9B78C3F30003DBB244
:10377000DB071A43534B1B88C3F34A139BB25B010D
:103780001A43504B1B78C3F30403DBB21A43464B76
:103790005A61454B00229A61434B9A694A4B5B78C8
:1037A000C3F30303DBB21B041A43474B5B78C3F339
:1037B0000313DBB21B051A43434B9B78C3F303038C
:1037C000DBB21B061A43404B9B78C3F30313DBB2F7
:1037D0001B071A433C4B1B78C3F30403DBB21A43A9
:1037E000314B9A61304B0022DA612F4BDA69374B4B
:1037F0005B78C3F30303DBB21B041A43334B5B78E0
:10380000C3F30313DBB21B051A43304B9B78C3F39E
:103810000303DBB21B061A432C4B9B78C3F3031341
:10382000DBB21B071A43294B1B78C3F30403DBB23B
:103830001A431D4BDA611C4B00221A621A4B1A6A9A
:10384000234B5B78C3F30303DBB21B041A43204B07
:103850005B78C3F30313DBB21B051A431C4B9B7845
:10386000C3F30303DBB21B061A43194B9B78C3F364
:103870000313DBB21B071A43154B1B78C3F3040376
:10388000DBB21A43084B1A62074B00225A62064BFE
:103890005A6A104B1B78C3F30403DBB21A430E4B76
:1038A0001343014A536219E0581D0020880B002081
:1038B000C4B900085C28002080280020B00C00203B
:1038C00008290020B01D002018210020840B0020B2
:1038D0007C2800206028002040555555B64B00221A
:1038E0009A62B54B9A6AB54B1B78C3F34113DBB2AE
:1038F0001B061A43B14B5B78C3F30303DBB29B0790
:103900001A43AE4B5B78C3F30013DBB2DB051A43FB
:10391000AA4B5B78C3F34013DBB29B051A43A74B5A
:103920005B78C3F38013DBB25B051A43A34B5B7870
:10393000C3F3C013DBB21B051A43A04B9B78C3F340
:103940000203DBB21B041A439C4B1B78C3F3040332
:10395000DBB2134343F0805343F48043964A9362AF
:10396000954B0022DA62944BDA6A954B1B78C3F3CD
:103970004013DBB21B051A43914B1B78C3F3801332
:10398000DBB25B051A438E4B1B78C3F3C013DBB26B
:103990009B051A438A4B5B78C3F30003DBB2DB055C
:1039A0001A43874B5B78C3F34003DBB21B061A4311
:1039B000834B5B78C3F38003DBB25B061A43804B17
:1039C0005B78C3F3C003DBB21B041A437C4B5B7808
:1039D000C3F30113DBB21B031A43794B5B78C3F3C8
:1039E0008013DBB25B011A43754B1B78C3F30403EE
:1039F000DBB2134343F050526F4BDA626E4B00223E
:103A00001A636D4B1A6B6F4B1B78C3F34013DBB219
:103A1000DB051A436B4B5B78C3F30203DBB21B0677
:103A20001A43684B5B78C3F3C403DBB2DB061A436B
:103A3000644B1B78C3F30403DBB2134343F440230A
:103A400043F060035C4A13635B4B00225A635A4B9A
:103A50005A6B5D4B1B78C3F34213DBB21B041A4352
:103A6000594B5B78C3F30203DBB21B061A43564B78
:103A70001B78C3F30403DBB2134343F0605343F4F6
:103A800000434D4A53634C4B00229A634A4B9A6B56
:103A90004E4B1B78C3F34213DBB21B061A434B4B4E
:103AA0001B78C3F30403DBB21A43434B9A63424BC4
:103AB0000022DA63404BDA6B454B1B78C3F30403F7
:103AC000DBB21A43434B13433B4AD3633A4B0022C6
:103AD0001A64394B1A6C404B1B78C3F34213DBB2A8
:103AE0001B041A433C4B5B78C3F30203DBB21B0598
:103AF0001A43394B5B78C3F3C303DBB21B061A438B
:103B0000354B9B78C3F30303DBB21B071A43324BDD
:103B10001B78C3F30403DBB21A43274B1A64264B0A
:103B200000225A64244B5A6C2C4B5B88C3F30D0360
:103B30009BB29B011A43294BDB78C3F38113DBB2A1
:103B40009B061A43254B1B79C3F30003DBB25B07CB
:103B50001A43224B1B78C3F30403DBB2134343F035
:103B6000034343F42003144A5364134B00229A6422
:103B7000114B9A6C1A4B5B88C3F30B039BB21B056A
:103B80001A43174B1B78C3F30403DBB21A430A4BE7
:103B90009A64094B0022DA64074BDA6C114B1B78EC
:103BA000C3F34213DBB21B061A430E4B1B68C3F36D
:103BB00011235B011A4317E0581D00203C28002008
:103BC0002C280020700B0020F40C0020041D002085
:103BD000F4270020000455C1900C0020680B002041
:103BE000F02700204C280020974B1B78C3F30403D8
:103BF000DBB2134343F40002944BDA64934B00228C
:103C00001A65924B1A6D924B1B78C3F34213DBB2C9
:103C10001B061A438E4B1B68C3F311235B011A4327
:103C20008B4B1B78C3F30403DBB21A43874B1A6533
:103C3000864B00225A65854B5A6D864B5B78C3F3E1
:103C40000403DBB21B041A43824B5B78C3F34013BB
:103C5000DBB25B011A437F4B1B78C3F30403DBB277
:103C60001A437A4B5A65794B1B681846FEF73EFE9D
:103C70007948FDF721F9754B5B681846FEF736FE6B
:103C80007648FDF719F9714B9B681846FEF72EFE32
:103C90007348FDF711F96D4BDB681846FEF726FEF9
:103CA0007048FDF709F9694B1B691846FEF71EFEBF
:103CB0006D48FDF701F9654B5B691846FEF716FE86
:103CC0006A48FDF7F9F8614B1B681846FEF70EFECF
:103CD0006148FDF7F1F85D4B5B681846FEF706FE9C
:103CE0005E48FDF7E9F8594B9B681846FEF7FEFD64
:103CF0005B48FDF7E1F8554BDB681846FEF7F6FD2B
:103D00005848FDF7D9F8514B1B691846FEF7EEFDF0
:103D10005548FDF7D1F84D4B5B691846FEF7E6FDB7
:103D20005248FDF7C9F8494B9B691846FEF7DEFD7E
:103D30004F48FDF7C1F8454BDB691846FEF7D6FD45
:103D40004C48FDF7B9F8414B1B6A1846FEF7CEFD0B
:103D50004948FDF7B1F83D4B5B6A1846FEF7C6FDD2
:103D60004648FDF7A9F8394B9B6A1846FEF7BEFD99
:103D70004348FDF7A1F8354BDB6A1846FEF7B6FD60
:103D80004048FDF799F8314B1B6B1846FEF7AEFD26
:103D90003D48FDF791F82D4B5B6B1846FEF7A6FDED
:103DA0003A48FDF789F8294B9B6B1846FEF79EFDB4
:103DB0003748FDF781F8254BDB6B1846FEF796FD7B
:103DC0003448FDF779F8214B1B6C1846FEF78EFD41
:103DD0003148FDF771F81D4B5B6C1846FEF786FD08
:103DE0002E48FDF769F8194B9B6C1846FEF77EFDCF
:103DF0002B48FDF761F8154BDB6C1846FEF776FD96
:103E00002848FDF759F8114B1B6D1846FEF76EFD5B
:103E10002548FDF751F80D4B5B6D1846FEF766FD22
:103E20002248FDF749F8224B80225A616420FDF7B1
:103E300007F81F4B80221A616420FDF701F81C4B24
:103E400080225A6180BD00BF4C280020581D0020F0
:103E500020280020281D0020D0B90008D4B900086F
:103E6000D8B90008DCB90008E0B90008E4B90008D6
:103E7000E8B90008ECB90008F0B90008F4B9000886
:103E8000F8B9000800BA000808BA000810BA00081B
:103E900018BA000820BA000828BA000830BA00088A
:103EA00038BA000840BA000848BA000850BA0008FA
:103EB0000010014080B500AFAE4B00221A60AD4B40
:103EC0001A68AD4B9B78C3F34003DBB25B041A4323
:103ED000A94B9B78C3F30003DBB2DB071A43A64B65
:103EE0001B88C3F34A139BB25B011A43A24B1B7896
:103EF000C3F30403DBB21A439E4B1A609D4B1B684D
:103F00001846FEF70BFD9D48FCF7D6FF994B0022A3
:103F10001A60984B1A68984B9B78C3F30003DBB286
:103F2000DB071A43944B1B88C3F34A139BB25B0114
:103F30001A43914B1B78C3F30403DBB21A438D4B36
:103F40001A608C4B00225A608A4B5A688C4B9B78C3
:103F5000C3F34003DBB25B041A43894B9B78C3F382
:103F60000003DBB2DB071A43854B1B88C3F34A13FC
:103F70009BB25B011A43824B1B78C3F30403DBB291
:103F80001A437C4B5A607B4B00229A60794B9A68AB
:103F90007C4B9B78C3F30003DBB2DB071A43794BFE
:103FA0001B88C3F34A139BB25B011A43754B1B7802
:103FB000C3F30403DBB21A436E4B9A606D4B0022CD
:103FC000DA606C4BDA68704B9B78C3F30003DBB2AA
:103FD000DB071A436C4B1B88C3F34A139BB25B018C
:103FE0001A43694B1B78C3F30403DBB21A43614BDA
:103FF000DA60604B00221A615E4B1A69634B9B7852
:10400000C3F30003DBB2DB071A43604B1B88C3F327
:104010004A139BB25B011A435C4B1B78C3F3040346
:10402000DBB21A43534B1A61524B00225A61514B77
:104030005A69574B9B78C3F30003DBB2DB071A4383
:10404000534B1B88C3F34A139BB25B011A43504B7B
:104050001B78C3F30403DBB21A43464B5A61454B4A
:1040600000229A61434B9A694A4B5B78C3F303037E
:10407000DBB21B041A43474B5B78C3F30313DBB279
:104080001B051A43434B9B78C3F30303DBB21B06A8
:104090001A43404B9B78C3F30313DBB21B071A434D
:1040A0003C4B1B78C3F30403DBB21A43314B9A61D8
:1040B000304B0022DA612F4BDA69374B5B78C3F360
:1040C0000303DBB21B041A43334B5B78C3F30313C4
:1040D000DBB21B051A43304B9B78C3F30303DBB2FF
:1040E0001B061A432C4B9B78C3F30313DBB21B074D
:1040F0001A43294B1B78C3F30403DBB21A431D4B4D
:10410000DA611C4B00221A621A4B1A6A234B5B7845
:10411000C3F30303DBB21B041A43204B5B78C3F3E6
:104120000313DBB21B051A431C4B9B78C3F3030339
:10413000DBB21B061A43194B9B78C3F30313DBB2A4
:104140001B071A43154B1B78C3F30403DBB21A4356
:10415000084B1A62074B00225A62064B5A6A104BF0
:104160001B78C3F30403DBB21A430E4B1343014A1B
:10417000536219E088280020880B0020C4B9000889
:104180005C28002080280020B00C00200829002096
:10419000B01D002018210020840B00207C28002066
:1041A0006028002040555555B64B00229A62B54B09
:1041B0009A6AB54B1B78C3F34113DBB21B061A4353
:1041C000B14B5B78C3F30303DBB29B071A43AE4BDF
:1041D0005B78C3F30013DBB2DB051A43AA4B5B78B1
:1041E000C3F34013DBB29B051A43A74B5B78C3F3C1
:1041F0008013DBB25B051A43A34B5B78C3F3C01398
:10420000DBB21B051A43A04B9B78C3F30203DBB25E
:104210001B041A439C4B1B78C3F30403DBB2134308
:1042200043F0805343F48043964A9362954B0022B7
:10423000DA62944BDA6A954B1B78C3F34013DBB216
:104240001B051A43914B1B78C3F38013DBB25B054C
:104250001A438E4B1B78C3F3C013DBB29B051A4382
:104260008A4B5B78C3F30003DBB2DB051A43874B51
:104270005B78C3F34003DBB21B061A43834B5B78C6
:10428000C3F38003DBB25B061A43804B5B78C3F356
:10429000C003DBB21B041A437C4B5B78C3F30113EE
:1042A000DBB21B031A43794B5B78C3F38013DBB299
:1042B0005B011A43754B1B78C3F30403DBB2134352
:1042C00043F050526F4BDA626E4B00221A636D4B13
:1042D0001A6B6F4B1B78C3F34013DBB2DB051A4339
:1042E0006B4B5B78C3F30203DBB21B061A43684BCC
:1042F0005B78C3F3C403DBB2DB061A43644B1B7861
:10430000C3F30403DBB2134343F4402343F06003DD
:104310005C4A13635B4B00225A635A4B5A6B5D4BEA
:104320001B78C3F34213DBB21B041A43594B5B786F
:10433000C3F30203DBB21B061A43564B1B78C3F3CD
:104340000403DBB2134343F0605343F400434D4A8C
:1043500053634C4B00229A634A4B9A6B4E4B1B782B
:10436000C3F34213DBB21B061A434B4B1B78C3F358
:104370000403DBB21A43434B9A63424B0022DA63D5
:10438000404BDA6B454B1B78C3F30403DBB21A4393
:10439000434B13433B4AD3633A4B00221A64394BD5
:1043A0001A6C404B1B78C3F34213DBB21B041A4355
:1043B0003C4B5B78C3F30203DBB21B051A43394B5A
:1043C0005B78C3F3C303DBB21B061A43354B9B7800
:1043D000C3F30303DBB21B071A43324B1B78C3F34F
:1043E0000403DBB21A43274B1A64264B00225A649B
:1043F000244B5A6C2C4B5B88C3F30D039BB29B017F
:104400001A43294BDB78C3F38113DBB29B061A43B3
:10441000254B1B79C3F30003DBB25B071A43224B26
:104420001B78C3F30403DBB2134343F0034343F4A9
:104430002003144A5364134B00229A64114B9A6C64
:104440001A4B5B88C3F30B039BB21B051A43174B34
:104450001B78C3F30403DBB21A430A4B9A64094B7B
:104460000022DA64074BDA6C114B1B78C3F342135A
:10447000DBB21B061A430E4B1B68C3F311235B010F
:104480001A4317E0882800203C2800202C28002010
:10449000700B0020F40C0020041D0020F4270020E5
:1044A000000455C1900C0020680B0020F02700206C
:1044B0004C280020974B1B78C3F30403DBB2134353
:1044C00043F40002944BDA64934B00221A65924B3A
:1044D0001A6D924B1B78C3F34213DBB21B061A43CF
:1044E0008E4B1B68C3F311235B011A438B4B1B7864
:1044F000C3F30403DBB21A43874B1A65864B0022D1
:104500005A65854B5A6D864B5B78C3F30403DBB267
:104510001B041A43824B5B78C3F34013DBB25B018D
:104520001A437F4B1B78C3F30403DBB21A437A4B65
:104530005A65794B1B681846FEF7F0F97948FCF785
:10454000BBFC754B5B681846FEF7E8F97648FCF74C
:10455000B3FC714B9B681846FEF7E0F97348FCF713
:10456000ABFC6D4BDB681846FEF7D8F97048FCF7DA
:10457000A3FC694B1B691846FEF7D0F96D48FCF7A0
:104580009BFC654B5B691846FEF7C8F96A48FCF767
:1045900093FC614B1B681846FEF7C0F96148FCF7B5
:1045A0008BFC5D4B5B681846FEF7B8F95E48FCF77C
:1045B00083FC594B9B681846FEF7B0F95B48FCF743
:1045C0007BFC554BDB681846FEF7A8F95848FCF70A
:1045D00073FC514B1B691846FEF7A0F95548FCF7D0
:1045E0006BFC4D4B5B691846FEF798F95248FCF797
:1045F00063FC494B9B691846FEF790F94F48FCF75E
:104600005BFC454BDB691846FEF788F94C48FCF724
:1046100053FC414B1B6A1846FEF780F94948FCF7EA
:104620004BFC3D4B5B6A1846FEF778F94648FCF7B1
:1046300043FC394B9B6A1846FEF770F94348FCF778
:104640003BFC354BDB6A1846FEF768F94048FCF73F
:1046500033FC314B1B6B1846FEF760F93D48FCF705
:104660002BFC2D4B5B6B1846FEF758F93A48FCF7CC
:1046700023FC294B9B6B1846FEF750F93748FCF793
:104680001BFC254BDB6B1846FEF748F93448FCF75A
:1046900013FC214B1B6C1846FEF740F93148FCF720
:1046A0000BFC1D4B5B6C1846FEF738F92E48FCF7E7
:1046B00003FC194B9B6C1846FEF730F92B48FCF7AE
:1046C000FBFB154BDB6C1846FEF728F92848FCF776
:1046D000F3FB114B1B6D1846FEF720F92548FCF73C
:1046E000EBFB0D4B5B6D1846FEF718F92248FCF703
:1046F000E3FB224B80225A616420FCF7A1FB1F4B95
:1047000080221A616420FCF79BFB1C4B80225A61BB
:1047100080BD00BF4C2800208828002020280020D1
:10472000281D0020D0B90008D4B90008D8B9000865
:10473000DCB90008E0B90008E4B90008E8B90008ED
:10474000ECB90008F0B90008F4B90008F8B900089D
:1047500000BA000808BA000810BA000818BA000821
:1047600020BA000828BA000830BA000838BA000891
:1047700040BA000848BA000850BA000800100140CA
:1047800080B582B000AF0346FB801E48FCF794FB67
:104790001D48FCF791FB1D48FCF78EFBFB88B3F529
:1047A000CD7F06D10020FEF7EFFA1948FCF784FB15
:1047B00003E04FF4B470FEF7FDFCFFF77BFB1548F8
:1047C000FCF77AFB1448FCF777FB0E48FCF774FB08
:1047D0000C48FCF771FB0C48FCF76EFB0F48FCF72C
:1047E0006BFBFEF7B9F8FEF7FFFE0A48FCF764FB27
:1047F0000948FCF761FB0348FCF75EFB0837BD4640
:1048000080BD00BF78AE000858BA000880BA000822
:10481000A4BA0008B4BA0008BCBA0008CCBA0008B0
:1048200080B582B000AF78607868FEF7C3FCFFF710
:1048300041FB0837BD4680BD80B586B000AF244B34
:104840007B610920012100F07FF94FF40010012164
:1048500000F098F91F4BC0221A801E4B1C22DA7000
:104860001C4B01229A701C481A49FBF767FD4FF454
:104870000010012100F0A4F94FF40010002100F015
:104880009FF900233B814BF6FF737B810023BB81A3
:104890004FF48063FB814FF480433B827B697B60F4
:1048A0003B1D0E48194600F0A9FF0C48012101F0FC
:1048B00067F80A48012101F083F81F20FBF7A8FEE2
:1048C0001F200121FBF7BCFE1837BD4680BD00BF8D
:1048D000A086010030280020000C01400054004058
:1048E00080B500AFFBF7F8FEFCF74EF8FCF78EF949
:1048F000FCF756FAFCF7ECF8FBF76CFFFCF762FBF1
:10490000FFF79AFF1548FCF7D7FA1548FCF7D4FAD9
:104910001248FCF7D1FA1348FCF7CEFA1048FCF71E
:10492000CBFA0E48FCF7C8FA0020FDF785FD0E4BC8
:1049300064221A600D48FCF70BFF0120FCF734FDE0
:104940004FF4CD70FFF71CFFFDF730FCFCF78CFA3D
:10495000FDF774FCFDF708FCF6E700BF78AE000831
:10496000F0BA0008F8BA00088809002004BB000863
:1049700080B485B000AF78600023FB60094B5B68B2
:10498000FB60FB6823F44043FB60FA687B681343D9
:10499000FB60044BFA685A601437BD465DF8047B2F
:1049A000704700BF0010024080B487B000AF78604D
:1049B00000237B6100233B610023FB600023BB607D
:1049C0004D4B5B6803F00C037B617B69042B07D0C4
:1049D000082B09D0002B34D17B68484A1A6034E098
:1049E0007B68464A1A6030E0434B5B6803F47013FF
:1049F0003B61414B5B6803F48033FB603B699B0C7C
:104A000002333B61FB68002B06D13B693C4A02FB49
:104A100003F27B681A6013E0374B5B6803F40033E2
:104A2000002B06D03B69364A02FB03F27B681A6012
:104A300006E03B69314A02FB03F27B681A6004E03E
:104A400003E07B682D4A1A6000BF2B4B5B6803F0C4
:104A5000F0037B617B691B097B612A4A7B691344F4
:104A60001B78DBB2BB607B681A68BB68DA407B6886
:104A70005A60214B5B6803F4E0637B617B691B0A2E
:104A80007B61204A7B6913441B78DBB2BB607B6887
:104A90005A68BB68DA407B689A60174B5B6803F41E
:104AA00060537B617B69DB0A7B61164A7B69134437
:104AB0001B78DBB2BB607B685A68BB68DA407B68F6
:104AC000DA600D4B5B6803F440437B617B699B0BB1
:104AD0007B610D4A7B6913441B78DBB2BB607B684A
:104AE000DA68BB68B2FBF3F27B681A611C37BD461B
:104AF0005DF8047B704700BF0010024000127A008E
:104B000000093D00180000202800002080B483B078
:104B100000AF78600B46FB70FB78002B06D0094B8A
:104B2000084A51697A680A435A6106E0054B054A0A
:104B300051697A68D2430A405A610C37BD465DF824
:104B4000047B70470010024080B483B000AF7860EF
:104B50000B46FB70FB78002B06D0094B084A916985
:104B60007A680A439A6106E0054B054A91697A68BA
:104B7000D2430A409A610C37BD465DF8047B70470A
:104B80000010024080B483B000AF78600B46FB7029
:104B9000FB78002B06D0094B084AD1697A680A4392
:104BA000DA6106E0054B054AD1697A68D2430A40CA
:104BB000DA610C37BD465DF8047B70470010024097
:104BC00080B483B000AF78600B46FB70FB78002B9D
:104BD00006D0094B084A11697A680A431A6106E04F
:104BE000054B054A11697A68D2430A401A610C37AD
:104BF000BD465DF8047B70470010024080B485B06C
:104C000000AF78600023FB60324BFB607B689B79D0
:104C1000002B4DD02F4B2F4A11687A681268D2436F
:104C20000A401A602B4B2B4A51687A681268D243AB
:104C30000A405A607B681B79FA681344FB60FB6882
:104C4000FA6811687A6812680A431A60214B214A8F
:104C500091687A681268D2430A409A601D4B1D4AD7
:104C6000D1687A681268D2430A40DA607B685B795F
:104C7000102B0ED1174B174A91687A6812680A43B5
:104C80009A60144B134AD1687A6812680A43DA6052
:104C90001BE0104BFB607B685B79FA681344FB6098
:104CA000FB68FA6811687A6812680A431A600CE0B7
:104CB0007B681B79FA681344FB60FB68FA6811682B
:104CC0007A681268D2430A401A601437BD465DF80C
:104CD000047B70470004014080B483B000AF78606B
:104CE000034B7A685A610C37BD465DF8047B704708
:104CF0000004014080B485B000AF78600023FB73EE
:104D00000023BB600C4B1A687B681340BB600A4BE6
:104D10005A697B681340002B05D0BB68002B02D07A
:104D20000123FB7301E00023FB73FB7B1846143760
:104D3000BD465DF8047B70470004014080B483B039
:104D400000AF7860034B7A685A610C37BD465DF856
:104D5000047B70470004014080B485B000AF7860E8
:104D600039600023FB600023FB727B685B68FB609B
:104D7000FB6823F4702323F48073FB603B681A689C
:104D80003B681B791B021343FA681343FB607B6883
:104D9000FA685A607B689B68FB60FA68164B1340A0
:104DA000FB603B68DA683B689B681A433B685B7949
:104DB0005B001343FA681343FB607B68FA689A60F0
:104DC0007B68DB6AFB60FB6823F47003FB603B6875
:104DD0001B7C013BDAB2FB7A1343FB72FB7A1B05A7
:104DE000FA681343FB607B68FA68DA621437BD46E1
:104DF0005DF8047B704700BFFDF7F1FF80B483B01E
:104E000000AF78600B46FB70FB78002B06D07B6808
:104E10009B6843F001027B689A6005E07B689B68B1
:104E200023F001027B689A600C37BD465DF8047B75
:104E3000704700BF80B485B000AF786013460A4663
:104E40007A807B700023FB737B88FB737B78002B5D
:104E500006D07B685A68FB7B1A437B685A6006E081
:104E60007B685A68FB7BDB431A407B685A601437C7
:104E7000BD465DF8047B704780B483B000AF7860B6
:104E80007B689B6843F008027B689A600C37BD46DC
:104E90005DF8047B704700BF80B485B000AF7860D8
:104EA0000023FB737B689B6803F00803002B02D090
:104EB0000123FB7301E00023FB73FB7B18461437CF
:104EC000BD465DF8047B704780B483B000AF786066
:104ED0007B689B6843F004027B689A600C37BD4690
:104EE0005DF8047B704700BF80B485B000AF786088
:104EF0000023FB737B689B6803F00403002B02D044
:104F00000123FB7301E00023FB73FB7B184614377E
:104F1000BD465DF8047B704780B483B000AF786015
:104F20000B46FB70FB78002B06D07B689B6843F434
:104F3000A0027B689A6005E07B689B6823F4A0026E
:104F40007B689A600C37BD465DF8047B704700BFF4
:104F500080B483B000AF0346FB71FB79002B06D011
:104F6000084B084A926842F400029A6005E0054B3B
:104F7000044A926822F400029A600C37BD465DF83C
:104F8000047B70470024014080B58CB000AF78608E
:104F900039600023FB620023BB6200237B62002395
:104FA0003B620023FB617B68FB617B681B8A9BB2D1
:104FB000FB62FA6A4CF6FF731340FB623B68DB88C6
:104FC000FA6A1343FB62FB6A9AB27B681A827B68B7
:104FD0009B899BB2FB62FA6A4EF6F3131340FB62A5
:104FE0003B689A883B681B8913439AB23B685B898C
:104FF00013439BB2FA6A1343FB62FB6A9AB27B6863
:105000009A817B689B8A9BB2FB62FA6A4FF6FF43E8
:105010001340FB623B689B89FA6A1343FB62FB6A9D
:105020009AB27B689A8207F108031846FFF7BCFC26
:10503000FA69304B9A4202D17B69BB6201E03B695D
:10504000BB627B689B899BB29BB21BB2002B0CDAC4
:10505000BA6A13469B0013449A001A443B681B68C3
:105060005B00B2FBF3F37B620BE0BA6A13469B0072
:1050700013449A001A443B681B689B00B2FBF3F38D
:105080007B627A6A1C4BA3FB02135B091B01FB6268
:10509000FB6A1B09642202FB03F37A6AD31A3B62A0
:1050A0007B689B899BB29BB21BB2002B0DDA3B6ADB
:1050B000DB0003F13202104BA3FB02135B0903F088
:1050C0000703FA6A1343FB620CE03B6A1B0103F11E
:1050D0003202094BA3FB02135B0903F00F03FA6AC8
:1050E0001343FB62FB6A9AB27B681A813037BD4674
:1050F00080BD00BF003801401F85EB5180B483B0F4
:1051000000AF78600B46FB70FB78002B08D07B6803
:105110009B899BB243F400539AB27B689A8107E063
:105120007B689B899BB223F400539AB27B689A8177
:105130000C37BD465DF8047B704700BF80B487B074
:1051400000AF786013460A467A807B7000233B618B
:105150000023FB600023BB6000237B617B687B61D5
:105160007B88DBB25B09DBB23B617B8803F01F030A
:10517000FB60FB68012202FA03F3BB603B69012B71
:1051800003D17B690C337B6109E03B69022B03D1BE
:105190007B6910337B6102E07B6914337B617B7830
:1051A000002B06D07B697A691168BA680A431A60D5
:1051B00006E07B697A691168BA68D2430A401A60CE
:1051C0001C37BD465DF8047B704700BF80B483B0D8
:1051D00000AF786013460A467A807B707B78002B9C
:1051E00008D07B689B8A9AB27B8813439AB27B680B
:1051F0009A8209E07B689B8A9AB27B88DB439BB2E8
:1052000013409AB27B689A820C37BD465DF8047BE6
:10521000704700BF80B483B000AF78600B467B80DE
:105220007B88DB439AB27B681A800C37BD465DF8F9
:10523000047B704780B487B000AF78600B467B80FA
:105240000023FB6000237B610023BB600023FB7411
:105250007B88DBB25B09DBB2BB607B8803F01F039A
:105260007B617B69012202FA03F37B61BB68012B3E
:1052700006D17B689B899BB27A6913407B610FE002
:10528000BB68022B06D17B681B8A9BB27A691340EC
:105290007B6105E07B689B8A9BB27A6913407B61E6
:1052A0007B881B0A9BB2FB60FB68012202FA03F3B6
:1052B000FB607B681B889BB2FA681340FB607B69CC
:1052C000002B05D0FB68002B02D00123FB7401E00A
:1052D0000023FB74FB7C18461C37BD465DF8047B3D
:1052E000704700BF80B485B000AF78600B467B800C
:1052F0000023FB810023BB817B881B0AFB81FB8988
:10530000012202FA03F3BB81BB89DB439AB27B68BB
:105310001A801437BD465DF8047B704780B485B0B1
:1053200000AF78600B4B1B68002B02D1094B0A4A77
:105330001A60084B1B68FB60064B1A687B681A44AE
:10534000044B1A60FB6818461437BD465DF8047BB1
:10535000704700BF980900201029002080B483B056
:1053600000AF78607B681A684FF6FE7313407A6866
:1053700013607B6800221A607B6800225A607B6899
:1053800000229A607B680022DA607A68434B9A4276
:1053900006D1434B424A526842F00F025A6077E00E
:1053A0007A68404B9A4206D13D4B3D4A526842F0E2
:1053B000F0025A606CE07A683B4B9A4206D1384B57
:1053C000374A526842F470625A6061E07A68374B3B
:1053D0009A4206D1324B324A526842F470425A60C5
:1053E00056E07A68324B9A4206D12D4B2C4A5268CD
:1053F00042F470225A604BE07A682E4B9A4206D1F2
:10540000274B274A526842F470025A6040E07A689B
:10541000294B9A4206D1224B214A526842F07062CF
:105420005A6035E07A68254B9A4206D1244B244ACB
:10543000526842F00F025A602AE07A68214B9A4281
:1054400006D11F4B1E4A526842F0F0025A601FE01C
:105450007A681D4B9A4206D1194B194A526842F498
:1054600070625A6014E07A68184B9A4206D1144B65
:10547000134A526842F470425A6009E07A68144B49
:105480009A4205D10E4B0E4A526842F470225A607D
:105490000C37BD465DF8047B704700BF0800024032
:1054A000000002401C000240300002404400024064
:1054B000580002406C000240800002400804024094
:1054C000000402401C040240300402404404024034
:1054D0005804024080B485B000AF78603960002382
:1054E000FB607B681B68FB60FB6823F4FF4323F0D1
:1054F0007003FB603B689A683B681B6A1A433B6811
:105500001B691A433B685B691A433B689B691A43F2
:105510003B68DB691A433B685B6A1A433B689B6ADA
:105520001343FA681343FB607B68FA681A603B68B0
:10553000DA687B685A603B681A687B689A603B68E7
:105540005A687B68DA601437BD465DF8047B7047A3
:1055500080B483B000AF78600B46FB70FB78002B03
:1055600006D07B681B6843F001027B681A6006E086
:105570007B681A684FF6FE7313407A6813600C3725
:10558000BD465DF8047B704780B485B000AFF8601D
:10559000B9601346FB71FB79002B06D0FB681A68D3
:1055A000BB681A43FB681A6006E0FB681A68BB68B0
:1055B000DB431A40FB681A601437BD465DF8047B74
:1055C000704700BF80B485B000AF78600023FB73E4
:1055D0000023BB607B6803F08053002B03D00C4B8F
:1055E0001B68BB6002E00B4B1B68BB60BA687B6842
:1055F0001340002B02D00123FB7301E00023FB7357
:10560000FB7B18461437BD465DF8047B704700BF2E
:10561000000402400000024080B483B000AF786014
:105620007B6803F08053002B03D0064B7A685A60E6
:1056300002E0054B7A685A600C37BD465DF8047B82
:10564000704700BF000402400000024080B483B0F5
:1056500000AF78607B6803F08053002B03D0064BCB
:105660007A685A6002E0054B7A685A600C37BD468A
:105670005DF8047B704700BF000402400000024058
:1056800080B485B000AF786039600023FB817B680F
:105690001B88FB81FB8903F44153FB813B681A881B
:1056A0003B685B8813439AB23B689B8813439AB26A
:1056B0003B68DB8813439AB23B681B8913439AB259
:1056C0003B685B8913439AB23B689B8913439AB248
:1056D0003B68DB8913439AB2FB891343FB817B68E8
:1056E000FA891A807B689B8B9BB223F400639AB281
:1056F0007B689A833B681A8A7B681A821437BD4696
:105700005DF8047B704700BF80B483B000AF786061
:105710000B46FB70FB78002B08D07B681B889BB284
:1057200043F040039AB27B681A8007E07B681B88CD
:105730009BB223F040039AB27B681A800C37BD46B7
:105740005DF8047B704700BF80B483B000AF786021
:105750000B467B807B687A889A810C37BD465DF862
:10576000047B704780B483B000AF78607B689B890E
:105770009BB218460C37BD465DF8047B704700BFEE
:1057800080B483B000AF78600B467B807A884FF698
:10579000FF639A4208D07B681B889BB243F48073F6
:1057A0009AB27B681A8007E07B681B889BB223F45F
:1057B00080739AB27B681A800C37BD465DF8047B13
:1057C000704700BF80B485B000AF78600B467B8027
:1057D0000023FB737B681B899AB27B8813409BB2C2
:1057E000002B02D00123FB7301E00023FB73FB7B42
:1057F00018461437BD465DF8047B704780B58AB003
:1058000000AF786039600023FB8400237B8404238D
:10581000BB84574BFB617B689B88FB84FB8C23F02C
:105820003F03FB8407F108031846FFF7BDF83B6907
:10583000FB61FA694F4BA3FB02139B0C7B84FA8C30
:105840007B8C1343FB847B68FA8C9A807B681B8873
:105850009BB223F001039AB27B681A800023FB8479
:105860003B681A68444B9A4215D83B681B685B003A
:10587000FA69B2FBF3F3BB84BB8C032B01D804237E
:10588000BB84FA8CBB8C1343FB847B8C01339AB2B0
:105890007B681A8440E03B68DA884BF6FF739A42D3
:1058A00009D13B681A6813465B001344FA69B2FBDE
:1058B000F3F3BB840EE03B681A6813469B00134465
:1058C0009A001344FA69B2FBF3F3BB84BB8C43F434
:1058D0008043BB84BB8CC3F30B03002B03D1BB8C75
:1058E00043F00103BB84BA8CFB8C13439BB26FEA79
:1058F00043436FEA5343FB847B8C4FF4967202FB65
:1059000003F31E4A82FB03129211DB17D31A9BB2D8
:1059100001339AB27B681A847B68FA8C9A837B681D
:105920001B889BB243F001039AB27B681A807B68A4
:105930001B88FB84FB8C23F4816323F00203FB842C
:105940003B689A883B685B8913439AB2FB8C13438C
:10595000FB847B68FA8C1A803B689A893B681B89B8
:1059600013439AB27B681A812837BD4680BD00BFB9
:1059700000127A0083DE1B43A0860100D34D621023
:1059800080B483B000AF78600B46FB70FB78002BCF
:1059900008D07B681B889BB243F001039AB27B68F6
:1059A0001A8007E07B681B889BB223F001039AB240
:1059B0007B681A800C37BD465DF8047B704700BFDA
:1059C00080B483B000AF78600B46FB70FB78002B8F
:1059D00008D07B681B889BB243F480639AB27B68D3
:1059E0001A8007E07B681B889BB223F480639AB21D
:1059F0007B681A800C37BD465DF8047B704700BF9A
:105A000081F0004102E000BF83F0004330B54FEA6F
:105A100041044FEA430594EA050F08BF90EA020FDC
:105A20001FBF54EA000C55EA020C7FEA645C7FEA6F
:105A3000655C00F0E2804FEA5454D4EB5555B8BF92
:105A40006D420CDD2C4480EA020281EA030382EA03
:105A5000000083EA010180EA020281EA0303362D95
:105A600088BF30BD11F0004F4FEA01314FF4801C68
:105A70004CEA113102D0404261EB410113F0004F7A
:105A80004FEA03334CEA133302D0524263EB430331
:105A900094EA050F00F0A780A4F10104D5F1200ECF
:105AA0000DDB02FA0EFC22FA05F2801841F100012A
:105AB00003FA0EF2801843FA05F359410EE0A5F1FE
:105AC00020050EF1200E012A03FA0EFC28BF4CF02F
:105AD000020C43FA05F3C01851EBE37101F00045E5
