:020000040800F2
:10000000103D0020D5020008350300083503000824
:100010003503000835030008350300080000000020
:100020000000000000000000000000003503000890
:100030003503000800000000350300082D07000804
:1000400035030008350300083503000835030008B0
:1000500035030008350300083503000835030008A0
:1000600035030008350800081508000835030008A6
:1000700035030008350300084D0D0008350300085E
:100080003503000835030008990B00083503000804
:10009000350300083503000835030008550800083B
:1000A0003503000835030008350300083503000850
:1000B0003503000835030008350300083503000840
:1000C00035030008350300083503000861100008F7
:1000D00035030008D9100008451100083503000851
:1000E000E10800083503000835030008000000009F
:1000F0000000000000000000000000000000000000
:1001000000000000000000005FF808F110B5054C89
:10011000237833B9044B13B10448AFF300800123B3
:10012000237010BDB80800200000000068CA000855
:1001300008B5064B1BB106480649AFF300800648D8
:10014000036813B1054B03B1984708BD00000000D8
:1001500068CA0008BC080020B408002000000000A5
:1001600080B500AF154B154A126842F001021A60C3
:10017000124A124B5968124B0B4053600F4A0F4BF7
:100180001B6823F0847323F4803313600B4B0B4AFA
:10019000126822F480221A60084B084A526822F43E
:1001A000FE025A60054B4FF41F029A6000F00CF8F3
:1001B000044B4FF000629A6080BD00BF0010024007
:1001C0000000FFF800ED00E080B500AF00F002F89D
:1001D00080BD00BF80B483B000AF00237B600023EC
:1001E0003B603A4B394A126842F480321A60374B0E
:1001F0001B6803F400333B607B6801337B603B6822
:10020000002B03D17B68B3F5A06FF0D12F4B1B6897
:1002100003F40033002B02D001233B6001E00023F4
:100220003B603B68012B4BD1294B294A126842F0B5
:1002300010021A60264B264A126822F003021A6046
:10024000234B234A126842F002021A601F4B1F4AD6
:1002500052685A601D4B1D4A52685A601B4B1B4A1C
:10026000526842F480625A60184B184A526822F46D
:100270007C125A60154B154A526842F4E8125A60D3
:10028000124B124A126842F080721A6000BF0F4B84
:100290001B6803F00073002BF9D00C4B0B4A52681B
:1002A00022F003025A60094B084A526842F00202E7
:1002B0005A6000BF054B5B6803F00C03082BF9D1B3
:1002C0000C37BD465DF8047B704700BF001002404C
:1002D0000020024080B582B000AF114B7B60114B13
:1002E0003B6007E03B681A1D3A607A68111D79602F
:1002F00012681A603A680C4B9A42F3D30B480C49C7
:100300004FF000028842B8BF40F8042BFFF6FAAF66
:10031000FFF726FF05F02CF90837BD4680BD00BF6A
:1003200070CA000800000020B8080020B8080020AB
:100330001029002080B400AFFEE700BF80B489B070
:1003400000AF786039600023FB6100233B6100232C
:10035000BB610023FB6000237B610023BB603B6823
:10036000DB7803F00F03FB613B68DB7803F01003DD
:10037000002B04D03B689B78FA691343FB613B6810
:100380001B88DBB2002B44D07B681B687B61002399
:10039000BB6138E0BB69012202FA03F3FB603B68F2
:1003A0001B881A46FB6813403B613A69FB689A4216
:1003B00026D1BB699B00FB60FB680F2202FA03F3A6
:1003C000BB60BB68DB437A6913407B61FB68FA69F9
:1003D00002FA03F37A6913437B613B68DB78282BCD
:1003E00005D1BB6901229A407B685A6108E03B68ED
:1003F000DB78482B04D1BB6901229A407B681A61E3
:10040000BB690133BB61BB69072BC3D97B687A69C0
:100410001A603B681B88FF2B46D97B685B687B6151
:100420000023BB613AE0BB690833012202FA03F3FF
:10043000FB603B681B881A46FB6813403B613A69C6
:10044000FB689A4227D1BB699B00FB60FB680F22C7
:1004500002FA03F3BB60BB68DB437A6913407B613C
:10046000FB68FA6902FA03F37A6913437B613B681C
:10047000DB78282B05D1BB69083301229A407B68C1
:100480005A613B68DB78482B05D1BB6908330122F0
:100490009A407B681A61BB690133BB61BB69072B5A
:1004A000C1D97B687A695A602437BD465DF8047B00
:1004B000704700BF80B487B000AF78600B46FB7018
:1004C00000233B610023FB6000237B610023BB60B2
:1004D0007B68002B03DA2E4BDB697B6102E02C4B3F
:1004E0005B687B617B6803F470231B0CBB607B68DB
:1004F0009BB23B617B6803F44013B3F5401F0AD104
:100500007B6923F070637B61214B214A526822F0A2
:1005100070625A6021E07B6803F48013002B0ED0D8
:10052000BB68032202FA03F3FB60FB68DB437A69D2
:1005300013407B617B6943F070637B610DE07B68F6
:100540005B0D1B013A6902FA03F3DB437A6913403E
:100550007B617B6943F070637B61FB78002B08D083
:100560007B685B0D1B013A6902FA03F37A69134356
:100570007B617B68002B03DA054B7A69DA6102E064
:10058000034B7A695A601C37BD465DF8047B70479F
:100590000000014090B484B000AF02460B46FA71EF
:1005A000BB710023FB60BB7903F003039B000F22A8
:1005B00002FA03F3FB60154BBA799208D2B21349E1
:1005C000B8798008C0B2023051F82000F968C943F8
:1005D0000140023243F822100C4BBA799208D2B291
:1005E0000A49B8798008C0B2023051F82000FC797D
:1005F000B97901F00301890004FA01F101430232E3
:1006000043F822101037BD4690BC704700000140EF
:1006100080B483B000AF0346FB71084B97F9072005
:100620005209F97901F01F01012000FA01F143F8A4
:1006300022100C37BD465DF8047B704700E100E0F6
:1006400080B483B000AF03463960FB7197F907307F
:10065000002B0BDA0D49FB7903F00F03043B3A68DA
:10066000D2B21201D2B20B441A7609E0084997F9C6
:1006700007303A68D2B21201D2B20B4483F8002399
:100680000C37BD465DF8047B704700BF00ED00E00D
:1006900000E100E080B582B000AF78607B68B3F124
:1006A000807F01D3012311E00A4B7A6822F07F4258
:1006B000013A5A604FF0FF300F21FFF7C1FF054BA1
:1006C00000229A60034B07221A600023184608375D
:1006D000BD4680BD10E000E080B500AF44F67D006F
:1006E000012105F073F8054B1A68054BA3FB0213B3
:1006F0009B091846FFF7CEFF80BD00BF0000002019
:10070000D34D621080B483B000AF78607A68064B36
:100710001A6000BF044B1B68002BFBD10C37BD4691
:100720005DF8047B704700BF940C002080B400AFDC
:100730001F4B1B68002B04D01D4B1B685A1E1C4B03
:100740001A601C4B1B685A1C1A4B1A601A4B1B6808
:100750005A1C194B1A60194B1B780133DAB2174B2C
:100760001A70174B1B685A1C154B1A60154B1B88C7
:10077000002B05D0134B1B88013B9AB2114B1A80FA
:10078000114B1B68B3F5FA7F04DA0F4B1B685A1C38
:100790000D4B1A600D4B1B78012B05D10C4B1B78B0
:1007A0000133DAB20A4B1A70BD465DF8047B70471C
:1007B000940C0020D408002048090020540900208F
:1007C00050090020800900204009002069280020ED
:1007D0006728002080B500AF01200521FFF7DAFE71
:1007E0000B4B00221A710A4B08225A71084B202227
:1007F0001A60074B01229A71054805F041F817204D
:100800000121FFF71DFF1720FFF702FF80BD00BF8A
:100810007028002080B500AF102005F0ADF8034629
:10082000002B05D0102005F099F8102005F0C8F82D
:1008300080BD00BF80B500AF082005F09DF80346DD
:10084000002B05D0082005F089F8082005F0B8F83D
:1008500080BD00BF80B500AF202005F08DF80346B5
:10086000002B05D0202005F079F8202005F0A8F80D
:10087000402005F081F80346002B05D0402005F00C
:100880006DF8402005F09CF8802005F075F80346CF
:10089000002B05D0802005F061F8802005F090F84D
:1008A0004FF4807005F068F80346002B07D04FF432
:1008B000807005F053F84FF4807005F081F84FF424
:1008C000007005F059F80346002B07D04FF4007074
:1008D00005F044F84FF4007005F072F880BD00BFD9
:1008E00080B500AF4FF4006005F046F80346002BDA
:1008F00003D04FF4006005F063F84FF4806005F01A
:100900003BF80346002B03D04FF4806005F058F805
:100910004FF4805005F030F80346002B03D04FF41D
:10092000805005F04DF84FF4005005F025F80346CF
:10093000002B06D04FF4005005F042F80F4B012277
:100940001A704FF4804005F017F80346002B06D0CC
:100950004FF4804005F034F8094B01221A704FF42F
:10096000004005F009F80346002B06D04FF4004084
:1009700005F026F8034B01221A7080BD41280020A3
:10098000CC0C00206828002080B500AF4848012129
:10099000FFF790FD474B474A526842F000725A6099
:1009A000454B4FF410621A80434B1022DA70424BD1
:1009B00003229A7041484049FFF7C0FC3E4B102289
:1009C0001A803D4B4822DA703B4B03229A703B4819
:1009D0003949FFF7B3FC384B4FF480721A80364B1D
:1009E0001022DA70344B03229A7035483249FFF7EF
:1009F000A5FC314B20221A802F4B4822DA702E4B57
:100A000003229A702E482C49FFF798FC2A4B882223
:100A10001A80294B1022DA70274B03229A7029483A
:100A20002549FFF78BFC244B4FF440721A80224B70
:100A30004822DA70204B03229A7022481E49FFF7A1
:100A40007DFC1D4B4FF68C421A801B4B1022DA7036
:100A5000194B03229A701C481749FFF76FFC164B7D
:100A600060221A80144B4822DA70134B03229A70CA
:100A700015481149FFF762FC0F4B7E221A800E4B7E
:100A80001022DA700C4B03229A7010480A49FFF7C3
:100A900055FC094B4FF680721A80074B4822DA70DA
:100AA000054B03229A7009480349FFF747FC80BDB4
:100AB0000004300000000140302800200008014000
:100AC000000C0140001001400014014000180140DA
:100AD00080B500AF4FF4804004F08CFD4FF40070FF
:100AE000012104F073FE0420012104F06FFE264B67
:100AF00030221A80244B0022DA70234B03229A7092
:100B000022482149FFF71AFC214B00221A60204B92
:100B100000221A711E4B00225A711D4B4FF46022A5
:100B20009A601B4B0022DA60194B01221A74194893
:100B3000174904F053FF012005F04CF815484FF415
:100B40000871012204F0B8FF1220FFF761FD11487F
:100B5000012104F095FF0F4804F0D0FF00BF0D48BD
:100B600004F0DCFF0346002BF9D10A4804F0EEFF45
:100B700000BF084804F0FAFF0346002BF9D10548EE
:100B8000012105F00BF880BD302800200010014045
:100B9000301D00200024014080B400AF084B084AFB
:100BA000126822F002021A60054BDA6C054B1A60DB
:100BB000054B01221A70BD465DF8047B704700BFEB
:100BC00000240140680900206409002080B582B03B
:100BD00000AF78600A4B7A685A630A4B00221A7099
:100BE0000748012104F0DAFF00BF064B1B78012BF8
:100BF000FBD1054B1B6818460837BD4680BD00BFBA
:100C000000240140640900206809002080B500AF7D
:100C1000264B4FF400721A80244B03229A70234B08
:100C20001822DA7022482149FFF788FB1F4B4FF446
:100C300080621A801D4B03229A701C4B0422DA70CA
:100C40001B481A49FFF77AFB4FF48040012104F05A
:100C5000BDFD184B4FF4E1321A60164B00229A800A
:100C6000144B0022DA80134B00221A81114B0C2204
:100C70005A81104B00229A8125200F21FFF7E0FCBA
:100C80002520FFF7C5FC0C4840F22551012205F054
:100C900097F80948012105F073F80748054904F061
:100CA000B5FF0120012104F073FD80BD3028002034
:100CB00000080140101D00200038014080B58EB0B2
:100CC00000AF78600B467B801D4805F089F91D4B0D
:100CD000FB607B683B6110237B617B88BB610023E9
:100CE000FB6180233B6200237B620023BB62002305
:100CF000FB6200233B6300237B6307F10C03104876
:100D0000194605F029FA0E200E21FFF799FC0E2056
:100D1000FFF77EFC0A480221012205F077FA0A4813
:100D2000C02105F0B9F808488021012205F090F8AB
:100D30000348012105F04EFA3837BD4680BD00BF9B
:100D400044000240043801400038014080B500AF43
:100D50004FF4005005F078FA0346002B14D00C48ED
:100D6000002105F037FA4FF4005005F097FA4FF4E0
:100D7000005005F0ADFA0748002105F02BFA0648AF
:100D8000C021002205F064F8044B00221A7080BDD7
:100D90005800024044000240003801408C09002005
:100DA00080B500AF214B04221A80204B03229A7099
:100DB0001E4B1822DA701E481C49FFF7BFFA1B4B66
:100DC00008221A80194B03229A70184B0422DA70F9
:100DD00017481649FFF7B2FA4FF40030012104F02A
:100DE00013FD144B144A1A60124B00229A80114BC7
:100DF0000022DA800F4B00221A810E4B0C225A81FE
:100E00000C4B00229A812620FFF702FC0B4840F28F
:100E10002551012204F0D4FF0848012104F0B0FF5D
:100E20000648044904F0F2FE80BD00BF30280020CF
:100E300000080140BC0C0020688909000044004003
:100E400080B485B000AF0346FB800023FB6002E066
:100E5000FB680133FB60FA88FB689A42F8DC1437C0
:100E6000BD465DF8047B704780B584B000AF0023B9
:100E7000FB600023FB720D4B1B78DBB2002B12D101
:100E80000B4B1B68012B0ED9094B1B687B607B68E1
:100E90009BB208481946FFF711FF054B00221A6064
:100EA000024B01221A701037BD4680BD8C0900200C
:100EB000AC0C0020000D002080B584B000AF78603D
:100EC0000023BB810023FB811A4B1B78DBB2002B74
:100ED0002DD1786806F006FD0346BB81BA89164B12
:100EE0001B681A4440F6FB739A4202D9124B002247
:100EF0001A60114B1B68FB810CE0FB89F9890E4AD3
:100F000012688A1A79680A4411780C4AD154FB890C
:100F10000133FB81FA89B989074B1B680B449A425C
:100F2000EBD3BA89044B1B681A44034B1A60103781
:100F3000BD4680BD8C090020AC0C0020000D0020B7
:100F400080B485B000AF78600B46FB701A4B1B78FD
:100F5000DBB2002B2AD1FB78BB81BA89174B1B6807
:100F60001A4440F6FB739A4202D9144B00221A60CD
:100F7000124B1B68FB810CE0FB89F9890F4A126850
:100F80008A1A79680A4411780D4AD154FB890133D1
:100F9000FB81FA89B989094B1B680B449A42EBD350
:100FA000BA89064B1B681A44044B1A601437BD46B5
:100FB0005DF8047B704700BF8C090020AC0C00205A
:100FC000000D002080B586B000AF0920012104F09B
:100FD000FDFB4FF48040012104F016FC4FF4204348
:100FE000BB821823FB750323BB7507F114031A4852
:100FF0001946FFF7A3F94FF48043BB821C23FB750E
:101000000323BB7507F1140313481946FFF796F93C
:1010100000233B804FF482737B800023BB8000233E
:10102000FB8000233B814FF400737B812023BB8135
:101030000023FB813B460948194605F063F9074840
:10104000012105F0A3F905484FF4807105F0DAF9A4
:101050001837BD4680BD00BF000C0140003800407D
:1010600080B582B000AF0748012105F0EDF90346D5
:10107000012B03D1034B9B899BB2FB710837BD4603
:1010800080BD00BF0030014080B584B000AF034692
:10109000FB71FB799BB20F48194605F097F900BF29
:1010A0000C48022105F0D0F90346002BF8D000BF10
:1010B0000848012105F0C8F90346002BF8D005487F
:1010C00005F092F90346FB73FB7B18461037BD46CB
:1010D00080BD00BF0038004080B582B000AF154829
:1010E00040F2255104F0E8FE0346002B04D01148DD
:1010F00040F2255104F038FF0E4B9B889BB2FB71E8
:101100000D4B1B785A1CD1B20B4A11700B4AF9795E
:10111000D1540B4B1B780133DAB2094B1A70054BD3
:101120001B889BB2BB71034B9B889BB2BB7108377A
:10113000BD4680BD003801403F280020900B0020B4
:101140001D27002080B582B000AF154840F2255120
:1011500004F0B2FE0346002B04D0114840F22551A2
:1011600004F002FF0E4B9B889BB2FB710D4B1B786A
:101170005A1CD1B20B4A11700B4AF979D1540B4B5E
:101180001B780133DAB2094B1A70054B1B889BB2EE
:10119000BB71034B9B889BB2BB710837BD4680BDBA
:1011A00000440040201D002014200020B40C00202A
:1011B00080B485B000AF78600023FB7302E0FB7B56
:1011C0000133FB73FB7B7A6813441B78002B02D03E
:1011D000FB7B772BF3D9FB7B18461437BD465DF8B4
:1011E000047B704780B483B000AF00BF0C4B1B780A
:1011F000002BFBD00B4B1B785A1CD1B2094A117043
:10120000094AD35CFB71064B1B78013BDAB2044BF5
:101210001A70FB7918460C37BD465DF8047B7047A1
:101220001D27002000200020900B002080B586B0F4
:1012300000AF786000237B61786806F053FB0346BB
:10124000013B3B6117E07B697A6813441B78FB73B1
:101250007B697A6813443A6979680A4412781A708B
:101260003B697A681344FA7B1A707B6901337B61AE
:101270003B69013B3B617A693B699A42E3DB183782
:10128000BD4680BD80B584B000AF786039607B68B2
:10129000BB60BB68002B02DA7B685B427B6000238B
:1012A000FB60FB685A1CFA603A68D0187968174BE3
:1012B00083FB01239A10CB17D21A13469B001344C9
:1012C0005B00CA1AD3B23033DBB203707B680F4ABB
:1012D00082FB03129210DB17D31A7B607B68002B12
:1012E000DFDCBB68002B06DAFB685A1CFA603A6840
:1012F00013442D221A70FB683A68134400221A70B6
:101300003868FFF793FF1037BD4680BD6766666695
:1013100080B582B000AF786039607868FFF7CCFDA7
:101320003B6818460549FFF7ADFF0448FFF7C4FDC9
:101330000348FFF7C1FD0837BD4680BDE028002007
:1013400000BB000880B582B000AF78603960786873
:10135000FFF7B2FD3B6818460449FFF793FF0348C7
:10136000FFF7AAFD0837BD4680BD00BFE02800207A
:1013700080B582B000AF786039607868FFF79CFD77
:10138000064807493A6806F069F90448FFF794FDF2
:101390000448FFF791FD0837BD4680BDE0280020D6
:1013A00004BB000800BB000890B585B000AF034641
:1013B000FB71974B974A5A62954B974A9A62944BA6
:1013C000964ADA62924B964A1A63914B954A5A634F
:1013D0008F4B954ADA638E4B944A1A668C4B944A2B
:1013E000C3F8A4208A4B934AC3F81821884B4FF0C6
:1013F0000002C3F80822864B8F4AC3F89823844B17
:101400004FF08242C3F828250023FB8115E0FB89B9
:10141000A3F1090213465B0013445B00A3F51673A6
:10142000184605F0B3FE0346BB60FA89784BB968ED
:1014300043F82210FB890133FB81FB89082BE6D995
:101440000923FB8126E0FB89093B184605F06CFA6D
:1014500002460B461046194663A3D3E9002305F064
:10146000C9FA02460B46104619464FF00002734B6C
:1014700005F00CF902460B461046194605F07CFDB6
:101480000346BB60FA89624BB96843F82210FB89B6
:101490000133FB81FB890F2BD5D90F23FB8113E08F
:1014A000FB89A3F10F0213469B001344C83B184667
:1014B00005F06CFE0346BB60FA89554BB96843F8EA
:1014C0002210FB890133FB81FB89182BE8D91823F3
:1014D000FB8126E0FB89183B184605F025FA0246F9
:1014E0000B461046194642A3D3E9002305F082FAC1
:1014F00002460B46104619463FA3D3E9002305F0E8
:10150000C5F802460B461046194605F035FD034660
:10151000BB60FA893E4BB96843F82210FB8901335E
:10152000FB81FB89292BD5D92923FB8126E0FB8967
:10153000293B184605F0F8F902460B4610461946B5
:101540002FA3D3E9002305F055FA02460B461046B7
:1015500019464FF000023A4B05F098F802460B4648
:101560001046194605F008FD0346BB60FA89284B72
:10157000B96843F82210FB890133FB81FB89462BB4
:10158000D5D94623FB8126E0FB89463B184605F06A
:10159000CBF902460B46104619461BA3D3E900239C
:1015A00005F028FA02460B46104619464FF0000295
:1015B000244B05F06BF802460B461046194605F021
:1015C000DBFC0346BB60FA89114BB96843F8221073
:1015D000FB890133FB81FB89822BD5D98223FB81D7
:1015E0005AE000BFAFF300809A99999999992040E9
:1015F0009A999999999905400000000000C06240AD
:10160000333333333333FB3F8FC2F5285C8FEA3FEC
:10161000202100200000C8C10000C0C10000B8C1E6
:101620000000B0C10000A8C10000A0C1000070C14E
:10163000000020C10000A0C00000A04000406F409A
:101640000000594000004940FB89823B184605F0E4
:101650006BF902460B46104619464FF00002384B14
:1016600005F0C8F902460B46104619464FF0000235
:101670004FF0000305F00CF802460B4610461946E1
:1016800005F07AFC0346BB60FA892E4BB96843F833
:101690002210FB890133FB81FB89E62BD4D9E62399
:1016A000FB8126E0FB89E63B184605F03DF9024642
:1016B0000B461046194620A3D3E9002305F09AF9FA
:1016C00002460B46104619464FF000021E4B04F02E
:1016D000DFFF02460B461046194605F04DFC034657
:1016E000BB60FA89174BB96843F82210FB890133B4
:1016F000FB81FB89B3F5A77FD4D3FB79002B17D0EF
:101700000023FB8110E0FC89FA890E4B53F822304C
:1017100018460E4905F042FE03461A46094B43F8A7
:101720002420FB890133FB81FB89B3F5A77FEAD332
:101730001437BD4690BD00BF8FC2F5285C8FD23FE5
:101740000000E03F2021002000004940000020412F
:1017500080B588B000AF78600023FB610023BB61D7
:1017600000237B6100233B610023FB732C4B1B6830
:10177000FB612B4B1B68002B03D17868FFF718FD2A
:10178000F861274B00221A60FB69BB61254B0022E0
:101790001A60254B1B681846244905F007FF0346CD
:1017A000002B03D1224B1B889D2B37D9214B0022C4
:1017B0001A701D4B4FF000021A601F4B00221A6076
:1017C0001E4B00221A701E4B00221A701D4B002265
:1017D0001A601D4B01221A601C4B01221A601C4B1F
:1017E00000221A701B4B00221A701B4B00221A7029
:1017F0001A4B00221A601A4B00221A60194B202241
:101800001A70194B20221A70184B00221A70184BAC
:1018100000221A70064B00221A80A7E1A6E100BF41
:10182000E0080020F0080020B80C0020000048422A
:101830000E090020EE080020E8080020EC08002037
:10184000ED080020F4080020F8080020FC08002023
:1018500004090020050900200609002000090020D5
:1018600008090020D00900204C2600201009002083
:101870000C090020774B1B687A6813441B787E2B79
:101880003AD1754B1B78002B36D1734B01221A705D
:10189000724B4FF000021A60714B00221A60714BBC
:1018A00000221A70704B00221A70704B00221A60CE
:1018B0006F4B01221A606F4B01221A606E4B00229F
:1018C0001A706E4B00221A706D4B00221A706D4B0D
:1018D00000221A606C4B00221A606C4B20221A7096
:1018E0006B4B20221A706B4B00221A706A4B00223D
:1018F0001A706A4B00221A80594B1B68554A1268AD
:1019000079680A441178664AD154644B1B880133C4
:101910009AB2624B1A80524B1B68614AD35C3B2BD4
:1019200010D15D4B1B78002B0CD14B4B1B78012B3E
:1019300008D1494B00221A704B4B01221A70554BAB
:1019400001221A70464B1B68554AD35C3D2B05D0CB
:10195000434B1B68524AD35C3A2B09D1464B1B7848
:10196000002B05D1444B01221A704A4B01221A70F8
:101970003B4B1B684A4AD35C2E2B0DD13F4B1B7847
:10198000002B09D1444B1B78002B05D13B4B012286
:101990001A70404B01221A70314B1B68404AD35CCD
:1019A000242B09D1364B1B78002B05D1344B022256
:1019B0001A70384B01221A70294B1B68022B40F217
:1019C0009A80374B9B78202B40F09580314B1B78C9
:1019D000002B40F090802A4B1B78012B00F28B806B
:1019E000254B1B78012B07D0204B1B681C4A126823
:1019F0002B49895C2B4AD1541F4B1B78012B0BD1EF
:101A00001E4B1B78002B07D1194B1B68144A126818
:101A10002349895C1D4AD154174B1B78012B0BD1EC
:101A2000164B1B78012B07D1124B1B680C4A12680E
:101A30001B49895C164AD1540F4B1B78012B33D0BC
:101A40000A4B1B681F2B56D8084B1B685A1C074BA8
:101A50001A6050E0F0080020EE080020B80C0020CA
:101A6000E8080020EC080020ED080020F408002021
:101A7000F8080020FC0800200409002005090020C7
:101A8000060900200009002008090020D0090020D4
:101A90004C260020100900200C0900200E0900200F
:101AA00024270020D00C00208F4B1B78012B11D154
:101AB0008E4B1B78002B0DD18D4B1B68C72B09D883
:101AC0008B4B1B685A1C8A4B1A608A4B1B685A1C2A
:101AD000884B1A60844B1B78012B0CD1834B1B78ED
:101AE000012B08D1844B1B68C72B04D8824B1B6881
:101AF0005A1C814B1A60814B1B78022B0DD1804BF5
:101B00001B78002B09D17F4B1B687F4AD35C1A4698
:101B10007E4B1A60794B01221A70764B1A687B4B08
:101B20001B689A4207D2754B1B78012B03D1784B67
:101B300001221A7002E0764B00221A70714B1B686A
:101B4000C72B04D86F4B1B685A1C6E4B1A60714B25
:101B50001B68C72B04D86F4B1B685A1C6D4B1A604F
:101B6000FB69013BFB61664B00221A70FB69002B8D
:101B70007FF480AE684B1B78012B40F07882674B76
:101B80001B685A1C654B1A605F4B1B787E2B06D175
:101B9000634B1B7843F00103DAB2614B1A705A4B66
:101BA0005A78604B1B789A4206D15D4B1B7843F004
:101BB0000203DAB25A4B1A70594B1B78032B40F0D0
:101BC000B5815948594905F06FFD0346002B1DD1D9
:101BD000574805F0F5FC03461A46564B1A60554B1C
:101BE0001B6855481946FFF793FB524B1B68002BA7
:101BF00003D1524B08225A6198E14E4B1B68012BCE
:101C000040F094814D4B08221A618FE146484C49BF
:101C100005F04AFD0346002B12D1454805F0D0FCE3
:101C200003461A46434B1A60424B1B684548194607
:101C3000FFF76EFB3F4B1B68184603F09BFB75E1FB
:101C40003948414905F030FD0346002B0CD13F488F
:101C5000FFF732F93E48FFF72FF93E4B1B783E481D
:101C60001946FFF785FB61E12F483C4905F01CFD53
:101C70000346002B09D13A48FFF71EF93448FFF715
:101C80001BF9002000F0B2FB50E12748354905F070
:101C90000BFD0346002B06D13148FFF70DF92C4808
:101CA000FFF70AF942E120482F4905F0FDFC034601
:101CB000002B08D12D48FFF7FFF82548FFF7FCF867
:101CC00000F0E8FD32E11848294905F0EDFC034633
:101CD000002B51D12748FFF7EFF81D48FFF7ECF82C
:101CE00000F084FB22E100BF040900200509002068
:101CF000F808002008090020FC0800200609002040
:101D000010090020E80800202427002000090020F6
:101D10000C090020F0080020ED0800202C0900200C
:101D2000EC08002014000020D00C002034BB000878
:101D3000D00900201809002038BB0008001001401D
:101D400044BB00084CBB00085CBB000860BB00083B
:101D50006CBB0008740B002070BB000878BB000847
:101D600080BB000890BB000898BB0008A0BB00081F
:101D7000B0BB0008B8BB00088348844905F094FC58
:101D80000346002B29D1824805F01AFC03461A4667
:101D9000804B1A60804805F013FC03461A467F4BBF
:101DA0001A607C4B1B687E481946FFF7CBFA7B4BC9
:101DB0001B687C481946FFF7ABFA764B1B68DAB212
:101DC000764B1B68DBB21046194600F0A1FC0346B7
:101DD00075481946FFF7CCFAA8E06B48734905F03F
:101DE00063FC0346002B25D1694805F0E9FB034657
:101DF0001A46684B1A60684805F0E2FB03461A462B
:101E0000664B1A60634B1B6869481946FFF780FAF6
:101E1000624B1B6867481946FFF77AFA5D4B1B68EF
:101E2000DAB25E4B1B68DBB210461946624A00F01C
:101E300011FC7BE05448614905F036FC0346002B59
:101E400019D1534805F0BCFB03461A46514B1A60A2
:101E5000514805F0B5FB03461A46504B1A604D4BEE
:101E60001B6857481946FFF753FA4A4B1B68184638
:101E700000F0A2FC5AE04448524905F015FC034624
:101E8000002B19D1424805F09BFB03461A46414BF3
:101E90001A60414805F094FB03461A463F4B1A600E
:101EA0003C4B1B6848481946FFF732FA394B1B6810
:101EB000184600F0B5FC39E03348444905F0F4FB1E
:101EC0000346002B14D1324805F07AFB03461A462C
:101ED000304B1A602F4B1B683D481946FFF718FA24
:101EE0002C4B1B68082004211A4600F0B3FB1DE0B0
:101EF0002548384905F0D8FB0346002B16D1244865
:101F000005F05EFB03461A46224B1A60214B1B6804
:101F100031481946FFF7FCF91E4B1B681846FEF7BF
:101F200055FE03462D481946FFF7F2F90023FB61E1
:101F300007E0154AFB69134400221A70FB6901335C
:101F4000FB61FB691F2BF4D90023FB6107E0104AFA
:101F5000FB69134400221A70FB690133FB61FB69C2
:101F6000C82BF4D90023FB6107E00B4AFB6913443B
:101F700000221A70FB690133FB61FB69C82BF4D99D
:101F80000023FB6134E000BFD00C0020C8BB000878
:101F9000D0090020180900204C2600201409002038
:101FA000D0BB0008E0BB0008E4BB0008ECBB0008A5
:101FB000F4BB000804BC0008DDCCBBAA08BC0008C8
:101FC00018BC000830BC000840BC000858BC000821
:101FD00064BC000878BC00087CBC000888BC000811
:101FE000354AFB69134400221A70FB690133FB6117
:101FF000FB69C72BF4D9314B4FF000021A60304B0C
:1020000000221A702F4B00221A602F4B00221A70E8
:102010000023FB612D4B00221A702D4B00221A6009
:102020002C4B00221A602C4B00221A702B4B0022E2
:102030001A602B4B00221A702A4B00221A602A4B7E
:1020400000221A70294B00221A60294B00221A60C4
:10205000284B00221A70284B00221A70274B20228E
:102060001A70274B20221A70264B00221A80174B19
:102070001B78012B1DD1144B1B78012B19D1224B3E
:102080001B78002B15D12148FEF716FF0D4B1B685E
:10209000DBB209481946FEF753FF1C48FEF70CFF58
:1020A0001B4B00221A701B4B00221A701A4B002285
:1020B0001A702037BD4680BD24270020B80C0020B0
:1020C000EE080020E8080020EC080020ED080020C1
:1020D000F4080020F808002004090020FC08002073
:1020E00005090020F0080020060900200009002052
:1020F00008090020100900200C090020D009002048
:102100004C2600200E090020E408002000BB000837
:102110003F280020002000201D27002080B400AFB1
:102120000D4B1B78312B03D80C4B4FF400621A6116
:10213000094B1B78322B03D9084B4FF400625A61CC
:10214000054B1B78642B02D9034B00221A70BD4645
:102150005DF8047B704700BF54090020000801406F
:1021600090B583B000AF0023FB800023BB80002329
:10217000FB701C4B1B78002B31D01A4B1B78C72BE4
:1021800003D8184B1B78BB8001E0C823BB80002319
:10219000FB8018E0FC88FFF725F803461A46124B2F
:1021A0001A55FB8801331A46104B1A60FB880E4AF9
:1021B000D35C3B2B04D10123FB70BB88FB8006E082
:1021C000FB880133FB80FA88BB889A42E2D3074B35
:1021D0001B68054A0021D1540348FFF7B9FA0C37B0
:1021E000BD4690BD1D2700209C0A0020E00800206D
:1021F00080B500AF694B1B68FA2B02DD684B0022EB
:102200001A60664B1B68F92B0CDC654B1B68002BB6
:1022100008D1644B1B785B00DAB2624B1A70604BDA
:1022200001221A605F4B1B78082B4AD0082B06DC72
:10223000022B22D0042B32D0012B0CD09BE0202B80
:1022400063D0202B02DC102B4DD094E0402B6ED0BD
:10225000802B7ED08FE0544B40225A61534B4FF479
:1022600080621A61514B4FF400621A614E4B042296
:102270005A614D4B08225A617DE04B4B40221A6156
:102280004A4B4FF480625A61484B4FF400621A6126
:10229000454B04225A61444B08225A616BE0424B81
:1022A00040221A61414B4FF480621A613F4B4FF458
:1022B00000625A613C4B04225A613B4B08225A612E
:1022C00059E0394B40221A61384B4FF480621A6151
:1022D000364B4FF400621A61334B04221A61324BC1
:1022E00008225A6147E0304B40221A612F4B4FF4CD
:1022F00080621A612D4B4FF400621A612A4B04224E
:102300005A61294B08221A6135E0274B40225A6155
:10231000264B4FF480621A61244B4FF400621A611D
:10232000214B04221A61204B08225A6123E01E4BE4
:1023300040221A611D4B4FF480625A611B4B4FF4CF
:1023400000621A61184B04225A61174B08221A6165
:1023500011E0154B40221A61144B4FF480621A6150
:10236000124B4FF400621A610F4B04225A610E4B5C
:1023700008225A6100BF094B1B68B3F5FA7F02D1EE
:10238000064B00221A60074B1B78002B02D1054B2D
:1023900001221A70FFF7C2FE80BD00BF4009002075
:1023A0009009002094090020001801400014014009
:1023B00080B582B000AF78607B681B0EDBB2184638
:1023C000FEF762FE7B681B0CDBB21846FEF75CFE74
:1023D0007B681B0ADBB21846FEF756FE7B68DBB251
:1023E0001846FEF751FE0837BD4680BD80B584B063
:1023F00000AF0346FB710023FB6005E06148FEF778
:102400005BFDFB680133FB60FB68132BF6DD0023EB
:10241000FB6005E05C48FEF74FFDFB680133FB60A5
:10242000FB68132BF6DD5748FEF746FD5748FEF7CD
:1024300043FD5448FEF740FD5548FEF73DFD554825
:10244000FEF73AFD5448FEF737FD5448FEF734FDD9
:102450005348FEF731FD5348FEF72EFD5248FEF774
:102460002BFD5248FEF728FD5148FEF725FD514847
:10247000FEF722FD5048FEF71FFD5048FEF71CFDF9
:102480004F48FEF719FD4F48FEF716FD4E48FEF780
:1024900013FD4E48FEF710FD4D48FEF70DFD4D486B
:1024A000FEF70AFD4C48FEF707FD4C48FEF704FD19
:1024B0004B48FEF701FD4B48FEF7FEFC4A48FEF78D
:1024C000FBFC4A48FEF7F8FC4948FEF7F5FC494892
:1024D000FEF7F2FC4848FEF7EFFC4848FEF7ECFC3C
:1024E0004748FEF7E9FC4748FEF7E6FC4648FEF79A
:1024F000E3FC4648FEF7E0FC4548FEF7DDFC4548B6
:10250000FEF7DAFC4448FEF7D7FC4448FEF7D4FC5B
:102510004348FEF7D1FC4348FEF7CEFC4248FEF7A5
:10252000CBFC4248FEF7C8FC4148FEF7C5FC4148D9
:10253000FEF7C2FC4048FEF7BFFC4048FEF7BCFC7B
:102540003F48FEF7B9FC3F48FEF7B6FC3E48FEF7B1
:10255000B3FC3E48FEF7B0FC0A48FEF7ADFC094864
:10256000FEF7AAFC3A48FEF7A7FC0648FEF7A4FCD3
:102570000448FEF7A1FC0348FEF79EFC1037BD4659
:1025800080BD00BF6CBB000890BC000894BC000874
:10259000C4BC0008CCBC0008D8BC0008F8BC0008CB
:1025A0000CBD000820BD000834BD000848BD00086F
:1025B00078BD0008A0BD0008C8BD0008E4BD000843
:1025C00018BE000848BE000884BE0008B8BE000857
:1025D000F0BE000820BF000848BF000884BF000804
:1025E000B8BF0008F0BF000820C0000848C00008BD
:1025F00084C00008B8C00008F0C0000820C100086E
:1026000048C1000870C10008B4C10008F4C1000846
:1026100034C2000868C20008ACC20008E8C2000862
:1026200014C3000840C300086CC3000898C3000826
:10263000D8C300082CC4000868C40008A0C400085F
:10264000D8C400081CC5000864C50008ACC5000853
:10265000DCC5000880B584B000AF0B463A60024686
:10266000FA71BB71FB79DB08BB73BB7B012B02D119
:102670003B68DBB2FB72BB7B022B06D13B68DBB253
:10268000BB723B681B0ADBB2FB72BB7B032B0AD11C
:102690003B68DBB27B723B681B0ADBB2BB723B68F8
:1026A0001B0CDBB2FB72BB7B042B0ED13B68DBB295
:1026B0003B723B681B0ADBB27B723B681B0CDBB2D4
:1026C000BB723B681B0EDBB2FB72BB7963F07F030E
:1026D000DBB21846FEF7D8FC0023FB730DE0FB7B52
:1026E000C3F1030307F11002134413F8083C184622
:1026F000FEF7CAFCFB7B0133FB73FB79DB08DBB223
:10270000FA7B9A42EBD3002318461037BD4680BDB2
:1027100090B587B000AF02460B46FA71BB7100233B
:10272000FB73FB79DB08BB73BB79FB73FB7B184640
:10273000FEF7AAFC0023FB750DE0FC7D0020FEF7F0
:10274000A3FC03461A4607F11803234403F8102C90
:10275000FB7D0133FB75FB79DB08DBB2FA7D9A4226
:10276000EBD3BB7B012B01D13B7A3B61BB7B022BC3
:1027700004D13B7A1A027B7A13443B61BB7B032B67
:1027800007D13B7A1A047B7A1B021A44BB7A1344A2
:102790003B61BB7B042B0AD13B7A1A067B7A1B0474
:1027A0001A44BB7A1B021A44FB7A13443B613B690F
:1027B00018461C37BD4690BD80B586B000AF786026
:1027C00000233B61FEF750FB00237B610EE02020DD
:1027D0001E21FFF79DFFF860FA680D4B9A4202D068
:1027E0003B6901333B617B6901337B617A697B68BB
:1027F0009A42ECD307487968FEF78AFD0648FEF74F
:102800005BFB06483969FEF783FD1837BD4680BD7E
:10281000EFBEEDDEF4C5000800C600080CC60008D7
:1028200080B586B000AF786000233B61FEF71CFBEB
:1028300000237B6113E020202421124AFFF70AFFC6
:1028400020202321FFF764FFF860FA680D4B9A42BD
:1028500002D03B6901333B617B6901337B617A695B
:102860007B689A42E7D308487968FEF751FD07482C
:10287000FEF722FB06483969FEF74AFD1837BD46C8
:1028800080BD00BFEFBEEDDEF4C5000800C6000845
:102890000CC6000880B400AFBD465DF8047B7047ED
:1028A00080B582B000AF78607868FFF781FD0120C5
:1028B000FDF728FF054B08221A610120FDF722FFD2
:1028C000024B08225A610837BD4680BD0014014002
:1028D00080B582B000AF78600120FDF713FF0A4B8E
:1028E00004225A617868FFF763FD0120FDF70AFFB3
:1028F000054B04221A610120FDF704FF024B04225C
:102900005A610837BD4680BD0014014080B400AF55
:10291000D04A937843F002039370CE4A138819216A
:1029200061F34F131380CB4A93786FF300039370D6
:10293000C84A13786FF304031370C74A93786FF390
:1029400041039370C44A1388192161F34F13138014
:10295000C14A93786FF300039370BF4A1378012143
:1029600061F304031370BD4A93786FF341039370CE
:10297000BA4A1388642161F34F131380B74A9378DE
:102980006FF300039370B54A1378022161F30403D7
:102990001370B34A93786FF341039370B04A13886E
:1029A000FA2161F34F131380AD4A93786FF300035C
:1029B0009370AB4A1378032161F304031370A94A9F
:1029C00093786FF341039370A64A1388142161F33F
:1029D0004F131380A34A93786FF300039370A14AB7
:1029E0001378042161F3040313709F4A93786FF303
:1029F000410393709C4A1388FA2161F34F131380AB
:102A0000994A93786FF300039370974A13780521DE
:102A100061F304031370954A5378052161F30303AE
:102A20005370924A53786FF3071353708F4A937819
:102A3000052161F3030393708C4A93786FF30713B6
:102A400093708A4A1378062161F304031370884A4D
:102A500053786FF303035370854A53786FF307136A
:102A60005370834A9378022161F303039370804A81
:102A700093786FF3071393707D4A1378072161F3FE
:102A8000040313707B4A53786FF303035370794A3E
:102A900053786FF307135370764A9378062161F3E6
:102AA00003039370734A93786FF307139370714A1B
:102AB0001378082161F3040313706F4A1378092116
:102AC00061F3040313706D4A13786FF346131370A8
:102AD0006A4A53786FF303035370684A53786FF36D
:102AE00004135370654A53786FF345135370634A68
:102AF000537843F040035370604A537843F08003A7
:102B000053705E4A937843F0070393705B4A1378DF
:102B10000A2161F304031370594A137843F0200328
:102B20001370574A137843F040031370544A1378D4
:102B300043F080031370524A537843F001035370FB
:102B40004F4A537843F0020353704D4A537843F091
:102B5000040353704A4A53786FF3C3035370484ACF
:102B600053786FF305135370454A53786FF3861308
:102B70005370434A13780B2161F304031370414AE5
:102B800013786FF3451313703E4A5378032161F3B2
:102B9000020353703B4A5378022161F3C703537019
:102BA000384A13780C2161F304031370364A137802
:102BB0000D2161F304031370334A1378042161F388
:102BC00047131370304A5378032161F302035370A3
:102BD0002E4A13780E2161F3040313702B4A1378E5
:102BE000042161F347131370294A1378102161F30C
:102BF00004031370274A1378182161F30403137038
:102C0000244A13786FF347131370224A53786FF3F3
:102C1000020353701F4A53786FF3C60353701D4A63
:102C200093786FF3030393701B4A13781A2161F3AF
:102C300004031370184A5388032161F30D03538072
:102C4000154AD37843F0C003D370134A13796FF356
:102C5000000323E0880B00205C280020802800204F
:102C6000B00C002008290020B01D002018210020F1
:102C7000840B00207C280020602800203C280020B5
:102C80002C280020700B0020F40C0020041D0020D4
:102C9000F4270020900C0020680B00201371214ABB
:102CA00013781C2161F3040313701E4A5388052115
:102CB00061F30B0353801C4A13781D2161F3040355
:102CC0001370194A1378012161F347131370164AE0
:102CD0001368192161F319231360144A13781E2114
:102CE00061F304031370114A1378052161F347134C
:102CF00013700E4A1368192161F3192313600C4AEB
:102D0000137843F01F031370094A53786FF30403D9
:102D10005370074A53786FF345135370BD465DF8FF
:102D2000047B7047F02700204C280020202800203A
:102D3000281D002080B400AFD04A937843F00203EE
:102D40009370CE4A1388082161F34F131380CB4A46
:102D5000937843F001039370C84A13786FF3040328
:102D60001370C74A93786FF341039370C44A138872
:102D7000082161F34F131380C14A937843F0010394
:102D80009370BF4A1378012161F304031370BD4AA5
:102D900093786FF341039370BA4A1388062161F365
:102DA0004F131380B74A937843F001039370B54AE9
:102DB0001378022161F304031370B34A93786FF31D
:102DC00041039370B04A1388062161F34F131380B7
:102DD000AD4A937843F001039370AB4A1378032113
:102DE00061F304031370A94A93786FF3410393705E
:102DF000A64A1388FC2161F34F131380A34A9378EA
:102E000043F001039370A14A1378042161F3040392
:102E100013709F4A93786FF3410393709C4A138811
:102E2000072161F34F131380994A93786FF30003DE
:102E30009370974A1378052161F304031370954A40
:102E400053786FF303035370924A53786FF3071369
:102E50005370904A93786FF3030393708D4A93787D
:102E60006FF3071393708B4A1378062161F3040301
:102E70001370894A53786FF303035370864A53786B
:102E80006FF307135370844A93786FF303039370BF
:102E9000814A93786FF3071393707F4A1378072161
:102EA00061F3040313707D4A53786FF30303537087
:102EB0007A4A53786FF307135370784A9378022154
:102EC00061F303039370754A9378022161F307134A
:102ED0009370724A1378082161F304031370704AE7
:102EE0001378092161F3040313706E4A13786FF3AA
:102EF000461313706B4A53786FF303035370694A98
:102F000053786FF304135370664A53786FF3451385
:102F10005370644A537843F040035370614A5378C6
:102F200043F0800353705F4A937843F00703937034
:102F30005C4A13780A2161F3040313705A4A137828
:102F400043F020031370584A137843F04003137082
:102F5000554A137843F080031370534A537843F073
:102F600001035370504A537843F0020353704E4AA2
:102F7000537843F0040353704B4A53786FF3C30301
:102F80005370494A53786FF305135370464A537888
:102F90006FF386135370444A13780B2161F30403D3
:102FA0001370424A13786FF3451313703F4A5378F6
:102FB000032161F3020353703C4A5378022161F309
:102FC000C7035370394A13780C2161F3040313705B
:102FD000374A13780D2161F304031370344A1378D0
:102FE000042161F347131370314A5378032161F3CD
:102FF000020353702F4A13780E2161F304031370F8
:103000002C4A1378042161F3471313702A4A13786A
:10301000102161F304031370284A1378182161F317
:1030200004031370254A13786FF347131370234A70
:1030300053786FF302035370204A53786FF3C6033B
:1030400053701E4A93786FF3030393701C4A1378EE
:103050001A2161F304031370194A5388032161F3A1
:103060000D035380164AD37843F0C003D370144A3B
:1030700013796FF30003137124E000BF880B002065
:103080005C28002080280020B00C002008290020A7
:10309000B01D002018210020840B00207C28002077
:1030A000602800203C2800202C280020700B0020E5
:1030B000F40C0020041D0020F4270020900C0020B8
:1030C000680B0020214A13781C2161F3040313705C
:1030D0001E4A5388052161F30B0353801C4A137861
:1030E0001D2161F304031370194A1378012161F360
:1030F00047131370164A13683F2161F319231360B5
:10310000144A13781E2161F304031370114A1378D3
:10311000022161F3471313700E4A13683F2161F3D4
:10312000192313600C4A137843F01F0313700A4AE3
:1031300053786FF304035370074A53786FF34513C2
:103140005370BD465DF8047B704700BFF027002038
:103150004C28002020280020281D002080B400AF2B
:10316000D04A937843F002039370CE4A1388192112
:1031700061F34F131380CB4A93786FF3000393707E
:10318000C84A13786FF304031370C74A93786FF338
:1031900041039370C44A1388192161F34F131380BC
:1031A000C14A93786FF300039370BF4A13780121EB
:1031B00061F304031370BD4A93786FF34103937076
:1031C000BA4A1388642161F34F131380B74A937886
:1031D0006FF300039370B54A1378022161F304037F
:1031E0001370B34A93786FF341039370B04A138816
:1031F000FA2161F34F131380AD4A93786FF3000304
:103200009370AB4A1378032161F304031370A94A46
:1032100093786FF341039370A64A1388142161F3E6
:103220004F131380A34A93786FF300039370A14A5E
:103230001378042161F3040313709F4A93786FF3AA
:10324000410393709C4A1388FA2161F34F13138052
:10325000994A93786FF300039370974A1378052186
:1032600061F304031370954A5378052161F3030356
:103270005370924A53786FF3071353708F4A9378C1
:10328000052161F3030393708C4A93786FF307135E
:1032900093708A4A1378062161F304031370884AF5
:1032A00053786FF303035370854A53786FF3071312
:1032B0005370834A9378022161F303039370804A29
:1032C00093786FF3071393707D4A1378072161F3A6
:1032D000040313707B4A53786FF303035370794AE6
:1032E00053786FF307135370764A9378062161F38E
:1032F00003039370734A93786FF307139370714AC3
:103300001378082161F3040313706F4A13780921BD
:1033100061F3040313706D4A13786FF3461313704F
:103320006A4A53786FF303035370684A53786FF314
:1033300004135370654A53786FF345135370634A0F
:10334000537843F040035370604A537843F080034E
:1033500053705E4A937843F0070393705B4A137887
:103360000A2161F304031370594A137843F02003D0
:103370001370574A137843F040031370544A13787C
:1033800043F080031370524A537843F001035370A3
:103390004F4A537843F0020353704D4A537843F039
:1033A000040353704A4A53786FF3C3035370484A77
:1033B00053786FF305135370454A53786FF38613B0
:1033C0005370434A13780B2161F304031370414A8D
:1033D00013786FF3451313703E4A5378032161F35A
:1033E000020353703B4A5378022161F3C7035370C1
:1033F000384A13780C2161F304031370364A1378AA
:103400000D2161F304031370334A1378042161F32F
:1034100047131370304A5378032161F3020353704A
:103420002E4A13780E2161F3040313702B4A13788C
:10343000042161F347131370294A1378102161F3B3
:1034400004031370274A1378182161F304031370DF
:10345000244A13786FF347131370224A53786FF39B
:10346000020353701F4A53786FF3C60353701D4A0B
:1034700093786FF3030393701B4A13781A2161F357
:1034800004031370184A5388032161F30D0353801A
:10349000154AD37843F0C003D370134A13796FF3FE
:1034A000000323E0880B00205C28002080280020F7
:1034B000B00C002008290020B01D00201821002099
:1034C000840B00207C280020602800203C2800205D
:1034D0002C280020700B0020F40C0020041D00207C
:1034E000F4270020900C0020680B00201371214A63
:1034F00013781C2161F3040313701E4A53880121C1
:1035000061F30B0353801C4A13781D2161F30403FC
:103510001370194A13786FF347131370164A136820
:10352000322161F319231360144A13781E2161F3C9
:1035300004031370114A1378052161F347131370C4
:103540000E4A1368322161F3192313600C4A137871
:1035500043F01F0313700A4A53786FF30403537048
:10356000074A53786FF345135370BD465DF8047BEB
:10357000704700BFF02700204C28002020280020A2
:10358000281D002080B400AFD04A937843F0020396
:103590009370CE4A1388082161F34F131380CB4AEE
:1035A000937843F001039370C84A13786FF30403D0
:1035B0001370C74A93786FF341039370C44A13881A
:1035C000082161F34F131380C14A937843F001033C
:1035D0009370BF4A1378012161F304031370BD4A4D
:1035E00093786FF341039370BA4A1388062161F30D
:1035F0004F131380B74A937843F001039370B54A91
:103600001378022161F304031370B34A93786FF3C4
:1036100041039370B04A1388062161F34F1313805E
:10362000AD4A937843F001039370AB4A13780321BA
:1036300061F304031370A94A93786FF34103937005
:10364000A64A1388FC2161F34F131380A34A937891
:1036500043F001039370A14A1378042161F304033A
:1036600013709F4A93786FF3410393709C4A1388B9
:10367000072161F34F131380994A93786FF3000386
:103680009370974A1378052161F304031370954AE8
:1036900053786FF303035370924A53786FF3071311
:1036A0005370904A93786FF3030393708D4A937825
:1036B0006FF3071393708B4A1378062161F30403A9
:1036C0001370894A53786FF303035370864A537813
:1036D0006FF307135370844A93786FF30303937067
:1036E000814A93786FF3071393707F4A1378072109
:1036F00061F3040313707D4A53786FF3030353702F
:103700007A4A53786FF307135370784A93780221FB
:1037100061F303039370754A9378022161F30713F1
:103720009370724A1378082161F304031370704A8E
:103730001378092161F3040313706E4A13786FF351
:10374000461313706B4A53786FF303035370694A3F
:1037500053786FF304135370664A53786FF345132D
:103760005370644A537843F040035370614A53786E
:1037700043F0800353705F4A937843F007039370DC
:103780005C4A13780A2161F3040313705A4A1378D0
:1037900043F020031370584A137843F0400313702A
:1037A000554A137843F080031370534A537843F01B
:1037B00001035370504A537843F0020353704E4A4A
:1037C000537843F0040353704B4A53786FF3C303A9
:1037D0005370494A53786FF305135370464A537830
:1037E0006FF386135370444A13780B2161F304037B
:1037F0001370424A13786FF3451313703F4A53789E
:10380000032161F3020353703C4A5378022161F3B0
:10381000C7035370394A13780C2161F30403137002
:10382000374A13780D2161F304031370344A137877
:10383000042161F347131370314A5378032161F374
:10384000020353702F4A13780E2161F3040313709F
:103850002C4A1378042161F3471313702A4A137812
:10386000102161F304031370284A1378182161F3BF
:1038700004031370254A13786FF347131370234A18
:1038800053786FF302035370204A53786FF3C603E3
:1038900053701E4A93786FF3030393701C4A137896
:1038A0001A2161F304031370194A5388032161F349
:1038B0000D035380164AD37843F0C003D370144AE3
:1038C00013796FF30003137124E000BF880B00200D
:1038D0005C28002080280020B00C0020082900204F
:1038E000B01D002018210020840B00207C2800201F
:1038F000602800203C2800202C280020700B00208D
:10390000F40C0020041D0020F4270020900C00205F
:10391000680B0020204A13781C2161F30403137004
:103920001D4A5388012161F30B0353801B4A13780E
:103930001D2161F304031370184A13786FF34713C2
:103940001370164A13687E2161F319231360144A19
:1039500013781E2161F304031370114A13780221B6
:1039600061F3471313700E4A13687E2161F3192324
:1039700013600C4A137843F01F031370094A5378FD
:103980006FF304035370074A53786FF34513537072
:10399000BD465DF8047B7047F02700204C280020CE
:1039A00020280020281D002080B400AFD04A937842
:1039B00043F002039370CE4A1388192161F34F1329
:1039C0001380CB4A93786FF300039370C84A13783F
:1039D0006FF304031370C74A93786FF34103937036
:1039E000C44A1388192161F34F131380C14A937895
:1039F0006FF300039370BF4A1378012161F304034E
:103A00001370BD4A93786FF341039370BA4A1388D9
:103A1000642161F34F131380B74A93786FF3000367
:103A20009370B54A1378022161F304031370B34A0B
:103A300093786FF341039370B04A1388FA2161F3CE
:103A40004F131380AD4A93786FF300039370AB4A22
:103A50001378032161F304031370A94A93786FF379
:103A600041039370A64A1388142161F34F13138006
:103A7000A34A93786FF300039370A14A137804214B
:103A800061F3040313709F4A93786FF341039370BB
:103A90009C4A1388FA2161F34F131380994A937853
:103AA0006FF300039370974A1378052161F30403C1
:103AB0001370954A5378052161F303035370924ABA
:103AC00053786FF3071353708F4A9378052161F38E
:103AD000030393708C4A93786FF3071393708A4AA9
:103AE0001378062161F304031370884A53786FF347
:103AF00003035370854A53786FF307135370834A57
:103B00009378022161F303039370804A93786FF3F3
:103B1000071393707D4A1378072161F30403137030
:103B20007B4A53786FF303035370794A53786FF3EA
:103B300007135370764A9378062161F30303937059
:103B4000734A93786FF307139370714A13780821BF
:103B500061F3040313706F4A1378092161F30403BE
:103B600013706D4A13786FF3461313706A4A5378D3
:103B70006FF303035370684A53786FF30413537061
:103B8000654A53786FF345135370634A537843F093
:103B900040035370604A537843F0800353705E4A89
:103BA000937843F0070393705B4A13780A2161F31B
:103BB00004031370594A137843F020031370574AD3
:103BC000137843F040031370544A137843F0800392
:103BD0001370524A537843F0010353704F4A53789D
:103BE00043F0020353704D4A537843F0040353707B
:103BF0004A4A53786FF3C3035370484A53786FF3BC
:103C000005135370454A53786FF386135370434A34
:103C100013780B2161F304031370414A13786FF397
:103C2000451313703E4A5378032161F30203537026
:103C30003B4A5378022161F3C7035370384A137823
:103C40000C2161F304031370364A13780D2161F3DC
:103C500004031370334A1378042161F3471313707C
:103C6000304A5378032161F3020353702E4A1378CC
:103C70000E2161F3040313702B4A1378042161F3BE
:103C800047131370294A1378102161F3040313704A
:103C9000274A1378182161F304031370244A137818
:103CA0006FF347131370224A53786FF30203537074
:103CB0001F4A53786FF3C60353701D4A93786FF30E
:103CC000030393701B4A13781A2161F304031370E2
:103CD000184A5388032161F30D035380154AD378A2
:103CE00043F0C003D370134A13796FF3000323E04A
:103CF000880B00205C28002080280020B00C0020C9
:103D000008290020B01D002018210020840B00206D
:103D10007C280020602800203C2800202C2800203F
:103D2000700B0020F40C0020041D0020F42700205C
:103D3000900C0020680B00201371214A13781C217D
:103D400061F3040313701E4A5388012161F30B03CE
:103D500053801C4A13781D2161F304031370194A20
:103D600013786FF347131370164A1368FA2161F33F
:103D700019231360144A13781E2161F3040313708E
:103D8000114A1378022161F3471313700E4A136826
:103D9000FA2161F3192313600C4A137843F01F03CF
:103DA00013700A4A53786FF304035370074A537829
:103DB0006FF345135370BD465DF8047B704700BF39
:103DC000F02700204C28002020280020281D00205B
:103DD00080B400AFD04A937843F002039370CE4A88
:103DE0001388082161F34F131380CB4A937843F073
:103DF00001039370C84A13786FF304031370C74A22
:103E000093786FF341039370C44A1388082161F3D8
:103E10004F131380C14A937843F001039370BF4A54
:103E20001378012161F304031370BD4A93786FF393
:103E300041039370BA4A1388062161F34F1313802C
:103E4000B74A937843F001039370B54A137802217F
:103E500061F304031370B34A93786FF341039370D3
:103E6000B04A1388062161F34F131380AD4A93784B
:103E700043F001039370AB4A1378032161F3040309
:103E80001370A94A93786FF341039370A64A13887D
:103E9000FC2161F34F131380A34A937843F001038D
:103EA0009370A14A1378042161F3040313709F4AAD
:103EB00093786FF3410393709C4A1388072161F351
:103EC0004F131380994A93786FF300039370974AC6
:103ED0001378052161F304031370954A53786FF347
:103EE00003035370924A53786FF307135370904A49
:103EF00093786FF3030393708D4A93786FF30713EE
:103F000093708B4A1378062161F304031370894A76
:103F100053786FF303035370864A53786FF3071394
:103F20005370844A93786FF303039370814A9378B4
:103F30006FF3071393707F4A1378072161F304032B
:103F400013707D4A53786FF3030353707A4A5378A2
:103F50006FF307135370784A9378022161F30303D8
:103F60009370754A9378022161F307139370724A34
:103F70001378082161F304031370704A1378092140
:103F800061F3040313706E4A13786FF346131370D2
:103F90006B4A53786FF303035370694A53786FF396
:103FA00004135370664A53786FF345135370644A91
:103FB000537843F040035370614A537843F08003D1
:103FC00053705F4A937843F0070393705C4A137809
:103FD0000A2161F3040313705A4A137843F0200353
:103FE0001370584A137843F040031370554A1378FE
:103FF00043F080031370534A537843F00103537026
:10400000504A537843F0020353704E4A537843F0BA
:10401000040353704B4A53786FF3C3035370494AF8
:1040200053786FF305135370464A53786FF3861332
:104030005370444A13780B2161F304031370424A0E
:1040400013786FF3451313703F4A5378032161F3DC
:10405000020353703C4A5378022161F3C703537043
:10406000394A13780C2161F304031370374A13782B
:104070000D2161F304031370344A1378042161F3B2
:1040800047131370314A5378032161F302035370CD
:104090002F4A13780E2161F3040313702C4A13780E
:1040A000042161F3471313702A4A1378102161F336
:1040B00004031370284A1378182161F30403137062
:1040C000254A13786FF347131370234A53786FF31D
:1040D00002035370204A53786FF3C60353701E4A8D
:1040E00093786FF3030393701C4A13781A2161F3DA
:1040F00004031370194A5388032161F30D0353809D
:10410000164AD37843F0C003D370144A13796FF37F
:104110000003137124E000BF880B00205C280020FE
:1041200080280020B00C002008290020B01D0020AD
:1041300018210020840B00207C280020602800200B
:104140003C2800202C280020700B0020F40C0020BC
:10415000041D0020F4270020900C0020680B002094
:10416000204A13781C2161F3040313701D4A5388FD
:10417000012161F30B0353801B4A13781D2161F366
:1041800004031370184A13786FF347131370164A19
:104190001368FC2161F319231360144A13781E215C
:1041A00061F304031370114A1378022161F347137A
:1041B00013700E4A1368FC2161F3192313600C4A33
:1041C000137843F01F031370094A53786FF3040305
:1041D0005370074A53786FF345135370BD465DF82B
:1041E000047B7047F02700204C2800202028002066
:1041F000281D002080B500AFAE4B00221A60AD4BE9
:104200001A68AD4B9B78C3F34003DBB25B041A43DF
:10421000A94B9B78C3F30003DBB2DB071A43A64B21
:104220001B88C3F34A139BB25B011A43A24B1B7852
:10423000C3F30403DBB21A439E4B1A609D4B1B6809
:104240001846FEF72DFB9D48FCF736FE994B0022E1
:104250001A60984B1A68984B9B78C3F30003DBB243
:10426000DB071A43944B1B88C3F34A139BB25B01D1
:104270001A43914B1B78C3F30403DBB21A438D4BF3
:104280001A608C4B00225A608A4B5A688C4B9B7880
:10429000C3F34003DBB25B041A43894B9B78C3F33F
:1042A0000003DBB2DB071A43854B1B88C3F34A13B9
:1042B0009BB25B011A43824B1B78C3F30403DBB24E
:1042C0001A437C4B5A607B4B00229A60794B9A6868
:1042D0007C4B9B78C3F30003DBB2DB071A43794BBB
:1042E0001B88C3F34A139BB25B011A43754B1B78BF
:1042F000C3F30403DBB21A436E4B9A606D4B00228A
:10430000DA606C4BDA68704B9B78C3F30003DBB266
:10431000DB071A436C4B1B88C3F34A139BB25B0148
:104320001A43694B1B78C3F30403DBB21A43614B96
:10433000DA60604B00221A615E4B1A69634B9B780E
:10434000C3F30003DBB2DB071A43604B1B88C3F3E4
:104350004A139BB25B011A435C4B1B78C3F3040303
:10436000DBB21A43534B1A61524B00225A61514B34
:104370005A69574B9B78C3F30003DBB2DB071A4340
:10438000534B1B88C3F34A139BB25B011A43504B38
:104390001B78C3F30403DBB21A43464B5A61454B07
:1043A00000229A61434B9A694A4B5B78C3F303033B
:1043B000DBB21B041A43474B5B78C3F30313DBB236
:1043C0001B051A43434B9B78C3F30303DBB21B0665
:1043D0001A43404B9B78C3F30313DBB21B071A430A
:1043E0003C4B1B78C3F30403DBB21A43314B9A6195
:1043F000304B0022DA612F4BDA69374B5B78C3F31D
:104400000303DBB21B041A43334B5B78C3F3031380
:10441000DBB21B051A43304B9B78C3F30303DBB2BB
:104420001B061A432C4B9B78C3F30313DBB21B0709
:104430001A43294B1B78C3F30403DBB21A431D4B09
:10444000DA611C4B00221A621A4B1A6A234B5B7802
:10445000C3F30303DBB21B041A43204B5B78C3F3A3
:104460000313DBB21B051A431C4B9B78C3F30303F6
:10447000DBB21B061A43194B9B78C3F30313DBB261
:104480001B071A43154B1B78C3F30403DBB21A4313
:10449000084B1A62074B00225A62064B5A6A104BAD
:1044A0001B78C3F30403DBB21A430E4B1343014AD8
:1044B000536219E0581D0020880B00201CC600081C
:1044C0005C28002080280020B00C00200829002053
:1044D000B01D002018210020840B00207C28002023
:1044E0006028002040555555B64B00229A62B54BC6
:1044F0009A6AB54B1B78C3F34113DBB21B061A4310
:10450000B14B5B78C3F30303DBB29B071A43AE4B9B
:104510005B78C3F30013DBB2DB051A43AA4B5B786D
:10452000C3F34013DBB29B051A43A74B5B78C3F37D
:104530008013DBB25B051A43A34B5B78C3F3C01354
:10454000DBB21B051A43A04B9B78C3F30203DBB21B
:104550001B041A439C4B1B78C3F30403DBB21343C5
:1045600043F0805343F48043964A9362954B002274
:10457000DA62944BDA6A954B1B78C3F34013DBB2D3
:104580001B051A43914B1B78C3F38013DBB25B0509
:104590001A438E4B1B78C3F3C013DBB29B051A433F
:1045A0008A4B5B78C3F30003DBB2DB051A43874B0E
:1045B0005B78C3F34003DBB21B061A43834B5B7883
:1045C000C3F38003DBB25B061A43804B5B78C3F313
:1045D000C003DBB21B041A437C4B5B78C3F30113AB
:1045E000DBB21B031A43794B5B78C3F38013DBB256
:1045F0005B011A43754B1B78C3F30403DBB213430F
:1046000043F050526F4BDA626E4B00221A636D4BCF
:104610001A6B6F4B1B78C3F34013DBB2DB051A43F5
:104620006B4B5B78C3F30203DBB21B061A43684B88
:104630005B78C3F3C403DBB2DB061A43644B1B781D
:10464000C3F30403DBB2134343F4402343F060039A
:104650005C4A13635B4B00225A635A4B5A6B5D4BA7
:104660001B78C3F34213DBB21B041A43594B5B782C
:10467000C3F30203DBB21B061A43564B1B78C3F38A
:104680000403DBB2134343F0605343F400434D4A49
:1046900053634C4B00229A634A4B9A6B4E4B1B78E8
:1046A000C3F34213DBB21B061A434B4B1B78C3F315
:1046B0000403DBB21A43434B9A63424B0022DA6392
:1046C000404BDA6B454B1B78C3F30403DBB21A4350
:1046D000434B13433B4AD3633A4B00221A64394B92
:1046E0001A6C404B1B78C3F34213DBB21B041A4312
:1046F0003C4B5B78C3F30203DBB21B051A43394B17
:104700005B78C3F3C303DBB21B061A43354B9B78BC
:10471000C3F30303DBB21B071A43324B1B78C3F30B
:104720000403DBB21A43274B1A64264B00225A6457
:10473000244B5A6C2C4B5B88C3F30D039BB29B013B
:104740001A43294BDB78C3F38113DBB29B061A4370
:10475000254B1B79C3F30003DBB25B071A43224BE3
:104760001B78C3F30403DBB2134343F0034343F466
:104770002003144A5364134B00229A64114B9A6C21
:104780001A4B5B88C3F30B039BB21B051A43174BF1
:104790001B78C3F30403DBB21A430A4B9A64094B38
:1047A0000022DA64074BDA6C114B1B78C3F3421317
:1047B000DBB21B061A430E4B1B68C3F311235B01CC
:1047C0001A4317E0581D00203C2800202C28002008
:1047D000700B0020F40C0020041D0020F4270020A2
:1047E000000455C1900C0020680B0020F027002029
:1047F0004C280020944B1B78C3F30403DBB2134313
:1048000043F40002914BDA64904B00221A658F4BFF
:104810001A6D8F4B1B78C3F34213DBB21B061A438E
:104820008B4B1B68C3F311235B011A43884B1B7826
:10483000C3F30403DBB21A43844B1A65834B002293
:104840005A65824B5A6D834B5B78C3F30403DBB22A
:104850001B041A437F4B5B78C3F34013DBB25B014D
:104860001A437C4B1B78C3F30403DBB21A43774B28
:104870005A65764B1B681846FEF712F87648FCF727
:104880001BFB724B5B681846FEF70AF87348FCF78F
:1048900013FB6E4B9B681846FEF702F87048FCF756
:1048A0000BFB6A4BDB681846FDF7FAFF6D48FCF717
:1048B00003FB664B1B691846FDF7F2FF6A48FCF7DD
:1048C000FBFA624B5B691846FDF7EAFF6748FCF7A5
:1048D000F3FA5E4B1B681846FDF7E2FF5E48FCF7F3
:1048E000EBFA5A4B5B681846FDF7DAFF5B48FCF7BA
:1048F000E3FA564B9B681846FDF7D2FF5848FCF781
:10490000DBFA524BDB681846FDF7CAFF5548FCF747
:10491000D3FA4E4B1B691846FDF7C2FF5248FCF70D
:10492000CBFA4A4B5B691846FDF7BAFF4F48FCF7D4
:10493000C3FA464B9B691846FDF7B2FF4C48FCF79B
:10494000BBFA424BDB691846FDF7AAFF4948FCF762
:10495000B3FA3E4B1B6A1846FDF7A2FF4648FCF728
:10496000ABFA3A4B5B6A1846FDF79AFF4348FCF7EF
:10497000A3FA364B9B6A1846FDF792FF4048FCF7B6
:104980009BFA324BDB6A1846FDF78AFF3D48FCF77D
:1049900093FA2E4B1B6B1846FDF782FF3A48FCF743
:1049A0008BFA2A4B5B6B1846FDF77AFF3748FCF70A
:1049B00083FA264B9B6B1846FDF772FF3448FCF7D1
:1049C0007BFA224BDB6B1846FDF76AFF3148FCF798
:1049D00073FA1E4B1B6C1846FDF762FF2E48FCF75E
:1049E0006BFA1A4B5B6C1846FDF75AFF2B48FCF725
:1049F00063FA164B9B6C1846FDF752FF2848FCF7EC
:104A00005BFA124BDB6C1846FDF74AFF2548FCF7B2
:104A100053FA0E4B1B6D1846FDF742FF2248FCF778
:104A20004BFA0A4B5B6D1846FDF73AFF1F48FCF73F
:104A300043FA1F4B80225A616420FCF701FA1C4B99
:104A400080221A6180BD00BF4C280020581D002024
:104A500020280020281D002028C600082CC6000899
:104A600030C6000834C6000838C600083CC6000836
:104A700040C6000844C6000848C600084CC60008E6
:104A800050C6000858C6000860C6000868C600087E
:104A900070C6000878C6000880C6000888C60008EE
:104AA00090C6000898C60008A0C60008A8C600085E
:104AB0000010014080B500AFAE4B00221A60AD4B34
:104AC0001A68AD4B9B78C3F34003DBB25B041A4317
:104AD000A94B9B78C3F30003DBB2DB071A43A64B59
:104AE0001B88C3F34A139BB25B011A43A24B1B788A
:104AF000C3F30403DBB21A439E4B1A609D4B1B6841
:104B00001846FDF7E5FE9D48FCF7D6F9994B0022C3
:104B10001A60984B1A68984B9B78C3F30003DBB27A
:104B2000DB071A43944B1B88C3F34A139BB25B0108
:104B30001A43914B1B78C3F30403DBB21A438D4B2A
:104B40001A608C4B00225A608A4B5A688C4B9B78B7
:104B5000C3F34003DBB25B041A43894B9B78C3F376
:104B60000003DBB2DB071A43854B1B88C3F34A13F0
:104B70009BB25B011A43824B1B78C3F30403DBB285
:104B80001A437C4B5A607B4B00229A60794B9A689F
:104B90007C4B9B78C3F30003DBB2DB071A43794BF2
:104BA0001B88C3F34A139BB25B011A43754B1B78F6
:104BB000C3F30403DBB21A436E4B9A606D4B0022C1
:104BC000DA606C4BDA68704B9B78C3F30003DBB29E
:104BD000DB071A436C4B1B88C3F34A139BB25B0180
:104BE0001A43694B1B78C3F30403DBB21A43614BCE
:104BF000DA60604B00221A615E4B1A69634B9B7846
:104C0000C3F30003DBB2DB071A43604B1B88C3F31B
:104C10004A139BB25B011A435C4B1B78C3F304033A
:104C2000DBB21A43534B1A61524B00225A61514B6B
:104C30005A69574B9B78C3F30003DBB2DB071A4377
:104C4000534B1B88C3F34A139BB25B011A43504B6F
:104C50001B78C3F30403DBB21A43464B5A61454B3E
:104C600000229A61434B9A694A4B5B78C3F3030372
:104C7000DBB21B041A43474B5B78C3F30313DBB26D
:104C80001B051A43434B9B78C3F30303DBB21B069C
:104C90001A43404B9B78C3F30313DBB21B071A4341
:104CA0003C4B1B78C3F30403DBB21A43314B9A61CC
:104CB000304B0022DA612F4BDA69374B5B78C3F354
:104CC0000303DBB21B041A43334B5B78C3F30313B8
:104CD000DBB21B051A43304B9B78C3F30303DBB2F3
:104CE0001B061A432C4B9B78C3F30313DBB21B0741
:104CF0001A43294B1B78C3F30403DBB21A431D4B41
:104D0000DA611C4B00221A621A4B1A6A234B5B7839
:104D1000C3F30303DBB21B041A43204B5B78C3F3DA
:104D20000313DBB21B051A431C4B9B78C3F303032D
:104D3000DBB21B061A43194B9B78C3F30313DBB298
:104D40001B071A43154B1B78C3F30403DBB21A434A
:104D5000084B1A62074B00225A62064B5A6A104BE4
:104D60001B78C3F30403DBB21A430E4B1343014A0F
:104D7000536219E088280020880B00201CC6000818
:104D80005C28002080280020B00C0020082900208A
:104D9000B01D002018210020840B00207C2800205A
:104DA0006028002040555555B64B00229A62B54BFD
:104DB0009A6AB54B1B78C3F34113DBB21B061A4347
:104DC000B14B5B78C3F30303DBB29B071A43AE4BD3
:104DD0005B78C3F30013DBB2DB051A43AA4B5B78A5
:104DE000C3F34013DBB29B051A43A74B5B78C3F3B5
:104DF0008013DBB25B051A43A34B5B78C3F3C0138C
:104E0000DBB21B051A43A04B9B78C3F30203DBB252
:104E10001B041A439C4B1B78C3F30403DBB21343FC
:104E200043F0805343F48043964A9362954B0022AB
:104E3000DA62944BDA6A954B1B78C3F34013DBB20A
:104E40001B051A43914B1B78C3F38013DBB25B0540
:104E50001A438E4B1B78C3F3C013DBB29B051A4376
:104E60008A4B5B78C3F30003DBB2DB051A43874B45
:104E70005B78C3F34003DBB21B061A43834B5B78BA
:104E8000C3F38003DBB25B061A43804B5B78C3F34A
:104E9000C003DBB21B041A437C4B5B78C3F30113E2
:104EA000DBB21B031A43794B5B78C3F38013DBB28D
:104EB0005B011A43754B1B78C3F30403DBB2134346
:104EC00043F050526F4BDA626E4B00221A636D4B07
:104ED0001A6B6F4B1B78C3F34013DBB2DB051A432D
:104EE0006B4B5B78C3F30203DBB21B061A43684BC0
:104EF0005B78C3F3C403DBB2DB061A43644B1B7855
:104F0000C3F30403DBB2134343F4402343F06003D1
:104F10005C4A13635B4B00225A635A4B5A6B5D4BDE
:104F20001B78C3F34213DBB21B041A43594B5B7863
:104F3000C3F30203DBB21B061A43564B1B78C3F3C1
:104F40000403DBB2134343F0605343F400434D4A80
:104F500053634C4B00229A634A4B9A6B4E4B1B781F
:104F6000C3F34213DBB21B061A434B4B1B78C3F34C
:104F70000403DBB21A43434B9A63424B0022DA63C9
:104F8000404BDA6B454B1B78C3F30403DBB21A4387
:104F9000434B13433B4AD3633A4B00221A64394BC9
:104FA0001A6C404B1B78C3F34213DBB21B041A4349
:104FB0003C4B5B78C3F30203DBB21B051A43394B4E
:104FC0005B78C3F3C303DBB21B061A43354B9B78F4
:104FD000C3F30303DBB21B071A43324B1B78C3F343
:104FE0000403DBB21A43274B1A64264B00225A648F
:104FF000244B5A6C2C4B5B88C3F30D039BB29B0173
:105000001A43294BDB78C3F38113DBB29B061A43A7
:10501000254B1B79C3F30003DBB25B071A43224B1A
:105020001B78C3F30403DBB2134343F0034343F49D
:105030002003144A5364134B00229A64114B9A6C58
:105040001A4B5B88C3F30B039BB21B051A43174B28
:105050001B78C3F30403DBB21A430A4B9A64094B6F
:105060000022DA64074BDA6C114B1B78C3F342134E
:10507000DBB21B061A430E4B1B68C3F311235B0103
:105080001A4317E0882800203C2800202C28002004
:10509000700B0020F40C0020041D0020F4270020D9
:1050A000000455C1900C0020680B0020F027002060
:1050B0004C280020944B1B78C3F30403DBB213434A
:1050C00043F40002914BDA64904B00221A658F4B37
:1050D0001A6D8F4B1B78C3F34213DBB21B061A43C6
:1050E0008B4B1B68C3F311235B011A43884B1B785E
:1050F000C3F30403DBB21A43844B1A65834B0022CB
:105100005A65824B5A6D834B5B78C3F30403DBB261
:105110001B041A437F4B5B78C3F34013DBB25B0184
:105120001A437C4B1B78C3F30403DBB21A43774B5F
:105130005A65764B1B681846FDF7CAFB7648FBF7A5
:10514000BBFE724B5B681846FDF7C2FB7348FBF76A
:10515000B3FE6E4B9B681846FDF7BAFB7048FBF731
:10516000ABFE6A4BDB681846FDF7B2FB6D48FBF7F8
:10517000A3FE664B1B691846FDF7AAFB6A48FBF7BE
:105180009BFE624B5B691846FDF7A2FB6748FBF785
:1051900093FE5E4B1B681846FDF79AFB5E48FBF7D3
:1051A0008BFE5A4B5B681846FDF792FB5B48FBF79A
:1051B00083FE564B9B681846FDF78AFB5848FBF761
:1051C0007BFE524BDB681846FDF782FB5548FBF728
:1051D00073FE4E4B1B691846FDF77AFB5248FBF7EE
:1051E0006BFE4A4B5B691846FDF772FB4F48FBF7B5
:1051F00063FE464B9B691846FDF76AFB4C48FBF77C
:105200005BFE424BDB691846FDF762FB4948FBF742
:1052100053FE3E4B1B6A1846FDF75AFB4648FBF708
:105220004BFE3A4B5B6A1846FDF752FB4348FBF7CF
:1052300043FE364B9B6A1846FDF74AFB4048FBF796
:105240003BFE324BDB6A1846FDF742FB3D48FBF75D
:1052500033FE2E4B1B6B1846FDF73AFB3A48FBF723
:105260002BFE2A4B5B6B1846FDF732FB3748FBF7EA
:1052700023FE264B9B6B1846FDF72AFB3448FBF7B1
:105280001BFE224BDB6B1846FDF722FB3148FBF778
:1052900013FE1E4B1B6C1846FDF71AFB2E48FBF73E
:1052A0000BFE1A4B5B6C1846FDF712FB2B48FBF705
:1052B00003FE164B9B6C1846FDF70AFB2848FBF7CC
:1052C000FBFD124BDB6C1846FDF702FB2548FBF794
:1052D000F3FD0E4B1B6D1846FDF7FAFA2248FBF75B
:1052E000EBFD0A4B5B6D1846FDF7F2FA1F48FBF722
:1052F000E3FD1F4B80225A616420FBF7A1FD1C4B8C
:1053000080221A6180BD00BF4C2800208828002020
:1053100020280020281D002028C600082CC60008D0
:1053200030C6000834C6000838C600083CC600086D
:1053300040C6000844C6000848C600084CC600081D
:1053400050C6000858C6000860C6000868C60008B5
:1053500070C6000878C6000880C6000888C6000825
:1053600090C6000898C60008A0C60008A8C6000895
:105370000010014080B582B000AF0346FB71FB799D
:10538000642B2BD14648FBF797FD4648FBF794FD6D
:105390004548FBF791FDFDF7CDFCFFF78BFB43483C
:1053A000FBF78AFD4248FBF787FD3D48FBF784FD8C
:1053B0003B48FBF781FD3B48FBF77EFD3D48FBF793
:1053C0007BFDFDF7A3FAFEF715FF3848FBF774FDE8
:1053D0003748FBF771FD3248FBF76EFDFB790A2B6E
:1053E0002BD12F48FBF768FD2E48FBF765FD3248AF
:1053F000FBF762FDFEF7C6F8FFF75CFB2B48FBF7F7
:105400005BFD2B48FBF758FD2548FBF755FD24486D
:10541000FBF752FD2348FBF74FFD2848FBF74CFDF7
:10542000FDF79CFEFEF7E6FE2048FBF745FD204811
:10543000FBF742FD1A48FBF73FFDFB79052B2BD10B
:105440001748FBF739FD1748FBF736FD1C48FBF7FB
:1054500033FDFEF7BDFCFFF72DFB1448FBF72CFDD9
:105460001348FBF729FD0E48FBF726FD0C48FBF718
:1054700023FD0C48FBF720FD1248FBF71DFDFEF74E
:1054800093FAFEF7B7FE0948FBF716FD0848FBF74D
:1054900013FD0348FBF710FD0837BD4680BD00BF74
:1054A00000BB0008B0C60008D8C60008FCC600084B
:1054B00004C7000814C7000838C700085CC7000804
:1054C00080C70008A4C7000880B586B000AF244B91
:1054D0007B610920012100F079F94FF400100121CE
:1054E00000F092F91F4BC0221A801E4B1C22DA706A
:1054F0001C4B01229A701C481A49FAF71FFF4FF4FF
:105500000010012100F09EF94FF40010002100F07E
:1055100099F900233B814BF6FF737B810023BB810C
:105520004FF48063FB814FF480433B827B697B6057
:105530003B1D0E48194600F0A3FF0C48012101F065
:1055400061F80A48012101F07DF81F20FBF760F89F
:105550001F200121FBF774F81837BD4680BD00BF3E
:10556000A086010030280020000C014000540040BB
:1055700080B500AFFBF7B0F8FBF706FAFBF746FB88
:10558000FBF70EFCFBF7A4FAFBF724F9FBF71AFD77
:10559000FFF79AFF1348FBF78FFC1348FBF78CFCCF
:1055A0001048FBF789FC1148FBF786FC0E48FBF717
:1055B00083FC0C48FBF780FC0020FCF717FF0C4B2A
:1055C00064221A600120FBF7EFFE6420FFF7D2FE91
:1055D000FCF7C6FDFBF748FCFCF70AFEFCF79EFD56
:1055E000F6E700BF00BB0008C8C70008D0C7000826
:1055F0008809002080B485B000AF78600023FB608C
:10560000094B5B68FB60FB6823F44043FB60FA686E
:105610007B681343FB60044BFA685A601437BD463D
:105620005DF8047B704700BF0010024080B487B073
:1056300000AF786000237B6100233B610023FB60A7
:105640000023BB604D4B5B6803F00C037B617B69FF
:10565000042B07D0082B09D0002B34D17B68484A93
:105660001A6034E07B68464A1A6030E0434B5B685E
:1056700003F470133B61414B5B6803F48033FB60C0
:105680003B699B0C02333B61FB68002B06D13B69F5
:105690003C4A02FB03F27B681A6013E0374B5B68FD
:1056A00003F40033002B06D03B69364A02FB03F2B9
:1056B0007B681A6006E03B69314A02FB03F27B68B3
:1056C0001A6004E003E07B682D4A1A6000BF2B4B90
:1056D0005B6803F0F0037B617B691B097B612A4AED
:1056E0007B6913441B78DBB2BB607B681A68BB68BC
:1056F000DA407B685A60214B5B6803F4E0637B61AE
:105700007B691B0A7B61204A7B6913441B78DBB2EF
:10571000BB607B685A68BB68DA407B689A60174B4D
:105720005B6803F460537B617B69DB0A7B61164A2B
:105730007B6913441B78DBB2BB607B685A68BB682B
:10574000DA407B68DA600D4B5B6803F440437B61B1
:105750007B699B0B7B610D4A7B6913441B78DBB231
:10576000BB607B68DA68BB68B2FBF3F27B681A61E6
:105770001C37BD465DF8047B704700BF0010024037
:1057800000127A0000093D001800002028000020C7
:1057900080B483B000AF78600B46FB70FB78002BC1
:1057A00006D0094B084A51697A680A435A6106E0F3
:1057B000054B054A51697A68D2430A405A610C3751
:1057C000BD465DF8047B70470010024080B483B092
:1057D00000AF78600B46FB70FB78002B06D0094BBE
:1057E000084A91697A680A439A6106E0054B054ABE
:1057F00091697A68D2430A409A610C37BD465DF8D8
:10580000047B70470010024080B483B000AF786022
:105810000B46FB70FB78002B06D0094B084AD16978
:105820007A680A43DA6106E0054B054AD1697A686D
:10583000D2430A40DA610C37BD465DF8047B7047FD
:105840000010024080B483B000AF78600B46FB705C
:10585000FB78002B06D0094B084A11697A680A4385
:105860001A6106E0054B054A11697A68D2430A407D
:105870001A610C37BD465DF8047B7047001002408A
:1058800080B485B000AF78600023FB60324BFB60D2
:105890007B689B79002B4DD02F4B2F4A11687A687B
:1058A0001268D2430A401A602B4B2B4A51687A681F
:1058B0001268D2430A405A607B681B79FA68134425
:1058C000FB60FB68FA6811687A6812680A431A601C
:1058D000214B214A91687A681268D2430A409A6043
:1058E0001D4B1D4AD1687A681268D2430A40DA60BB
:1058F0007B685B79102B0ED1174B174A91687A6839
:1059000012680A439A60144B134AD1687A68126885
:105910000A43DA601BE0104BFB607B685B79FA6836
:105920001344FB60FB68FA6811687A6812680A43DE
:105930001A600CE07B681B79FA681344FB60FB6813
:10594000FA6811687A681268D2430A401A601437FC
:10595000BD465DF8047B70470004014080B483B00D
:1059600000AF7860034B7A685A610C37BD465DF82A
:10597000047B70470004014080B485B000AF7860BC
:105980000023FB730023BB600C4B1A687B68134039
:10599000BB600A4B5A697B681340002B05D0BB687B
:1059A000002B02D00123FB7301E00023FB73FB7B80
:1059B00018461437BD465DF8047B7047000401406B
:1059C00080B483B000AF7860034B7A685A610C37BB
:1059D000BD465DF8047B70470004014080B485B08B
:1059E00000AF786039600023FB600023FB727B68A6
:1059F0005B68FB60FB6823F4702323F48073FB6017
:105A00003B681A683B681B791B021343FA6813430F
:105A1000FB607B68FA685A607B689B68FB60FA6889
:105A2000164B1340FB603B68DA683B689B681A437F
:105A30003B685B795B001343FA681343FB607B6848
:105A4000FA689A607B68DB6AFB60FB6823F470038A
:105A5000FB603B681B7C013BDAB2FB7A1343FB72B1
:105A6000FB7A1B05FA681343FB607B68FA68DA620D
:105A70001437BD465DF8047B704700BFFDF7F1FFAA
:105A800080B483B000AF78600B46FB70FB78002BCE
:105A900006D07B689B6843F001027B689A6005E052
:105AA0007B689B6823F001027B689A600C37BD46D7
:105AB0005DF8047B704700BF80B485B000AF7860AC
:105AC00013460A467A807B700023FB737B88FB7346
:105AD0007B78002B06D07B685A68FB7B1A437B6877
